{
  "_format": "hh3-artifact-1",
  "contractName": "AnimalFarm",
  "sourceName": "contracts/AnimalFarm.sol",
  "abi": [
    {
      "inputs": [
        {
          "internalType": "address",
          "name": "_gameToken",
          "type": "address"
        }
      ],
      "stateMutability": "nonpayable",
      "type": "constructor"
    },
    {
      "inputs": [
        {
          "internalType": "address",
          "name": "owner",
          "type": "address"
        }
      ],
      "name": "OwnableInvalidOwner",
      "type": "error"
    },
    {
      "inputs": [
        {
          "internalType": "address",
          "name": "account",
          "type": "address"
        }
      ],
      "name": "OwnableUnauthorizedAccount",
      "type": "error"
    },
    {
      "anonymous": false,
      "inputs": [
        {
          "indexed": true,
          "internalType": "address",
          "name": "player",
          "type": "address"
        },
        {
          "indexed": false,
          "internalType": "uint256",
          "name": "animalId",
          "type": "uint256"
        },
        {
          "indexed": false,
          "internalType": "enum AnimalFarm.AnimalType",
          "name": "animalType",
          "type": "uint8"
        }
      ],
      "name": "AnimalPurchased",
      "type": "event"
    },
    {
      "anonymous": false,
      "inputs": [
        {
          "indexed": true,
          "internalType": "address",
          "name": "previousOwner",
          "type": "address"
        },
        {
          "indexed": true,
          "internalType": "address",
          "name": "newOwner",
          "type": "address"
        }
      ],
      "name": "OwnershipTransferred",
      "type": "event"
    },
    {
      "anonymous": false,
      "inputs": [
        {
          "indexed": true,
          "internalType": "address",
          "name": "player",
          "type": "address"
        },
        {
          "indexed": false,
          "internalType": "uint256",
          "name": "animalId",
          "type": "uint256"
        },
        {
          "indexed": false,
          "internalType": "enum AnimalFarm.ProductType",
          "name": "productType",
          "type": "uint8"
        },
        {
          "indexed": false,
          "internalType": "uint256",
          "name": "quantity",
          "type": "uint256"
        }
      ],
      "name": "ProductCollected",
      "type": "event"
    },
    {
      "inputs": [
        {
          "internalType": "enum AnimalFarm.AnimalType",
          "name": "",
          "type": "uint8"
        }
      ],
      "name": "animalData",
      "outputs": [
        {
          "internalType": "uint256",
          "name": "price",
          "type": "uint256"
        },
        {
          "internalType": "uint256",
          "name": "productionTime",
          "type": "uint256"
        },
        {
          "internalType": "enum AnimalFarm.ProductType",
          "name": "productType",
          "type": "uint8"
        },
        {
          "internalType": "string",
          "name": "name",
          "type": "string"
        }
      ],
      "stateMutability": "view",
      "type": "function"
    },
    {
      "inputs": [
        {
          "internalType": "address",
          "name": "",
          "type": "address"
        },
        {
          "internalType": "enum AnimalFarm.ProductType",
          "name": "",
          "type": "uint8"
        }
      ],
      "name": "animalProducts",
      "outputs": [
        {
          "internalType": "uint256",
          "name": "",
          "type": "uint256"
        }
      ],
      "stateMutability": "view",
      "type": "function"
    },
    {
      "inputs": [
        {
          "internalType": "uint256",
          "name": "",
          "type": "uint256"
        }
      ],
      "name": "animals",
      "outputs": [
        {
          "internalType": "enum AnimalFarm.AnimalType",
          "name": "animalType",
          "type": "uint8"
        },
        {
          "internalType": "uint256",
          "name": "purchaseTime",
          "type": "uint256"
        },
        {
          "internalType": "uint256",
          "name": "lastProductionTime",
          "type": "uint256"
        },
        {
          "internalType": "address",
          "name": "owner",
          "type": "address"
        },
        {
          "internalType": "bool",
          "name": "active",
          "type": "bool"
        }
      ],
      "stateMutability": "view",
      "type": "function"
    },
    {
      "inputs": [
        {
          "internalType": "enum AnimalFarm.AnimalType",
          "name": "animalType",
          "type": "uint8"
        }
      ],
      "name": "buyAnimal",
      "outputs": [],
      "stateMutability": "nonpayable",
      "type": "function"
    },
    {
      "inputs": [
        {
          "internalType": "uint256",
          "name": "animalId",
          "type": "uint256"
        }
      ],
      "name": "collectProduct",
      "outputs": [],
      "stateMutability": "nonpayable",
      "type": "function"
    },
    {
      "inputs": [],
      "name": "gameToken",
      "outputs": [
        {
          "internalType": "contract GameToken",
          "name": "",
          "type": "address"
        }
      ],
      "stateMutability": "view",
      "type": "function"
    },
    {
      "inputs": [
        {
          "internalType": "address",
          "name": "player",
          "type": "address"
        },
        {
          "internalType": "enum AnimalFarm.ProductType",
          "name": "productType",
          "type": "uint8"
        }
      ],
      "name": "getAnimalProducts",
      "outputs": [
        {
          "internalType": "uint256",
          "name": "",
          "type": "uint256"
        }
      ],
      "stateMutability": "view",
      "type": "function"
    },
    {
      "inputs": [
        {
          "internalType": "uint256",
          "name": "animalId",
          "type": "uint256"
        }
      ],
      "name": "getAnimalStatus",
      "outputs": [
        {
          "internalType": "bool",
          "name": "canProduce",
          "type": "bool"
        },
        {
          "internalType": "uint256",
          "name": "timeUntilReady",
          "type": "uint256"
        },
        {
          "internalType": "uint256",
          "name": "productsReady",
          "type": "uint256"
        }
      ],
      "stateMutability": "view",
      "type": "function"
    },
    {
      "inputs": [
        {
          "internalType": "address",
          "name": "player",
          "type": "address"
        }
      ],
      "name": "getPlayerAnimals",
      "outputs": [
        {
          "internalType": "uint256[]",
          "name": "",
          "type": "uint256[]"
        }
      ],
      "stateMutability": "view",
      "type": "function"
    },
    {
      "inputs": [],
      "name": "nextAnimalId",
      "outputs": [
        {
          "internalType": "uint256",
          "name": "",
          "type": "uint256"
        }
      ],
      "stateMutability": "view",
      "type": "function"
    },
    {
      "inputs": [],
      "name": "owner",
      "outputs": [
        {
          "internalType": "address",
          "name": "",
          "type": "address"
        }
      ],
      "stateMutability": "view",
      "type": "function"
    },
    {
      "inputs": [
        {
          "internalType": "address",
          "name": "",
          "type": "address"
        },
        {
          "internalType": "uint256",
          "name": "",
          "type": "uint256"
        }
      ],
      "name": "playerAnimals",
      "outputs": [
        {
          "internalType": "uint256",
          "name": "",
          "type": "uint256"
        }
      ],
      "stateMutability": "view",
      "type": "function"
    },
    {
      "inputs": [],
      "name": "renounceOwnership",
      "outputs": [],
      "stateMutability": "nonpayable",
      "type": "function"
    },
    {
      "inputs": [
        {
          "internalType": "address",
          "name": "newOwner",
          "type": "address"
        }
      ],
      "name": "transferOwnership",
      "outputs": [],
      "stateMutability": "nonpayable",
      "type": "function"
    },
    {
      "inputs": [
        {
          "internalType": "address",
          "name": "player",
          "type": "address"
        },
        {
          "internalType": "enum AnimalFarm.ProductType",
          "name": "productType",
          "type": "uint8"
        },
        {
          "internalType": "uint256",
          "name": "quantity",
          "type": "uint256"
        }
      ],
      "name": "useProducts",
      "outputs": [],
      "stateMutability": "nonpayable",
      "type": "function"
    }
  ],
  "bytecode": "0x608060405234801561000f575f5ffd5b506040516124bb3803806124bb83398181016040528101906100319190610419565b335f73ffffffffffffffffffffffffffffffffffffffff168173ffffffffffffffffffffffffffffffffffffffff16036100a2575f6040517f1e4fbdf70000000000000000000000000000000000000000000000000000000081526004016100999190610453565b60405180910390fd5b6100b1816102fa60201b60201c565b508060015f6101000a81548173ffffffffffffffffffffffffffffffffffffffff021916908373ffffffffffffffffffffffffffffffffffffffff160217905550604051806080016040528068056bc75e2d631000008152602001601e81526020015f60018111156101265761012561046c565b5b81526020016040518060400160405280600381526020017f436f77000000000000000000000000000000000000000000000000000000000081525081525060055f5f600181111561017a5761017961046c565b5b600181111561018c5761018b61046c565b5b81526020019081526020015f205f820151815f0155602082015181600101556040820151816002015f6101000a81548160ff021916908360018111156101d5576101d461046c565b5b021790555060608201518160030190816101ef91906106d6565b5090505060405180608001604052806802b5e3af16b18800008152602001601481526020016001808111156102275761022661046c565b5b81526020016040518060400160405280600781526020017f436869636b656e0000000000000000000000000000000000000000000000000081525081525060055f60018081111561027b5761027a61046c565b5b600181111561028d5761028c61046c565b5b81526020019081526020015f205f820151815f0155602082015181600101556040820151816002015f6101000a81548160ff021916908360018111156102d6576102d561046c565b5b021790555060608201518160030190816102f091906106d6565b50905050506107a5565b5f5f5f9054906101000a900473ffffffffffffffffffffffffffffffffffffffff169050815f5f6101000a81548173ffffffffffffffffffffffffffffffffffffffff021916908373ffffffffffffffffffffffffffffffffffffffff1602179055508173ffffffffffffffffffffffffffffffffffffffff168173ffffffffffffffffffffffffffffffffffffffff167f8be0079c531659141344cd1fd0a4f28419497f9722a3daafe3b4186f6b6457e060405160405180910390a35050565b5f5ffd5b5f73ffffffffffffffffffffffffffffffffffffffff82169050919050565b5f6103e8826103bf565b9050919050565b6103f8816103de565b8114610402575f5ffd5b50565b5f81519050610413816103ef565b92915050565b5f6020828403121561042e5761042d6103bb565b5b5f61043b84828501610405565b91505092915050565b61044d816103de565b82525050565b5f6020820190506104665f830184610444565b92915050565b7f4e487b71000000000000000000000000000000000000000000000000000000005f52602160045260245ffd5b5f81519050919050565b7f4e487b71000000000000000000000000000000000000000000000000000000005f52604160045260245ffd5b7f4e487b71000000000000000000000000000000000000000000000000000000005f52602260045260245ffd5b5f600282049050600182168061051457607f821691505b602082108103610527576105266104d0565b5b50919050565b5f819050815f5260205f209050919050565b5f6020601f8301049050919050565b5f82821b905092915050565b5f600883026105897fffffffffffffffffffffffffffffffffffffffffffffffffffffffffffffffff8261054e565b610593868361054e565b95508019841693508086168417925050509392505050565b5f819050919050565b5f819050919050565b5f6105d76105d26105cd846105ab565b6105b4565b6105ab565b9050919050565b5f819050919050565b6105f0836105bd565b6106046105fc826105de565b84845461055a565b825550505050565b5f5f905090565b61061b61060c565b6106268184846105e7565b505050565b5b818110156106495761063e5f82610613565b60018101905061062c565b5050565b601f82111561068e5761065f8161052d565b6106688461053f565b81016020851015610677578190505b61068b6106838561053f565b83018261062b565b50505b505050565b5f82821c905092915050565b5f6106ae5f1984600802610693565b1980831691505092915050565b5f6106c6838361069f565b9150826002028217905092915050565b6106df82610499565b67ffffffffffffffff8111156106f8576106f76104a3565b5b61070282546104fd565b61070d82828561064d565b5f60209050601f83116001811461073e575f841561072c578287015190505b61073685826106bb565b86555061079d565b601f19841661074c8661052d565b5f5b828110156107735784890151825560018201915060208501945060208101905061074e565b86831015610790578489015161078c601f89168261069f565b8355505b6001600288020188555050505b505050505050565b611d09806107b25f395ff3fe608060405234801561000f575f5ffd5b50600436106100f3575f3560e01c80638da5cb5b11610095578063c10ed28911610064578063c10ed2891461029e578063c3dfdae6146102ce578063dda17754146102ec578063f2fde38b14610308576100f3565b80638da5cb5b146101ec578063998dd3ca1461020a578063ba622ddc1461023e578063bf33150f1461026e576100f3565b806351117e92116100d157806351117e9214610178578063715018a6146101a85780638779f3a3146101b25780638c26c754146101d0576100f3565b80632f7018a6146100f7578063468dbf9814610129578063472e7e6114610145575b5f5ffd5b610111600480360381019061010c91906112b4565b610324565b60405161012093929190611308565b60405180910390f35b610143600480360381019061013e91906112b4565b610585565b005b61015f600480360381019061015a9190611360565b610907565b60405161016f949392919061146e565b60405180910390f35b610192600480360381019061018d9190611535565b6109c5565b60405161019f9190611573565b60405180910390f35b6101b06109e5565b005b6101ba6109f8565b6040516101c79190611573565b60405180910390f35b6101ea60048036038101906101e5919061158c565b6109fe565b005b6101f4610b3c565b60405161020191906115eb565b60405180910390f35b610224600480360381019061021f91906112b4565b610b63565b60405161023595949392919061164a565b60405180910390f35b6102586004803603810190610253919061169b565b610bcd565b604051610265919061177d565b60405180910390f35b6102886004803603810190610283919061179d565b610c60565b6040516102959190611573565b60405180910390f35b6102b860048036038101906102b39190611535565b610c8b565b6040516102c59190611573565b60405180910390f35b6102d6610d05565b6040516102e39190611836565b60405180910390f35b61030660048036038101906103019190611360565b610d2a565b005b610322600480360381019061031d919061169b565b6110aa565b005b5f5f5f5f60025f8681526020019081526020015f206040518060a00160405290815f82015f9054906101000a900460ff1660018111156103675761036661138b565b5b60018111156103795761037861138b565b5b81526020016001820154815260200160028201548152602001600382015f9054906101000a900473ffffffffffffffffffffffffffffffffffffffff1673ffffffffffffffffffffffffffffffffffffffff1673ffffffffffffffffffffffffffffffffffffffff1681526020016003820160149054906101000a900460ff16151515158152505090505f60055f835f0151600181111561041d5761041c61138b565b5b600181111561042f5761042e61138b565b5b81526020019081526020015f206040518060800160405290815f820154815260200160018201548152602001600282015f9054906101000a900460ff16600181111561047e5761047d61138b565b5b60018111156104905761048f61138b565b5b81526020016003820180546104a49061187c565b80601f01602080910402602001604051908101604052809291908181526020018280546104d09061187c565b801561051b5780601f106104f25761010080835404028352916020019161051b565b820191905f5260205f20905b8154815290600101906020018083116104fe57829003601f168201915b50505050508152505090505f82604001514261053791906118d9565b90508160200151811061056257600195505f945081602001518161055b9190611939565b935061057b565b5f955080826020015161057591906118d9565b94505f93505b5050509193909250565b5f60025f8381526020019081526020015f2090503373ffffffffffffffffffffffffffffffffffffffff16816003015f9054906101000a900473ffffffffffffffffffffffffffffffffffffffff1673ffffffffffffffffffffffffffffffffffffffff161461062a576040517f08c379a0000000000000000000000000000000000000000000000000000000008152600401610621906119b3565b60405180910390fd5b8060030160149054906101000a900460ff1661067b576040517f08c379a000000000000000000000000000000000000000000000000000000000815260040161067290611a1b565b60405180910390fd5b5f60055f835f015f9054906101000a900460ff1660018111156106a1576106a061138b565b5b60018111156106b3576106b261138b565b5b81526020019081526020015f206040518060800160405290815f820154815260200160018201548152602001600282015f9054906101000a900460ff1660018111156107025761070161138b565b5b60018111156107145761071361138b565b5b81526020016003820180546107289061187c565b80601f01602080910402602001604051908101604052809291908181526020018280546107549061187c565b801561079f5780601f106107765761010080835404028352916020019161079f565b820191905f5260205f20905b81548152906001019060200180831161078257829003601f168201915b50505050508152505090505f8260020154426107bb91906118d9565b90508160200151811015610804576040517f08c379a00000000000000000000000000000000000000000000000000000000081526004016107fb90611a83565b60405180910390fd5b5f8260200151826108159190611939565b90504284600201819055508060045f3373ffffffffffffffffffffffffffffffffffffffff1673ffffffffffffffffffffffffffffffffffffffff1681526020019081526020015f205f856040015160018111156108765761087561138b565b5b60018111156108885761088761138b565b5b81526020019081526020015f205f8282546108a39190611aa1565b925050819055503373ffffffffffffffffffffffffffffffffffffffff167f8b883bc3ce9be66e805979832dddf48e209018c07ec476fc0fbf5764e5b0f908868560400151846040516108f893929190611ad4565b60405180910390a25050505050565b6005602052805f5260405f205f91509050805f015490806001015490806002015f9054906101000a900460ff16908060030180546109449061187c565b80601f01602080910402602001604051908101604052809291908181526020018280546109709061187c565b80156109bb5780601f10610992576101008083540402835291602001916109bb565b820191905f5260205f20905b81548152906001019060200180831161099e57829003601f168201915b5050505050905084565b6004602052815f5260405f20602052805f5260405f205f91509150505481565b6109ed61112e565b6109f65f6111b5565b565b60065481565b8060045f8573ffffffffffffffffffffffffffffffffffffffff1673ffffffffffffffffffffffffffffffffffffffff1681526020019081526020015f205f846001811115610a5057610a4f61138b565b5b6001811115610a6257610a6161138b565b5b81526020019081526020015f20541015610ab1576040517f08c379a0000000000000000000000000000000000000000000000000000000008152600401610aa890611b79565b60405180910390fd5b8060045f8573ffffffffffffffffffffffffffffffffffffffff1673ffffffffffffffffffffffffffffffffffffffff1681526020019081526020015f205f846001811115610b0357610b0261138b565b5b6001811115610b1557610b1461138b565b5b81526020019081526020015f205f828254610b3091906118d9565b92505081905550505050565b5f5f5f9054906101000a900473ffffffffffffffffffffffffffffffffffffffff16905090565b6002602052805f5260405f205f91509050805f015f9054906101000a900460ff1690806001015490806002015490806003015f9054906101000a900473ffffffffffffffffffffffffffffffffffffffff16908060030160149054906101000a900460ff16905085565b606060035f8373ffffffffffffffffffffffffffffffffffffffff1673ffffffffffffffffffffffffffffffffffffffff1681526020019081526020015f20805480602002602001604051908101604052809291908181526020018280548015610c5457602002820191905f5260205f20905b815481526020019060010190808311610c40575b50505050509050919050565b6003602052815f5260405f208181548110610c79575f80fd5b905f5260205f20015f91509150505481565b5f60045f8473ffffffffffffffffffffffffffffffffffffffff1673ffffffffffffffffffffffffffffffffffffffff1681526020019081526020015f205f836001811115610cdd57610cdc61138b565b5b6001811115610cef57610cee61138b565b5b81526020019081526020015f2054905092915050565b60015f9054906101000a900473ffffffffffffffffffffffffffffffffffffffff1681565b5f60055f836001811115610d4157610d4061138b565b5b6001811115610d5357610d5261138b565b5b81526020019081526020015f205f015490508060015f9054906101000a900473ffffffffffffffffffffffffffffffffffffffff1673ffffffffffffffffffffffffffffffffffffffff166370a08231336040518263ffffffff1660e01b8152600401610dc091906115eb565b602060405180830381865afa158015610ddb573d5f5f3e3d5ffd5b505050506040513d601f19601f82011682018060405250810190610dff9190611bab565b1015610e40576040517f08c379a0000000000000000000000000000000000000000000000000000000008152600401610e3790611c20565b60405180910390fd5b60015f9054906101000a900473ffffffffffffffffffffffffffffffffffffffff1673ffffffffffffffffffffffffffffffffffffffff16639dc29fac33836040518363ffffffff1660e01b8152600401610e9c929190611c3e565b5f604051808303815f87803b158015610eb3575f5ffd5b505af1158015610ec5573d5f5f3e3d5ffd5b505050505f60065f815480929190610edc90611c65565b9190505590505f4290506040518060a00160405280856001811115610f0457610f0361138b565b5b81526020018281526020018281526020013373ffffffffffffffffffffffffffffffffffffffff1681526020016001151581525060025f8481526020019081526020015f205f820151815f015f6101000a81548160ff02191690836001811115610f7157610f7061138b565b5b021790555060208201518160010155604082015181600201556060820151816003015f6101000a81548173ffffffffffffffffffffffffffffffffffffffff021916908373ffffffffffffffffffffffffffffffffffffffff16021790555060808201518160030160146101000a81548160ff02191690831515021790555090505060035f3373ffffffffffffffffffffffffffffffffffffffff1673ffffffffffffffffffffffffffffffffffffffff1681526020019081526020015f2082908060018154018082558091505060019003905f5260205f20015f90919091909150553373ffffffffffffffffffffffffffffffffffffffff167f0481c7f88c0a1d3a4a376901b3ceb54b021467245bb442a494daee992b72d549838660405161109c929190611cac565b60405180910390a250505050565b6110b261112e565b5f73ffffffffffffffffffffffffffffffffffffffff168173ffffffffffffffffffffffffffffffffffffffff1603611122575f6040517f1e4fbdf700000000000000000000000000000000000000000000000000000000815260040161111991906115eb565b60405180910390fd5b61112b816111b5565b50565b611136611276565b73ffffffffffffffffffffffffffffffffffffffff16611154610b3c565b73ffffffffffffffffffffffffffffffffffffffff16146111b357611177611276565b6040517f118cdaa70000000000000000000000000000000000000000000000000000000081526004016111aa91906115eb565b60405180910390fd5b565b5f5f5f9054906101000a900473ffffffffffffffffffffffffffffffffffffffff169050815f5f6101000a81548173ffffffffffffffffffffffffffffffffffffffff021916908373ffffffffffffffffffffffffffffffffffffffff1602179055508173ffffffffffffffffffffffffffffffffffffffff168173ffffffffffffffffffffffffffffffffffffffff167f8be0079c531659141344cd1fd0a4f28419497f9722a3daafe3b4186f6b6457e060405160405180910390a35050565b5f33905090565b5f5ffd5b5f819050919050565b61129381611281565b811461129d575f5ffd5b50565b5f813590506112ae8161128a565b92915050565b5f602082840312156112c9576112c861127d565b5b5f6112d6848285016112a0565b91505092915050565b5f8115159050919050565b6112f3816112df565b82525050565b61130281611281565b82525050565b5f60608201905061131b5f8301866112ea565b61132860208301856112f9565b61133560408301846112f9565b949350505050565b60028110611349575f5ffd5b50565b5f8135905061135a8161133d565b92915050565b5f602082840312156113755761137461127d565b5b5f6113828482850161134c565b91505092915050565b7f4e487b71000000000000000000000000000000000000000000000000000000005f52602160045260245ffd5b600281106113c9576113c861138b565b5b50565b5f8190506113d9826113b8565b919050565b5f6113e8826113cc565b9050919050565b6113f8816113de565b82525050565b5f81519050919050565b5f82825260208201905092915050565b8281835e5f83830152505050565b5f601f19601f8301169050919050565b5f611440826113fe565b61144a8185611408565b935061145a818560208601611418565b61146381611426565b840191505092915050565b5f6080820190506114815f8301876112f9565b61148e60208301866112f9565b61149b60408301856113ef565b81810360608301526114ad8184611436565b905095945050505050565b5f73ffffffffffffffffffffffffffffffffffffffff82169050919050565b5f6114e1826114b8565b9050919050565b6114f1816114d7565b81146114fb575f5ffd5b50565b5f8135905061150c816114e8565b92915050565b6002811061151e575f5ffd5b50565b5f8135905061152f81611512565b92915050565b5f5f6040838503121561154b5761154a61127d565b5b5f611558858286016114fe565b925050602061156985828601611521565b9150509250929050565b5f6020820190506115865f8301846112f9565b92915050565b5f5f5f606084860312156115a3576115a261127d565b5b5f6115b0868287016114fe565b93505060206115c186828701611521565b92505060406115d2868287016112a0565b9150509250925092565b6115e5816114d7565b82525050565b5f6020820190506115fe5f8301846115dc565b92915050565b600281106116155761161461138b565b5b50565b5f81905061162582611604565b919050565b5f61163482611618565b9050919050565b6116448161162a565b82525050565b5f60a08201905061165d5f83018861163b565b61166a60208301876112f9565b61167760408301866112f9565b61168460608301856115dc565b61169160808301846112ea565b9695505050505050565b5f602082840312156116b0576116af61127d565b5b5f6116bd848285016114fe565b91505092915050565b5f81519050919050565b5f82825260208201905092915050565b5f819050602082019050919050565b6116f881611281565b82525050565b5f61170983836116ef565b60208301905092915050565b5f602082019050919050565b5f61172b826116c6565b61173581856116d0565b9350611740836116e0565b805f5b8381101561177057815161175788826116fe565b975061176283611715565b925050600181019050611743565b5085935050505092915050565b5f6020820190508181035f8301526117958184611721565b905092915050565b5f5f604083850312156117b3576117b261127d565b5b5f6117c0858286016114fe565b92505060206117d1858286016112a0565b9150509250929050565b5f819050919050565b5f6117fe6117f96117f4846114b8565b6117db565b6114b8565b9050919050565b5f61180f826117e4565b9050919050565b5f61182082611805565b9050919050565b61183081611816565b82525050565b5f6020820190506118495f830184611827565b92915050565b7f4e487b71000000000000000000000000000000000000000000000000000000005f52602260045260245ffd5b5f600282049050600182168061189357607f821691505b6020821081036118a6576118a561184f565b5b50919050565b7f4e487b71000000000000000000000000000000000000000000000000000000005f52601160045260245ffd5b5f6118e382611281565b91506118ee83611281565b9250828203905081811115611906576119056118ac565b5b92915050565b7f4e487b71000000000000000000000000000000000000000000000000000000005f52601260045260245ffd5b5f61194382611281565b915061194e83611281565b92508261195e5761195d61190c565b5b828204905092915050565b7f416e696d616c4661726d3a206e6f7420616e696d616c206f776e6572000000005f82015250565b5f61199d601c83611408565b91506119a882611969565b602082019050919050565b5f6020820190508181035f8301526119ca81611991565b9050919050565b7f416e696d616c4661726d3a20616e696d616c206e6f74206163746976650000005f82015250565b5f611a05601d83611408565b9150611a10826119d1565b602082019050919050565b5f6020820190508181035f830152611a32816119f9565b9050919050565b7f416e696d616c4661726d3a2070726f64756374206e6f742072656164790000005f82015250565b5f611a6d601d83611408565b9150611a7882611a39565b602082019050919050565b5f6020820190508181035f830152611a9a81611a61565b9050919050565b5f611aab82611281565b9150611ab683611281565b9250828201905080821115611ace57611acd6118ac565b5b92915050565b5f606082019050611ae75f8301866112f9565b611af460208301856113ef565b611b0160408301846112f9565b949350505050565b7f416e696d616c4661726d3a20696e73756666696369656e742070726f647563745f8201527f7300000000000000000000000000000000000000000000000000000000000000602082015250565b5f611b63602183611408565b9150611b6e82611b09565b604082019050919050565b5f6020820190508181035f830152611b9081611b57565b9050919050565b5f81519050611ba58161128a565b92915050565b5f60208284031215611bc057611bbf61127d565b5b5f611bcd84828501611b97565b91505092915050565b7f416e696d616c4661726d3a20696e73756666696369656e742066756e647300005f82015250565b5f611c0a601e83611408565b9150611c1582611bd6565b602082019050919050565b5f6020820190508181035f830152611c3781611bfe565b9050919050565b5f604082019050611c515f8301856115dc565b611c5e60208301846112f9565b9392505050565b5f611c6f82611281565b91507fffffffffffffffffffffffffffffffffffffffffffffffffffffffffffffffff8203611ca157611ca06118ac565b5b600182019050919050565b5f604082019050611cbf5f8301856112f9565b611ccc602083018461163b565b939250505056fea2646970667358221220526b8b57209c30a453725dfe4c283b19c78ca51d2e5c2899da562e0373dd927664736f6c634300081c0033",
  "linkReferences": {},
  "deployedLinkReferences": {},
  "immutableReferences": {},
  "inputSourceName": "project/contracts/AnimalFarm.sol",
  "buildInfoId": "solc-0_8_28-9e519283eaa7f8ed576ba4af67ab5ea0d5adfd62"
}