{
  "_format": "hh3-artifact-1",
  "contractName": "FarmLand",
  "sourceName": "contracts/FarmLand.sol",
  "abi": [
    {
      "inputs": [
        {
          "internalType": "address",
          "name": "_gameToken",
          "type": "address"
        }
      ],
      "stateMutability": "nonpayable",
      "type": "constructor"
    },
    {
      "inputs": [
        {
          "internalType": "address",
          "name": "owner",
          "type": "address"
        }
      ],
      "name": "OwnableInvalidOwner",
      "type": "error"
    },
    {
      "inputs": [
        {
          "internalType": "address",
          "name": "account",
          "type": "address"
        }
      ],
      "name": "OwnableUnauthorizedAccount",
      "type": "error"
    },
    {
      "anonymous": false,
      "inputs": [
        {
          "indexed": true,
          "internalType": "address",
          "name": "player",
          "type": "address"
        },
        {
          "indexed": false,
          "internalType": "uint256",
          "name": "plotId",
          "type": "uint256"
        },
        {
          "indexed": false,
          "internalType": "enum FarmLand.CropType",
          "name": "cropType",
          "type": "uint8"
        }
      ],
      "name": "CropHarvested",
      "type": "event"
    },
    {
      "anonymous": false,
      "inputs": [
        {
          "indexed": true,
          "internalType": "address",
          "name": "player",
          "type": "address"
        },
        {
          "indexed": false,
          "internalType": "enum FarmLand.CropType",
          "name": "cropType",
          "type": "uint8"
        },
        {
          "indexed": false,
          "internalType": "uint256",
          "name": "cropsUsed",
          "type": "uint256"
        },
        {
          "indexed": false,
          "internalType": "uint256",
          "name": "seedsGained",
          "type": "uint256"
        }
      ],
      "name": "CropsConverted",
      "type": "event"
    },
    {
      "anonymous": false,
      "inputs": [
        {
          "indexed": true,
          "internalType": "address",
          "name": "player",
          "type": "address"
        },
        {
          "indexed": false,
          "internalType": "enum FarmLand.CropType",
          "name": "cropType",
          "type": "uint8"
        },
        {
          "indexed": false,
          "internalType": "uint256",
          "name": "quantity",
          "type": "uint256"
        },
        {
          "indexed": false,
          "internalType": "uint256",
          "name": "earnings",
          "type": "uint256"
        }
      ],
      "name": "CropsSold",
      "type": "event"
    },
    {
      "anonymous": false,
      "inputs": [
        {
          "indexed": true,
          "internalType": "address",
          "name": "player",
          "type": "address"
        },
        {
          "indexed": false,
          "internalType": "uint256",
          "name": "newPlotId",
          "type": "uint256"
        }
      ],
      "name": "FarmExpanded",
      "type": "event"
    },
    {
      "anonymous": false,
      "inputs": [
        {
          "indexed": true,
          "internalType": "address",
          "name": "previousOwner",
          "type": "address"
        },
        {
          "indexed": true,
          "internalType": "address",
          "name": "newOwner",
          "type": "address"
        }
      ],
      "name": "OwnershipTransferred",
      "type": "event"
    },
    {
      "anonymous": false,
      "inputs": [
        {
          "indexed": true,
          "internalType": "address",
          "name": "player",
          "type": "address"
        },
        {
          "indexed": false,
          "internalType": "uint256",
          "name": "plotId",
          "type": "uint256"
        }
      ],
      "name": "PlotCreated",
      "type": "event"
    },
    {
      "anonymous": false,
      "inputs": [
        {
          "indexed": true,
          "internalType": "address",
          "name": "player",
          "type": "address"
        },
        {
          "indexed": false,
          "internalType": "uint256",
          "name": "plotId",
          "type": "uint256"
        },
        {
          "indexed": false,
          "internalType": "enum FarmLand.CropType",
          "name": "cropType",
          "type": "uint8"
        }
      ],
      "name": "SeedPlanted",
      "type": "event"
    },
    {
      "anonymous": false,
      "inputs": [
        {
          "indexed": true,
          "internalType": "address",
          "name": "player",
          "type": "address"
        },
        {
          "indexed": false,
          "internalType": "enum FarmLand.CropType",
          "name": "cropType",
          "type": "uint8"
        },
        {
          "indexed": false,
          "internalType": "uint256",
          "name": "quantity",
          "type": "uint256"
        },
        {
          "indexed": false,
          "internalType": "uint256",
          "name": "cost",
          "type": "uint256"
        }
      ],
      "name": "SeedsPurchased",
      "type": "event"
    },
    {
      "inputs": [],
      "name": "EXPANSION_COST",
      "outputs": [
        {
          "internalType": "uint256",
          "name": "",
          "type": "uint256"
        }
      ],
      "stateMutability": "view",
      "type": "function"
    },
    {
      "inputs": [],
      "name": "INITIAL_PLOTS",
      "outputs": [
        {
          "internalType": "uint256",
          "name": "",
          "type": "uint256"
        }
      ],
      "stateMutability": "view",
      "type": "function"
    },
    {
      "inputs": [],
      "name": "INITIAL_WHEAT_SEEDS",
      "outputs": [
        {
          "internalType": "uint256",
          "name": "",
          "type": "uint256"
        }
      ],
      "stateMutability": "view",
      "type": "function"
    },
    {
      "inputs": [
        {
          "internalType": "enum FarmLand.CropType",
          "name": "cropType",
          "type": "uint8"
        },
        {
          "internalType": "uint256",
          "name": "quantity",
          "type": "uint256"
        }
      ],
      "name": "buySeeds",
      "outputs": [],
      "stateMutability": "nonpayable",
      "type": "function"
    },
    {
      "inputs": [
        {
          "internalType": "enum FarmLand.CropType",
          "name": "cropType",
          "type": "uint8"
        },
        {
          "internalType": "uint256",
          "name": "quantity",
          "type": "uint256"
        }
      ],
      "name": "convertCropsToSeeds",
      "outputs": [],
      "stateMutability": "nonpayable",
      "type": "function"
    },
    {
      "inputs": [
        {
          "internalType": "enum FarmLand.CropType",
          "name": "",
          "type": "uint8"
        }
      ],
      "name": "cropData",
      "outputs": [
        {
          "internalType": "uint256",
          "name": "growthTime",
          "type": "uint256"
        },
        {
          "internalType": "uint256",
          "name": "seedPrice",
          "type": "uint256"
        },
        {
          "internalType": "uint256",
          "name": "sellPrice",
          "type": "uint256"
        },
        {
          "internalType": "string",
          "name": "name",
          "type": "string"
        }
      ],
      "stateMutability": "view",
      "type": "function"
    },
    {
      "inputs": [],
      "name": "expandFarm",
      "outputs": [],
      "stateMutability": "nonpayable",
      "type": "function"
    },
    {
      "inputs": [],
      "name": "gameToken",
      "outputs": [
        {
          "internalType": "contract GameToken",
          "name": "",
          "type": "address"
        }
      ],
      "stateMutability": "view",
      "type": "function"
    },
    {
      "inputs": [
        {
          "internalType": "address",
          "name": "player",
          "type": "address"
        },
        {
          "internalType": "enum FarmLand.CropType",
          "name": "cropType",
          "type": "uint8"
        }
      ],
      "name": "getHarvestedCrops",
      "outputs": [
        {
          "internalType": "uint256",
          "name": "",
          "type": "uint256"
        }
      ],
      "stateMutability": "view",
      "type": "function"
    },
    {
      "inputs": [
        {
          "internalType": "address",
          "name": "player",
          "type": "address"
        }
      ],
      "name": "getPlayerPlots",
      "outputs": [
        {
          "internalType": "uint256[]",
          "name": "",
          "type": "uint256[]"
        }
      ],
      "stateMutability": "view",
      "type": "function"
    },
    {
      "inputs": [
        {
          "internalType": "uint256",
          "name": "plotId",
          "type": "uint256"
        }
      ],
      "name": "getPlotStatus",
      "outputs": [
        {
          "internalType": "enum FarmLand.PlotStatus",
          "name": "status",
          "type": "uint8"
        },
        {
          "internalType": "enum FarmLand.CropType",
          "name": "cropType",
          "type": "uint8"
        },
        {
          "internalType": "bool",
          "name": "isReady",
          "type": "bool"
        },
        {
          "internalType": "uint256",
          "name": "remainingTime",
          "type": "uint256"
        }
      ],
      "stateMutability": "view",
      "type": "function"
    },
    {
      "inputs": [
        {
          "internalType": "address",
          "name": "player",
          "type": "address"
        },
        {
          "internalType": "enum FarmLand.CropType",
          "name": "cropType",
          "type": "uint8"
        }
      ],
      "name": "getSeedInventory",
      "outputs": [
        {
          "internalType": "uint256",
          "name": "",
          "type": "uint256"
        }
      ],
      "stateMutability": "view",
      "type": "function"
    },
    {
      "inputs": [
        {
          "internalType": "uint256",
          "name": "plotId",
          "type": "uint256"
        }
      ],
      "name": "harvestCrop",
      "outputs": [],
      "stateMutability": "nonpayable",
      "type": "function"
    },
    {
      "inputs": [
        {
          "internalType": "address",
          "name": "",
          "type": "address"
        },
        {
          "internalType": "enum FarmLand.CropType",
          "name": "",
          "type": "uint8"
        }
      ],
      "name": "harvestedCrops",
      "outputs": [
        {
          "internalType": "uint256",
          "name": "",
          "type": "uint256"
        }
      ],
      "stateMutability": "view",
      "type": "function"
    },
    {
      "inputs": [
        {
          "internalType": "address",
          "name": "player",
          "type": "address"
        }
      ],
      "name": "initializePlayer",
      "outputs": [],
      "stateMutability": "nonpayable",
      "type": "function"
    },
    {
      "inputs": [],
      "name": "nextPlotId",
      "outputs": [
        {
          "internalType": "uint256",
          "name": "",
          "type": "uint256"
        }
      ],
      "stateMutability": "view",
      "type": "function"
    },
    {
      "inputs": [],
      "name": "owner",
      "outputs": [
        {
          "internalType": "address",
          "name": "",
          "type": "address"
        }
      ],
      "stateMutability": "view",
      "type": "function"
    },
    {
      "inputs": [
        {
          "internalType": "uint256",
          "name": "plotId",
          "type": "uint256"
        },
        {
          "internalType": "enum FarmLand.CropType",
          "name": "cropType",
          "type": "uint8"
        }
      ],
      "name": "plantSeed",
      "outputs": [],
      "stateMutability": "nonpayable",
      "type": "function"
    },
    {
      "inputs": [
        {
          "internalType": "address",
          "name": "",
          "type": "address"
        },
        {
          "internalType": "uint256",
          "name": "",
          "type": "uint256"
        }
      ],
      "name": "playerPlots",
      "outputs": [
        {
          "internalType": "uint256",
          "name": "",
          "type": "uint256"
        }
      ],
      "stateMutability": "view",
      "type": "function"
    },
    {
      "inputs": [
        {
          "internalType": "uint256",
          "name": "",
          "type": "uint256"
        }
      ],
      "name": "plots",
      "outputs": [
        {
          "internalType": "enum FarmLand.PlotStatus",
          "name": "status",
          "type": "uint8"
        },
        {
          "internalType": "enum FarmLand.CropType",
          "name": "cropType",
          "type": "uint8"
        },
        {
          "internalType": "uint256",
          "name": "sowTime",
          "type": "uint256"
        },
        {
          "internalType": "uint256",
          "name": "growthDuration",
          "type": "uint256"
        },
        {
          "internalType": "address",
          "name": "owner",
          "type": "address"
        }
      ],
      "stateMutability": "view",
      "type": "function"
    },
    {
      "inputs": [],
      "name": "renounceOwnership",
      "outputs": [],
      "stateMutability": "nonpayable",
      "type": "function"
    },
    {
      "inputs": [
        {
          "internalType": "address",
          "name": "",
          "type": "address"
        },
        {
          "internalType": "enum FarmLand.CropType",
          "name": "",
          "type": "uint8"
        }
      ],
      "name": "seedInventory",
      "outputs": [
        {
          "internalType": "uint256",
          "name": "",
          "type": "uint256"
        }
      ],
      "stateMutability": "view",
      "type": "function"
    },
    {
      "inputs": [
        {
          "internalType": "enum FarmLand.CropType",
          "name": "cropType",
          "type": "uint8"
        },
        {
          "internalType": "uint256",
          "name": "quantity",
          "type": "uint256"
        }
      ],
      "name": "sellCrops",
      "outputs": [],
      "stateMutability": "nonpayable",
      "type": "function"
    },
    {
      "inputs": [
        {
          "internalType": "address",
          "name": "newOwner",
          "type": "address"
        }
      ],
      "name": "transferOwnership",
      "outputs": [],
      "stateMutability": "nonpayable",
      "type": "function"
    }
  ],
  "bytecode": "0x608060405234801561000f575f5ffd5b506040516134f33803806134f38339818101604052810190610031919061055d565b335f73ffffffffffffffffffffffffffffffffffffffff168173ffffffffffffffffffffffffffffffffffffffff16036100a2575f6040517f1e4fbdf70000000000000000000000000000000000000000000000000000000081526004016100999190610597565b60405180910390fd5b6100b18161043e60201b60201c565b508060015f6101000a81548173ffffffffffffffffffffffffffffffffffffffff021916908373ffffffffffffffffffffffffffffffffffffffff1602179055506040518060800160405280600a8152602001674563918244f400008152602001673782dace9d90000081526020016040518060400160405280600581526020017f576865617400000000000000000000000000000000000000000000000000000081525081525060065f5f600381111561016f5761016e6105b0565b5b6003811115610181576101806105b0565b5b81526020019081526020015f205f820151815f0155602082015181600101556040820151816002015560608201518160030190816101bf919061081a565b509050506040518060800160405280600f8152602001676f05b59d3b20000081526020016753444835ec58000081526020016040518060400160405280600681526020017f546f6d61746f000000000000000000000000000000000000000000000000000081525081525060065f60016003811115610241576102406105b0565b5b6003811115610253576102526105b0565b5b81526020019081526020015f205f820151815f015560208201518160010155604082015181600201556060820151816003019081610291919061081a565b509050506040518060800160405280600c8152602001678ac7230489e800008152602001676f05b59d3b20000081526020016040518060400160405280600a81526020017f537472617762657272790000000000000000000000000000000000000000000081525081525060065f60026003811115610313576103126105b0565b5b6003811115610325576103246105b0565b5b81526020019081526020015f205f820151815f015560208201518160010155604082015181600201556060820151816003019081610363919061081a565b509050506040518060800160405280600881526020016753444835ec5800008152602001674563918244f4000081526020016040518060400160405280600681526020017f436172726f74000000000000000000000000000000000000000000000000000081525081525060065f6003808111156103e4576103e36105b0565b5b60038111156103f6576103f56105b0565b5b81526020019081526020015f205f820151815f015560208201518160010155604082015181600201556060820151816003019081610434919061081a565b50905050506108e9565b5f5f5f9054906101000a900473ffffffffffffffffffffffffffffffffffffffff169050815f5f6101000a81548173ffffffffffffffffffffffffffffffffffffffff021916908373ffffffffffffffffffffffffffffffffffffffff1602179055508173ffffffffffffffffffffffffffffffffffffffff168173ffffffffffffffffffffffffffffffffffffffff167f8be0079c531659141344cd1fd0a4f28419497f9722a3daafe3b4186f6b6457e060405160405180910390a35050565b5f5ffd5b5f73ffffffffffffffffffffffffffffffffffffffff82169050919050565b5f61052c82610503565b9050919050565b61053c81610522565b8114610546575f5ffd5b50565b5f8151905061055781610533565b92915050565b5f60208284031215610572576105716104ff565b5b5f61057f84828501610549565b91505092915050565b61059181610522565b82525050565b5f6020820190506105aa5f830184610588565b92915050565b7f4e487b71000000000000000000000000000000000000000000000000000000005f52602160045260245ffd5b5f81519050919050565b7f4e487b71000000000000000000000000000000000000000000000000000000005f52604160045260245ffd5b7f4e487b71000000000000000000000000000000000000000000000000000000005f52602260045260245ffd5b5f600282049050600182168061065857607f821691505b60208210810361066b5761066a610614565b5b50919050565b5f819050815f5260205f209050919050565b5f6020601f8301049050919050565b5f82821b905092915050565b5f600883026106cd7fffffffffffffffffffffffffffffffffffffffffffffffffffffffffffffffff82610692565b6106d78683610692565b95508019841693508086168417925050509392505050565b5f819050919050565b5f819050919050565b5f61071b610716610711846106ef565b6106f8565b6106ef565b9050919050565b5f819050919050565b61073483610701565b61074861074082610722565b84845461069e565b825550505050565b5f5f905090565b61075f610750565b61076a81848461072b565b505050565b5b8181101561078d576107825f82610757565b600181019050610770565b5050565b601f8211156107d2576107a381610671565b6107ac84610683565b810160208510156107bb578190505b6107cf6107c785610683565b83018261076f565b50505b505050565b5f82821c905092915050565b5f6107f25f19846008026107d7565b1980831691505092915050565b5f61080a83836107e3565b9150826002028217905092915050565b610823826105dd565b67ffffffffffffffff81111561083c5761083b6105e7565b5b6108468254610641565b610851828285610791565b5f60209050601f831160018114610882575f8415610870578287015190505b61087a85826107ff565b8655506108e1565b601f19841661089086610671565b5f5b828110156108b757848901518255600182019150602085019450602081019050610892565b868310156108d457848901516108d0601f8916826107e3565b8355505b6001600288020188555050505b505050505050565b612bfd806108f65f395ff3fe608060405234801561000f575f5ffd5b5060043610610156575f3560e01c8063715018a6116100c1578063c3dfdae61161007a578063c3dfdae6146103ca578063cf529c16146103e8578063ef6c73d014610406578063f2df9e9114610436578063f2fde38b14610466578063fff697ac1461048257610156565b8063715018a6146103075780637e2a21fb146103115780638da5cb5b1461034457806393d170f214610362578063942ed3221461037e578063c271845d146103ae57610156565b806342a097c31161011357806342a097c31461022f57806346e8e7071461025f5780635d0cc38f1461027d5780635ed52ccd1461029957806361bf49ee146102a357806369d99863146102d757610156565b8063114f68891461015a578063139652e41461018a5780631994f37d146101a657806332c5c37e146101d957806337a26a78146101f557806339feffc414610211575b5f5ffd5b610174600480360381019061016f9190612030565b6104a0565b6040516101819190612086565b60405180910390f35b6101a4600480360381019061019f919061209f565b61051a565b005b6101c060048036038101906101bb91906120f4565b610825565b6040516101d094939291906121f2565b60405180910390f35b6101f360048036038101906101ee9190612235565b6109a6565b005b61020f600480360381019061020a9190612273565b610ceb565b005b610219610f5a565b6040516102269190612086565b60405180910390f35b6102496004803603810190610244919061209f565b610f67565b6040516102569190612368565b60405180910390f35b610267610ffa565b6040516102749190612086565b60405180910390f35b610297600480360381019061029291906120f4565b610fff565b005b6102a161129a565b005b6102bd60048036038101906102b891906120f4565b611606565b6040516102ce959493929190612397565b60405180910390f35b6102f160048036038101906102ec91906123e8565b61166f565b6040516102fe9190612086565b60405180910390f35b61030f61169a565b005b61032b60048036038101906103269190612426565b6116ad565b60405161033b94939291906124c1565b60405180910390f35b61034c61175f565b604051610359919061250b565b60405180910390f35b61037c60048036038101906103779190612273565b611786565b005b61039860048036038101906103939190612030565b611a50565b6040516103a59190612086565b60405180910390f35b6103c860048036038101906103c39190612273565b611a70565b005b6103d2611d12565b6040516103df919061257f565b60405180910390f35b6103f0611d37565b6040516103fd9190612086565b60405180910390f35b610420600480360381019061041b9190612030565b611d3d565b60405161042d9190612086565b60405180910390f35b610450600480360381019061044b9190612030565b611db7565b60405161045d9190612086565b60405180910390f35b610480600480360381019061047b919061209f565b611dd7565b005b61048a611e5b565b6040516104979190612086565b60405180910390f35b5f60045f8473ffffffffffffffffffffffffffffffffffffffff1673ffffffffffffffffffffffffffffffffffffffff1681526020019081526020015f205f8360038111156104f2576104f161211f565b5b60038111156105045761050361211f565b5b81526020019081526020015f2054905092915050565b5f60025f8373ffffffffffffffffffffffffffffffffffffffff1673ffffffffffffffffffffffffffffffffffffffff1681526020019081526020015f20805490501461059c576040517f08c379a000000000000000000000000000000000000000000000000000000000815260040161059390612608565b60405180910390fd5b5f5f90505b60098110156107ab575f60075f8154809291906105bd90612653565b9190505590506040518060a001604052805f60028111156105e1576105e061211f565b5b81526020015f60038111156105f9576105f861211f565b5b81526020015f81526020015f81526020018473ffffffffffffffffffffffffffffffffffffffff1681525060035f8381526020019081526020015f205f820151815f015f6101000a81548160ff0219169083600281111561065d5761065c61211f565b5b02179055506020820151815f0160016101000a81548160ff0219169083600381111561068c5761068b61211f565b5b021790555060408201518160010155606082015181600201556080820151816003015f6101000a81548173ffffffffffffffffffffffffffffffffffffffff021916908373ffffffffffffffffffffffffffffffffffffffff16021790555090505060025f8473ffffffffffffffffffffffffffffffffffffffff1673ffffffffffffffffffffffffffffffffffffffff1681526020019081526020015f2081908060018154018082558091505060019003905f5260205f20015f90919091909150558273ffffffffffffffffffffffffffffffffffffffff167f2e7c33270ebb25fd2f3e54e72364015a87a96d6bc8172ef79e6234e9352e4910826040516107959190612086565b60405180910390a25080806001019150506105a1565b50600560045f8373ffffffffffffffffffffffffffffffffffffffff1673ffffffffffffffffffffffffffffffffffffffff1681526020019081526020015f205f5f60038111156107ff576107fe61211f565b5b60038111156108115761081061211f565b5b81526020019081526020015f208190555050565b5f5f5f5f5f60035f8781526020019081526020015f206040518060a00160405290815f82015f9054906101000a900460ff1660028111156108695761086861211f565b5b600281111561087b5761087a61211f565b5b81526020015f820160019054906101000a900460ff1660038111156108a3576108a261211f565b5b60038111156108b5576108b461211f565b5b81526020016001820154815260200160028201548152602001600382015f9054906101000a900473ffffffffffffffffffffffffffffffffffffffff1673ffffffffffffffffffffffffffffffffffffffff1673ffffffffffffffffffffffffffffffffffffffff16815250509050805f0151945080602001519350600160028111156109455761094461211f565b5b815f0151600281111561095b5761095a61211f565b5b0361099e575f81606001518260400151610975919061269a565b905080421061098a57600193505f925061099c565b5f9350428161099991906126cd565b92505b505b509193509193565b5f60035f8481526020019081526020015f2090503373ffffffffffffffffffffffffffffffffffffffff16816003015f9054906101000a900473ffffffffffffffffffffffffffffffffffffffff1673ffffffffffffffffffffffffffffffffffffffff1614610a4b576040517f08c379a0000000000000000000000000000000000000000000000000000000008152600401610a429061274a565b60405180910390fd5b5f6002811115610a5e57610a5d61211f565b5b815f015f9054906101000a900460ff166002811115610a8057610a7f61211f565b5b14610ac0576040517f08c379a0000000000000000000000000000000000000000000000000000000008152600401610ab7906127b2565b60405180910390fd5b5f60045f3373ffffffffffffffffffffffffffffffffffffffff1673ffffffffffffffffffffffffffffffffffffffff1681526020019081526020015f205f846003811115610b1257610b1161211f565b5b6003811115610b2457610b2361211f565b5b81526020019081526020015f205411610b72576040517f08c379a0000000000000000000000000000000000000000000000000000000008152600401610b699061281a565b60405180910390fd5b60045f3373ffffffffffffffffffffffffffffffffffffffff1673ffffffffffffffffffffffffffffffffffffffff1681526020019081526020015f205f836003811115610bc357610bc261211f565b5b6003811115610bd557610bd461211f565b5b81526020019081526020015f205f815480929190610bf290612838565b91905055506001815f015f6101000a81548160ff02191690836002811115610c1d57610c1c61211f565b5b021790555081815f0160016101000a81548160ff02191690836003811115610c4857610c4761211f565b5b021790555042816001018190555060065f836003811115610c6c57610c6b61211f565b5b6003811115610c7e57610c7d61211f565b5b81526020019081526020015f205f015481600201819055503373ffffffffffffffffffffffffffffffffffffffff167f17ac3ec9d9571ac28217ce2bce1c662ddb84437c30e14dde2daec760589cf1ff8484604051610cde92919061285f565b60405180910390a2505050565b8060055f3373ffffffffffffffffffffffffffffffffffffffff1673ffffffffffffffffffffffffffffffffffffffff1681526020019081526020015f205f846003811115610d3d57610d3c61211f565b5b6003811115610d4f57610d4e61211f565b5b81526020019081526020015f20541015610d9e576040517f08c379a0000000000000000000000000000000000000000000000000000000008152600401610d95906128d0565b60405180910390fd5b5f8111610de0576040517f08c379a0000000000000000000000000000000000000000000000000000000008152600401610dd790612938565b60405180910390fd5b8060055f3373ffffffffffffffffffffffffffffffffffffffff1673ffffffffffffffffffffffffffffffffffffffff1681526020019081526020015f205f846003811115610e3257610e3161211f565b5b6003811115610e4457610e4361211f565b5b81526020019081526020015f205f828254610e5f91906126cd565b92505081905550600281610e739190612956565b60045f3373ffffffffffffffffffffffffffffffffffffffff1673ffffffffffffffffffffffffffffffffffffffff1681526020019081526020015f205f846003811115610ec457610ec361211f565b5b6003811115610ed657610ed561211f565b5b81526020019081526020015f205f828254610ef1919061269a565b925050819055503373ffffffffffffffffffffffffffffffffffffffff167fe507296849f61c18eb648649264040e6430e523b753837de3713e225acdca0328383600285610f3f9190612956565b604051610f4e93929190612997565b60405180910390a25050565b6802b5e3af16b188000081565b606060025f8373ffffffffffffffffffffffffffffffffffffffff1673ffffffffffffffffffffffffffffffffffffffff1681526020019081526020015f20805480602002602001604051908101604052809291908181526020018280548015610fee57602002820191905f5260205f20905b815481526020019060010190808311610fda575b50505050509050919050565b600981565b5f60035f8381526020019081526020015f2090503373ffffffffffffffffffffffffffffffffffffffff16816003015f9054906101000a900473ffffffffffffffffffffffffffffffffffffffff1673ffffffffffffffffffffffffffffffffffffffff16146110a4576040517f08c379a000000000000000000000000000000000000000000000000000000000815260040161109b9061274a565b60405180910390fd5b600160028111156110b8576110b761211f565b5b815f015f9054906101000a900460ff1660028111156110da576110d961211f565b5b1461111a576040517f08c379a000000000000000000000000000000000000000000000000000000000815260040161111190612a16565b60405180910390fd5b8060020154816001015461112e919061269a565b421015611170576040517f08c379a000000000000000000000000000000000000000000000000000000000815260040161116790612a7e565b60405180910390fd5b5f815f0160019054906101000a900460ff16905060055f3373ffffffffffffffffffffffffffffffffffffffff1673ffffffffffffffffffffffffffffffffffffffff1681526020019081526020015f205f8260038111156111d5576111d461211f565b5b60038111156111e7576111e661211f565b5b81526020019081526020015f205f81548092919061120490612653565b91905055505f825f015f6101000a81548160ff0219169083600281111561122e5761122d61211f565b5b02179055505f82600101819055505f82600201819055503373ffffffffffffffffffffffffffffffffffffffff167ffe583fbda523ea7a32b88cc3705a5cb25babdba404f30aacbb65a272b864b05a848360405161128d92919061285f565b60405180910390a2505050565b6802b5e3af16b188000060015f9054906101000a900473ffffffffffffffffffffffffffffffffffffffff1673ffffffffffffffffffffffffffffffffffffffff166370a08231336040518263ffffffff1660e01b81526004016112fe919061250b565b602060405180830381865afa158015611319573d5f5f3e3d5ffd5b505050506040513d601f19601f8201168201806040525081019061133d9190612ab0565b101561137e576040517f08c379a000000000000000000000000000000000000000000000000000000000815260040161137590612b25565b60405180910390fd5b60015f9054906101000a900473ffffffffffffffffffffffffffffffffffffffff1673ffffffffffffffffffffffffffffffffffffffff16639dc29fac336802b5e3af16b18800006040518363ffffffff1660e01b81526004016113e3929190612b43565b5f604051808303815f87803b1580156113fa575f5ffd5b505af115801561140c573d5f5f3e3d5ffd5b505050505f60075f81548092919061142390612653565b9190505590506040518060a001604052805f60028111156114475761144661211f565b5b81526020015f600381111561145f5761145e61211f565b5b81526020015f81526020015f81526020013373ffffffffffffffffffffffffffffffffffffffff1681525060035f8381526020019081526020015f205f820151815f015f6101000a81548160ff021916908360028111156114c3576114c261211f565b5b02179055506020820151815f0160016101000a81548160ff021916908360038111156114f2576114f161211f565b5b021790555060408201518160010155606082015181600201556080820151816003015f6101000a81548173ffffffffffffffffffffffffffffffffffffffff021916908373ffffffffffffffffffffffffffffffffffffffff16021790555090505060025f3373ffffffffffffffffffffffffffffffffffffffff1673ffffffffffffffffffffffffffffffffffffffff1681526020019081526020015f2081908060018154018082558091505060019003905f5260205f20015f90919091909150553373ffffffffffffffffffffffffffffffffffffffff167faecd65780974d9d023e895e76a5ef8752263c60a25725c99f53c89b027d083f5826040516115fb9190612086565b60405180910390a250565b6003602052805f5260405f205f91509050805f015f9054906101000a900460ff1690805f0160019054906101000a900460ff1690806001015490806002015490806003015f9054906101000a900473ffffffffffffffffffffffffffffffffffffffff16905085565b6002602052815f5260405f208181548110611688575f80fd5b905f5260205f20015f91509150505481565b6116a2611e60565b6116ab5f611ee7565b565b6006602052805f5260405f205f91509050805f0154908060010154908060020154908060030180546116de90612b97565b80601f016020809104026020016040519081016040528092919081815260200182805461170a90612b97565b80156117555780601f1061172c57610100808354040283529160200191611755565b820191905f5260205f20905b81548152906001019060200180831161173857829003601f168201915b5050505050905084565b5f5f5f9054906101000a900473ffffffffffffffffffffffffffffffffffffffff16905090565b5f81116117c8576040517f08c379a00000000000000000000000000000000000000000000000000000000081526004016117bf90612938565b60405180910390fd5b5f8160065f8560038111156117e0576117df61211f565b5b60038111156117f2576117f161211f565b5b81526020019081526020015f206001015461180d9190612956565b90508060015f9054906101000a900473ffffffffffffffffffffffffffffffffffffffff1673ffffffffffffffffffffffffffffffffffffffff166370a08231336040518263ffffffff1660e01b815260040161186a919061250b565b602060405180830381865afa158015611885573d5f5f3e3d5ffd5b505050506040513d601f19601f820116820180604052508101906118a99190612ab0565b10156118ea576040517f08c379a00000000000000000000000000000000000000000000000000000000081526004016118e190612b25565b60405180910390fd5b60015f9054906101000a900473ffffffffffffffffffffffffffffffffffffffff1673ffffffffffffffffffffffffffffffffffffffff16639dc29fac33836040518363ffffffff1660e01b8152600401611946929190612b43565b5f604051808303815f87803b15801561195d575f5ffd5b505af115801561196f573d5f5f3e3d5ffd5b505050508160045f3373ffffffffffffffffffffffffffffffffffffffff1673ffffffffffffffffffffffffffffffffffffffff1681526020019081526020015f205f8560038111156119c5576119c461211f565b5b60038111156119d7576119d661211f565b5b81526020019081526020015f205f8282546119f2919061269a565b925050819055503373ffffffffffffffffffffffffffffffffffffffff167f07f1465474b250936c2f8ad3b61d83f68bde57fa2bffd9f22beb3528423153fd848484604051611a4393929190612997565b60405180910390a2505050565b6005602052815f5260405f20602052805f5260405f205f91509150505481565b8060055f3373ffffffffffffffffffffffffffffffffffffffff1673ffffffffffffffffffffffffffffffffffffffff1681526020019081526020015f205f846003811115611ac257611ac161211f565b5b6003811115611ad457611ad361211f565b5b81526020019081526020015f20541015611b23576040517f08c379a0000000000000000000000000000000000000000000000000000000008152600401611b1a906128d0565b60405180910390fd5b5f8111611b65576040517f08c379a0000000000000000000000000000000000000000000000000000000008152600401611b5c90612938565b60405180910390fd5b8060055f3373ffffffffffffffffffffffffffffffffffffffff1673ffffffffffffffffffffffffffffffffffffffff1681526020019081526020015f205f846003811115611bb757611bb661211f565b5b6003811115611bc957611bc861211f565b5b81526020019081526020015f205f828254611be491906126cd565b925050819055505f8160065f856003811115611c0357611c0261211f565b5b6003811115611c1557611c1461211f565b5b81526020019081526020015f2060020154611c309190612956565b905060015f9054906101000a900473ffffffffffffffffffffffffffffffffffffffff1673ffffffffffffffffffffffffffffffffffffffff166340c10f1933836040518363ffffffff1660e01b8152600401611c8e929190612b43565b5f604051808303815f87803b158015611ca5575f5ffd5b505af1158015611cb7573d5f5f3e3d5ffd5b505050503373ffffffffffffffffffffffffffffffffffffffff167fc3a02355fedc38b997f1d454c5a2f14cd67a6f01a64147739ec07c1793430fc9848484604051611d0593929190612997565b60405180910390a2505050565b60015f9054906101000a900473ffffffffffffffffffffffffffffffffffffffff1681565b60075481565b5f60055f8473ffffffffffffffffffffffffffffffffffffffff1673ffffffffffffffffffffffffffffffffffffffff1681526020019081526020015f205f836003811115611d8f57611d8e61211f565b5b6003811115611da157611da061211f565b5b81526020019081526020015f2054905092915050565b6004602052815f5260405f20602052805f5260405f205f91509150505481565b611ddf611e60565b5f73ffffffffffffffffffffffffffffffffffffffff168173ffffffffffffffffffffffffffffffffffffffff1603611e4f575f6040517f1e4fbdf7000000000000000000000000000000000000000000000000000000008152600401611e46919061250b565b60405180910390fd5b611e5881611ee7565b50565b600581565b611e68611fa8565b73ffffffffffffffffffffffffffffffffffffffff16611e8661175f565b73ffffffffffffffffffffffffffffffffffffffff1614611ee557611ea9611fa8565b6040517f118cdaa7000000000000000000000000000000000000000000000000000000008152600401611edc919061250b565b60405180910390fd5b565b5f5f5f9054906101000a900473ffffffffffffffffffffffffffffffffffffffff169050815f5f6101000a81548173ffffffffffffffffffffffffffffffffffffffff021916908373ffffffffffffffffffffffffffffffffffffffff1602179055508173ffffffffffffffffffffffffffffffffffffffff168173ffffffffffffffffffffffffffffffffffffffff167f8be0079c531659141344cd1fd0a4f28419497f9722a3daafe3b4186f6b6457e060405160405180910390a35050565b5f33905090565b5f5ffd5b5f73ffffffffffffffffffffffffffffffffffffffff82169050919050565b5f611fdc82611fb3565b9050919050565b611fec81611fd2565b8114611ff6575f5ffd5b50565b5f8135905061200781611fe3565b92915050565b60048110612019575f5ffd5b50565b5f8135905061202a8161200d565b92915050565b5f5f6040838503121561204657612045611faf565b5b5f61205385828601611ff9565b92505060206120648582860161201c565b9150509250929050565b5f819050919050565b6120808161206e565b82525050565b5f6020820190506120995f830184612077565b92915050565b5f602082840312156120b4576120b3611faf565b5b5f6120c184828501611ff9565b91505092915050565b6120d38161206e565b81146120dd575f5ffd5b50565b5f813590506120ee816120ca565b92915050565b5f6020828403121561210957612108611faf565b5b5f612116848285016120e0565b91505092915050565b7f4e487b71000000000000000000000000000000000000000000000000000000005f52602160045260245ffd5b6003811061215d5761215c61211f565b5b50565b5f81905061216d8261214c565b919050565b5f61217c82612160565b9050919050565b61218c81612172565b82525050565b600481106121a3576121a261211f565b5b50565b5f8190506121b382612192565b919050565b5f6121c2826121a6565b9050919050565b6121d2816121b8565b82525050565b5f8115159050919050565b6121ec816121d8565b82525050565b5f6080820190506122055f830187612183565b61221260208301866121c9565b61221f60408301856121e3565b61222c6060830184612077565b95945050505050565b5f5f6040838503121561224b5761224a611faf565b5b5f612258858286016120e0565b92505060206122698582860161201c565b9150509250929050565b5f5f6040838503121561228957612288611faf565b5b5f6122968582860161201c565b92505060206122a7858286016120e0565b9150509250929050565b5f81519050919050565b5f82825260208201905092915050565b5f819050602082019050919050565b6122e38161206e565b82525050565b5f6122f483836122da565b60208301905092915050565b5f602082019050919050565b5f612316826122b1565b61232081856122bb565b935061232b836122cb565b805f5b8381101561235b57815161234288826122e9565b975061234d83612300565b92505060018101905061232e565b5085935050505092915050565b5f6020820190508181035f830152612380818461230c565b905092915050565b61239181611fd2565b82525050565b5f60a0820190506123aa5f830188612183565b6123b760208301876121c9565b6123c46040830186612077565b6123d16060830185612077565b6123de6080830184612388565b9695505050505050565b5f5f604083850312156123fe576123fd611faf565b5b5f61240b85828601611ff9565b925050602061241c858286016120e0565b9150509250929050565b5f6020828403121561243b5761243a611faf565b5b5f6124488482850161201c565b91505092915050565b5f81519050919050565b5f82825260208201905092915050565b8281835e5f83830152505050565b5f601f19601f8301169050919050565b5f61249382612451565b61249d818561245b565b93506124ad81856020860161246b565b6124b681612479565b840191505092915050565b5f6080820190506124d45f830187612077565b6124e16020830186612077565b6124ee6040830185612077565b81810360608301526125008184612489565b905095945050505050565b5f60208201905061251e5f830184612388565b92915050565b5f819050919050565b5f61254761254261253d84611fb3565b612524565b611fb3565b9050919050565b5f6125588261252d565b9050919050565b5f6125698261254e565b9050919050565b6125798161255f565b82525050565b5f6020820190506125925f830184612570565b92915050565b7f4661726d4c616e643a20706c6179657220616c726561647920696e697469616c5f8201527f697a656400000000000000000000000000000000000000000000000000000000602082015250565b5f6125f260248361245b565b91506125fd82612598565b604082019050919050565b5f6020820190508181035f83015261261f816125e6565b9050919050565b7f4e487b71000000000000000000000000000000000000000000000000000000005f52601160045260245ffd5b5f61265d8261206e565b91507fffffffffffffffffffffffffffffffffffffffffffffffffffffffffffffffff820361268f5761268e612626565b5b600182019050919050565b5f6126a48261206e565b91506126af8361206e565b92508282019050808211156126c7576126c6612626565b5b92915050565b5f6126d78261206e565b91506126e28361206e565b92508282039050818111156126fa576126f9612626565b5b92915050565b7f4661726d4c616e643a206e6f7420706c6f74206f776e657200000000000000005f82015250565b5f61273460188361245b565b915061273f82612700565b602082019050919050565b5f6020820190508181035f83015261276181612728565b9050919050565b7f4661726d4c616e643a20706c6f74206e6f7420656d70747900000000000000005f82015250565b5f61279c60188361245b565b91506127a782612768565b602082019050919050565b5f6020820190508181035f8301526127c981612790565b9050919050565b7f4661726d4c616e643a206e6f20736565647320617661696c61626c65000000005f82015250565b5f612804601c8361245b565b915061280f826127d0565b602082019050919050565b5f6020820190508181035f830152612831816127f8565b9050919050565b5f6128428261206e565b91505f820361285457612853612626565b5b600182039050919050565b5f6040820190506128725f830185612077565b61287f60208301846121c9565b9392505050565b7f4661726d4c616e643a20696e73756666696369656e742063726f7073000000005f82015250565b5f6128ba601c8361245b565b91506128c582612886565b602082019050919050565b5f6020820190508181035f8301526128e7816128ae565b9050919050565b7f4661726d4c616e643a207175616e74697479206d757374206265203e203000005f82015250565b5f612922601e8361245b565b915061292d826128ee565b602082019050919050565b5f6020820190508181035f83015261294f81612916565b9050919050565b5f6129608261206e565b915061296b8361206e565b92508282026129798161206e565b915082820484148315176129905761298f612626565b5b5092915050565b5f6060820190506129aa5f8301866121c9565b6129b76020830185612077565b6129c46040830184612077565b949350505050565b7f4661726d4c616e643a20706c6f74206e6f742067726f77696e670000000000005f82015250565b5f612a00601a8361245b565b9150612a0b826129cc565b602082019050919050565b5f6020820190508181035f830152612a2d816129f4565b9050919050565b7f4661726d4c616e643a2063726f70206e6f7420726561647900000000000000005f82015250565b5f612a6860188361245b565b9150612a7382612a34565b602082019050919050565b5f6020820190508181035f830152612a9581612a5c565b9050919050565b5f81519050612aaa816120ca565b92915050565b5f60208284031215612ac557612ac4611faf565b5b5f612ad284828501612a9c565b91505092915050565b7f4661726d4c616e643a20696e73756666696369656e742066756e6473000000005f82015250565b5f612b0f601c8361245b565b9150612b1a82612adb565b602082019050919050565b5f6020820190508181035f830152612b3c81612b03565b9050919050565b5f604082019050612b565f830185612388565b612b636020830184612077565b9392505050565b7f4e487b71000000000000000000000000000000000000000000000000000000005f52602260045260245ffd5b5f6002820490506001821680612bae57607f821691505b602082108103612bc157612bc0612b6a565b5b5091905056fea26469706673582212207a4217d18b4dc82b92ca79f3b9fc3e08b4764ea49bedad73d49fbbac644d8c6d64736f6c634300081c0033",
  "linkReferences": {},
  "deployedLinkReferences": {},
  "immutableReferences": {},
  "inputSourceName": "project/contracts/FarmLand.sol",
  "buildInfoId": "solc-0_8_28-9e519283eaa7f8ed576ba4af67ab5ea0d5adfd62"
}