{
  "_format": "hh3-artifact-1",
  "contractName": "GameToken",
  "sourceName": "contracts/GameToken.sol",
  "abi": [
    {
      "inputs": [],
      "stateMutability": "nonpayable",
      "type": "constructor"
    },
    {
      "inputs": [
        {
          "internalType": "address",
          "name": "spender",
          "type": "address"
        },
        {
          "internalType": "uint256",
          "name": "allowance",
          "type": "uint256"
        },
        {
          "internalType": "uint256",
          "name": "needed",
          "type": "uint256"
        }
      ],
      "name": "ERC20InsufficientAllowance",
      "type": "error"
    },
    {
      "inputs": [
        {
          "internalType": "address",
          "name": "sender",
          "type": "address"
        },
        {
          "internalType": "uint256",
          "name": "balance",
          "type": "uint256"
        },
        {
          "internalType": "uint256",
          "name": "needed",
          "type": "uint256"
        }
      ],
      "name": "ERC20InsufficientBalance",
      "type": "error"
    },
    {
      "inputs": [
        {
          "internalType": "address",
          "name": "approver",
          "type": "address"
        }
      ],
      "name": "ERC20InvalidApprover",
      "type": "error"
    },
    {
      "inputs": [
        {
          "internalType": "address",
          "name": "receiver",
          "type": "address"
        }
      ],
      "name": "ERC20InvalidReceiver",
      "type": "error"
    },
    {
      "inputs": [
        {
          "internalType": "address",
          "name": "sender",
          "type": "address"
        }
      ],
      "name": "ERC20InvalidSender",
      "type": "error"
    },
    {
      "inputs": [
        {
          "internalType": "address",
          "name": "spender",
          "type": "address"
        }
      ],
      "name": "ERC20InvalidSpender",
      "type": "error"
    },
    {
      "inputs": [
        {
          "internalType": "address",
          "name": "owner",
          "type": "address"
        }
      ],
      "name": "OwnableInvalidOwner",
      "type": "error"
    },
    {
      "inputs": [
        {
          "internalType": "address",
          "name": "account",
          "type": "address"
        }
      ],
      "name": "OwnableUnauthorizedAccount",
      "type": "error"
    },
    {
      "anonymous": false,
      "inputs": [
        {
          "indexed": true,
          "internalType": "address",
          "name": "owner",
          "type": "address"
        },
        {
          "indexed": true,
          "internalType": "address",
          "name": "spender",
          "type": "address"
        },
        {
          "indexed": false,
          "internalType": "uint256",
          "name": "value",
          "type": "uint256"
        }
      ],
      "name": "Approval",
      "type": "event"
    },
    {
      "anonymous": false,
      "inputs": [
        {
          "indexed": true,
          "internalType": "address",
          "name": "contractAddress",
          "type": "address"
        },
        {
          "indexed": false,
          "internalType": "bool",
          "name": "authorized",
          "type": "bool"
        }
      ],
      "name": "ContractAuthorized",
      "type": "event"
    },
    {
      "anonymous": false,
      "inputs": [
        {
          "indexed": true,
          "internalType": "address",
          "name": "previousOwner",
          "type": "address"
        },
        {
          "indexed": true,
          "internalType": "address",
          "name": "newOwner",
          "type": "address"
        }
      ],
      "name": "OwnershipTransferred",
      "type": "event"
    },
    {
      "anonymous": false,
      "inputs": [
        {
          "indexed": true,
          "internalType": "address",
          "name": "from",
          "type": "address"
        },
        {
          "indexed": false,
          "internalType": "uint256",
          "name": "amount",
          "type": "uint256"
        }
      ],
      "name": "TokensBurned",
      "type": "event"
    },
    {
      "anonymous": false,
      "inputs": [
        {
          "indexed": true,
          "internalType": "address",
          "name": "to",
          "type": "address"
        },
        {
          "indexed": false,
          "internalType": "uint256",
          "name": "amount",
          "type": "uint256"
        }
      ],
      "name": "TokensMinted",
      "type": "event"
    },
    {
      "anonymous": false,
      "inputs": [
        {
          "indexed": true,
          "internalType": "address",
          "name": "from",
          "type": "address"
        },
        {
          "indexed": true,
          "internalType": "address",
          "name": "to",
          "type": "address"
        },
        {
          "indexed": false,
          "internalType": "uint256",
          "name": "value",
          "type": "uint256"
        }
      ],
      "name": "Transfer",
      "type": "event"
    },
    {
      "inputs": [
        {
          "internalType": "address",
          "name": "owner",
          "type": "address"
        },
        {
          "internalType": "address",
          "name": "spender",
          "type": "address"
        }
      ],
      "name": "allowance",
      "outputs": [
        {
          "internalType": "uint256",
          "name": "",
          "type": "uint256"
        }
      ],
      "stateMutability": "view",
      "type": "function"
    },
    {
      "inputs": [
        {
          "internalType": "address",
          "name": "spender",
          "type": "address"
        },
        {
          "internalType": "uint256",
          "name": "value",
          "type": "uint256"
        }
      ],
      "name": "approve",
      "outputs": [
        {
          "internalType": "bool",
          "name": "",
          "type": "bool"
        }
      ],
      "stateMutability": "nonpayable",
      "type": "function"
    },
    {
      "inputs": [
        {
          "internalType": "address",
          "name": "",
          "type": "address"
        }
      ],
      "name": "authorizedContracts",
      "outputs": [
        {
          "internalType": "bool",
          "name": "",
          "type": "bool"
        }
      ],
      "stateMutability": "view",
      "type": "function"
    },
    {
      "inputs": [
        {
          "internalType": "address",
          "name": "account",
          "type": "address"
        }
      ],
      "name": "balanceOf",
      "outputs": [
        {
          "internalType": "uint256",
          "name": "",
          "type": "uint256"
        }
      ],
      "stateMutability": "view",
      "type": "function"
    },
    {
      "inputs": [
        {
          "internalType": "address",
          "name": "from",
          "type": "address"
        },
        {
          "internalType": "uint256",
          "name": "amount",
          "type": "uint256"
        }
      ],
      "name": "burn",
      "outputs": [],
      "stateMutability": "nonpayable",
      "type": "function"
    },
    {
      "inputs": [],
      "name": "decimals",
      "outputs": [
        {
          "internalType": "uint8",
          "name": "",
          "type": "uint8"
        }
      ],
      "stateMutability": "view",
      "type": "function"
    },
    {
      "inputs": [
        {
          "internalType": "address",
          "name": "player",
          "type": "address"
        }
      ],
      "name": "giveStarterTokens",
      "outputs": [],
      "stateMutability": "nonpayable",
      "type": "function"
    },
    {
      "inputs": [
        {
          "internalType": "address",
          "name": "to",
          "type": "address"
        },
        {
          "internalType": "uint256",
          "name": "amount",
          "type": "uint256"
        }
      ],
      "name": "mint",
      "outputs": [],
      "stateMutability": "nonpayable",
      "type": "function"
    },
    {
      "inputs": [],
      "name": "name",
      "outputs": [
        {
          "internalType": "string",
          "name": "",
          "type": "string"
        }
      ],
      "stateMutability": "view",
      "type": "function"
    },
    {
      "inputs": [],
      "name": "owner",
      "outputs": [
        {
          "internalType": "address",
          "name": "",
          "type": "address"
        }
      ],
      "stateMutability": "view",
      "type": "function"
    },
    {
      "inputs": [],
      "name": "renounceOwnership",
      "outputs": [],
      "stateMutability": "nonpayable",
      "type": "function"
    },
    {
      "inputs": [
        {
          "internalType": "address",
          "name": "contractAddress",
          "type": "address"
        },
        {
          "internalType": "bool",
          "name": "authorized",
          "type": "bool"
        }
      ],
      "name": "setAuthorizedContract",
      "outputs": [],
      "stateMutability": "nonpayable",
      "type": "function"
    },
    {
      "inputs": [],
      "name": "symbol",
      "outputs": [
        {
          "internalType": "string",
          "name": "",
          "type": "string"
        }
      ],
      "stateMutability": "view",
      "type": "function"
    },
    {
      "inputs": [],
      "name": "totalSupply",
      "outputs": [
        {
          "internalType": "uint256",
          "name": "",
          "type": "uint256"
        }
      ],
      "stateMutability": "view",
      "type": "function"
    },
    {
      "inputs": [
        {
          "internalType": "address",
          "name": "to",
          "type": "address"
        },
        {
          "internalType": "uint256",
          "name": "value",
          "type": "uint256"
        }
      ],
      "name": "transfer",
      "outputs": [
        {
          "internalType": "bool",
          "name": "",
          "type": "bool"
        }
      ],
      "stateMutability": "nonpayable",
      "type": "function"
    },
    {
      "inputs": [
        {
          "internalType": "address",
          "name": "from",
          "type": "address"
        },
        {
          "internalType": "address",
          "name": "to",
          "type": "address"
        },
        {
          "internalType": "uint256",
          "name": "value",
          "type": "uint256"
        }
      ],
      "name": "transferFrom",
      "outputs": [
        {
          "internalType": "bool",
          "name": "",
          "type": "bool"
        }
      ],
      "stateMutability": "nonpayable",
      "type": "function"
    },
    {
      "inputs": [
        {
          "internalType": "address",
          "name": "newOwner",
          "type": "address"
        }
      ],
      "name": "transferOwnership",
      "outputs": [],
      "stateMutability": "nonpayable",
      "type": "function"
    }
  ],
  "bytecode": "0x608060405234801561000f575f5ffd5b50336040518060400160405280600881526020017f47616d65436f696e0000000000000000000000000000000000000000000000008152506040518060400160405280600581526020017f47434f494e000000000000000000000000000000000000000000000000000000815250816003908161008c9190610701565b50806004908161009c9190610701565b5050505f73ffffffffffffffffffffffffffffffffffffffff168173ffffffffffffffffffffffffffffffffffffffff160361010f575f6040517f1e4fbdf7000000000000000000000000000000000000000000000000000000008152600401610106919061080f565b60405180910390fd5b61011e8161015b60201b60201c565b506101563361013161021e60201b60201c565b600a61013d9190610990565b620f424061014b91906109da565b61022660201b60201c565b610aab565b5f60055f9054906101000a900473ffffffffffffffffffffffffffffffffffffffff1690508160055f6101000a81548173ffffffffffffffffffffffffffffffffffffffff021916908373ffffffffffffffffffffffffffffffffffffffff1602179055508173ffffffffffffffffffffffffffffffffffffffff168173ffffffffffffffffffffffffffffffffffffffff167f8be0079c531659141344cd1fd0a4f28419497f9722a3daafe3b4186f6b6457e060405160405180910390a35050565b5f6012905090565b5f73ffffffffffffffffffffffffffffffffffffffff168273ffffffffffffffffffffffffffffffffffffffff1603610296575f6040517fec442f0500000000000000000000000000000000000000000000000000000000815260040161028d919061080f565b60405180910390fd5b6102a75f83836102ab60201b60201c565b5050565b5f73ffffffffffffffffffffffffffffffffffffffff168373ffffffffffffffffffffffffffffffffffffffff16036102fb578060025f8282546102ef9190610a1b565b925050819055506103c9565b5f5f5f8573ffffffffffffffffffffffffffffffffffffffff1673ffffffffffffffffffffffffffffffffffffffff1681526020019081526020015f2054905081811015610384578381836040517fe450d38c00000000000000000000000000000000000000000000000000000000815260040161037b93929190610a5d565b60405180910390fd5b8181035f5f8673ffffffffffffffffffffffffffffffffffffffff1673ffffffffffffffffffffffffffffffffffffffff1681526020019081526020015f2081905550505b5f73ffffffffffffffffffffffffffffffffffffffff168273ffffffffffffffffffffffffffffffffffffffff1603610410578060025f828254039250508190555061045a565b805f5f8473ffffffffffffffffffffffffffffffffffffffff1673ffffffffffffffffffffffffffffffffffffffff1681526020019081526020015f205f82825401925050819055505b8173ffffffffffffffffffffffffffffffffffffffff168373ffffffffffffffffffffffffffffffffffffffff167fddf252ad1be2c89b69c2b068fc378daa952ba7f163c4a11628f55a4df523b3ef836040516104b79190610a92565b60405180910390a3505050565b5f81519050919050565b7f4e487b71000000000000000000000000000000000000000000000000000000005f52604160045260245ffd5b7f4e487b71000000000000000000000000000000000000000000000000000000005f52602260045260245ffd5b5f600282049050600182168061053f57607f821691505b602082108103610552576105516104fb565b5b50919050565b5f819050815f5260205f209050919050565b5f6020601f8301049050919050565b5f82821b905092915050565b5f600883026105b47fffffffffffffffffffffffffffffffffffffffffffffffffffffffffffffffff82610579565b6105be8683610579565b95508019841693508086168417925050509392505050565b5f819050919050565b5f819050919050565b5f6106026105fd6105f8846105d6565b6105df565b6105d6565b9050919050565b5f819050919050565b61061b836105e8565b61062f61062782610609565b848454610585565b825550505050565b5f5f905090565b610646610637565b610651818484610612565b505050565b5b81811015610674576106695f8261063e565b600181019050610657565b5050565b601f8211156106b95761068a81610558565b6106938461056a565b810160208510156106a2578190505b6106b66106ae8561056a565b830182610656565b50505b505050565b5f82821c905092915050565b5f6106d95f19846008026106be565b1980831691505092915050565b5f6106f183836106ca565b9150826002028217905092915050565b61070a826104c4565b67ffffffffffffffff811115610723576107226104ce565b5b61072d8254610528565b610738828285610678565b5f60209050601f831160018114610769575f8415610757578287015190505b61076185826106e6565b8655506107c8565b601f19841661077786610558565b5f5b8281101561079e57848901518255600182019150602085019450602081019050610779565b868310156107bb57848901516107b7601f8916826106ca565b8355505b6001600288020188555050505b505050505050565b5f73ffffffffffffffffffffffffffffffffffffffff82169050919050565b5f6107f9826107d0565b9050919050565b610809816107ef565b82525050565b5f6020820190506108225f830184610800565b92915050565b7f4e487b71000000000000000000000000000000000000000000000000000000005f52601160045260245ffd5b5f8160011c9050919050565b5f5f8291508390505b60018511156108aa5780860481111561088657610885610828565b5b60018516156108955780820291505b80810290506108a385610855565b945061086a565b94509492505050565b5f826108c2576001905061097d565b816108cf575f905061097d565b81600181146108e557600281146108ef5761091e565b600191505061097d565b60ff84111561090157610900610828565b5b8360020a91508482111561091857610917610828565b5b5061097d565b5060208310610133831016604e8410600b84101617156109535782820a90508381111561094e5761094d610828565b5b61097d565b6109608484846001610861565b9250905081840481111561097757610976610828565b5b81810290505b9392505050565b5f60ff82169050919050565b5f61099a826105d6565b91506109a583610984565b92506109d27fffffffffffffffffffffffffffffffffffffffffffffffffffffffffffffffff84846108b3565b905092915050565b5f6109e4826105d6565b91506109ef836105d6565b92508282026109fd816105d6565b91508282048414831517610a1457610a13610828565b5b5092915050565b5f610a25826105d6565b9150610a30836105d6565b9250828201905080821115610a4857610a47610828565b5b92915050565b610a57816105d6565b82525050565b5f606082019050610a705f830186610800565b610a7d6020830185610a4e565b610a8a6040830184610a4e565b949350505050565b5f602082019050610aa55f830184610a4e565b92915050565b61187080610ab85f395ff3fe608060405234801561000f575f5ffd5b5060043610610109575f3560e01c8063715018a6116100a0578063a9059cbb1161006f578063a9059cbb14610291578063d5b9221b146102c1578063dd62ed3e146102f1578063f2fa739214610321578063f2fde38b1461033d57610109565b8063715018a61461022f5780638da5cb5b1461023957806395d89b41146102575780639dc29fac1461027557610109565b806323b872dd116100dc57806323b872dd14610195578063313ce567146101c557806340c10f19146101e357806370a08231146101ff57610109565b806306fdde031461010d578063095ea7b31461012b57806318160ddd1461015b5780631cd2ed9014610179575b5f5ffd5b610115610359565b60405161012291906111d1565b60405180910390f35b61014560048036038101906101409190611282565b6103e9565b60405161015291906112da565b60405180910390f35b61016361040b565b6040516101709190611302565b60405180910390f35b610193600480360381019061018e919061131b565b610414565b005b6101af60048036038101906101aa9190611346565b610492565b6040516101bc91906112da565b60405180910390f35b6101cd6104c0565b6040516101da91906113b1565b60405180910390f35b6101fd60048036038101906101f89190611282565b6104c8565b005b6102196004803603810190610214919061131b565b6105ad565b6040516102269190611302565b60405180910390f35b6102376105f2565b005b610241610605565b60405161024e91906113d9565b60405180910390f35b61025f61062d565b60405161026c91906111d1565b60405180910390f35b61028f600480360381019061028a9190611282565b6106bd565b005b6102ab60048036038101906102a69190611282565b6107a2565b6040516102b891906112da565b60405180910390f35b6102db60048036038101906102d6919061131b565b6107c4565b6040516102e891906112da565b60405180910390f35b61030b600480360381019061030691906113f2565b6107e1565b6040516103189190611302565b60405180910390f35b61033b6004803603810190610336919061145a565b610863565b005b6103576004803603810190610352919061131b565b610911565b005b606060038054610368906114c5565b80601f0160208091040260200160405190810160405280929190818152602001828054610394906114c5565b80156103df5780601f106103b6576101008083540402835291602001916103df565b820191905f5260205f20905b8154815290600101906020018083116103c257829003601f168201915b5050505050905090565b5f5f6103f3610995565b905061040081858561099c565b600191505092915050565b5f600254905090565b61041c6109ae565b5f610426826105ad565b14610466576040517f08c379a000000000000000000000000000000000000000000000000000000000815260040161045d90611565565b60405180910390fd5b61048f816104726104c0565b600a61047e91906116df565b606461048a9190611729565b610a35565b50565b5f5f61049c610995565b90506104a9858285610ab4565b6104b4858585610b47565b60019150509392505050565b5f6012905090565b60065f3373ffffffffffffffffffffffffffffffffffffffff1673ffffffffffffffffffffffffffffffffffffffff1681526020019081526020015f205f9054906101000a900460ff16610551576040517f08c379a0000000000000000000000000000000000000000000000000000000008152600401610548906117b4565b60405180910390fd5b61055b8282610a35565b8173ffffffffffffffffffffffffffffffffffffffff167f3f2c9d57c068687834f0de942a9babb9e5acab57d516d3480a3c16ee165a4273826040516105a19190611302565b60405180910390a25050565b5f5f5f8373ffffffffffffffffffffffffffffffffffffffff1673ffffffffffffffffffffffffffffffffffffffff1681526020019081526020015f20549050919050565b6105fa6109ae565b6106035f610c37565b565b5f60055f9054906101000a900473ffffffffffffffffffffffffffffffffffffffff16905090565b60606004805461063c906114c5565b80601f0160208091040260200160405190810160405280929190818152602001828054610668906114c5565b80156106b35780601f1061068a576101008083540402835291602001916106b3565b820191905f5260205f20905b81548152906001019060200180831161069657829003601f168201915b5050505050905090565b60065f3373ffffffffffffffffffffffffffffffffffffffff1673ffffffffffffffffffffffffffffffffffffffff1681526020019081526020015f205f9054906101000a900460ff16610746576040517f08c379a000000000000000000000000000000000000000000000000000000000815260040161073d906117b4565b60405180910390fd5b6107508282610cfa565b8173ffffffffffffffffffffffffffffffffffffffff167ffd38818f5291bf0bb3a2a48aadc06ba8757865d1dabd804585338aab3009dcb6826040516107969190611302565b60405180910390a25050565b5f5f6107ac610995565b90506107b9818585610b47565b600191505092915050565b6006602052805f5260405f205f915054906101000a900460ff1681565b5f60015f8473ffffffffffffffffffffffffffffffffffffffff1673ffffffffffffffffffffffffffffffffffffffff1681526020019081526020015f205f8373ffffffffffffffffffffffffffffffffffffffff1673ffffffffffffffffffffffffffffffffffffffff1681526020019081526020015f2054905092915050565b61086b6109ae565b8060065f8473ffffffffffffffffffffffffffffffffffffffff1673ffffffffffffffffffffffffffffffffffffffff1681526020019081526020015f205f6101000a81548160ff0219169083151502179055508173ffffffffffffffffffffffffffffffffffffffff167f3213ab8ec2ed122402f038736b41878b69ae9f61f49a7edd0666bce891d29fc98260405161090591906112da565b60405180910390a25050565b6109196109ae565b5f73ffffffffffffffffffffffffffffffffffffffff168173ffffffffffffffffffffffffffffffffffffffff1603610989575f6040517f1e4fbdf700000000000000000000000000000000000000000000000000000000815260040161098091906113d9565b60405180910390fd5b61099281610c37565b50565b5f33905090565b6109a98383836001610d79565b505050565b6109b6610995565b73ffffffffffffffffffffffffffffffffffffffff166109d4610605565b73ffffffffffffffffffffffffffffffffffffffff1614610a33576109f7610995565b6040517f118cdaa7000000000000000000000000000000000000000000000000000000008152600401610a2a91906113d9565b60405180910390fd5b565b5f73ffffffffffffffffffffffffffffffffffffffff168273ffffffffffffffffffffffffffffffffffffffff1603610aa5575f6040517fec442f05000000000000000000000000000000000000000000000000000000008152600401610a9c91906113d9565b60405180910390fd5b610ab05f8383610f48565b5050565b5f610abf84846107e1565b90507fffffffffffffffffffffffffffffffffffffffffffffffffffffffffffffffff811015610b415781811015610b32578281836040517ffb8f41b2000000000000000000000000000000000000000000000000000000008152600401610b29939291906117d2565b60405180910390fd5b610b4084848484035f610d79565b5b50505050565b5f73ffffffffffffffffffffffffffffffffffffffff168373ffffffffffffffffffffffffffffffffffffffff1603610bb7575f6040517f96c6fd1e000000000000000000000000000000000000000000000000000000008152600401610bae91906113d9565b60405180910390fd5b5f73ffffffffffffffffffffffffffffffffffffffff168273ffffffffffffffffffffffffffffffffffffffff1603610c27575f6040517fec442f05000000000000000000000000000000000000000000000000000000008152600401610c1e91906113d9565b60405180910390fd5b610c32838383610f48565b505050565b5f60055f9054906101000a900473ffffffffffffffffffffffffffffffffffffffff1690508160055f6101000a81548173ffffffffffffffffffffffffffffffffffffffff021916908373ffffffffffffffffffffffffffffffffffffffff1602179055508173ffffffffffffffffffffffffffffffffffffffff168173ffffffffffffffffffffffffffffffffffffffff167f8be0079c531659141344cd1fd0a4f28419497f9722a3daafe3b4186f6b6457e060405160405180910390a35050565b5f73ffffffffffffffffffffffffffffffffffffffff168273ffffffffffffffffffffffffffffffffffffffff1603610d6a575f6040517f96c6fd1e000000000000000000000000000000000000000000000000000000008152600401610d6191906113d9565b60405180910390fd5b610d75825f83610f48565b5050565b5f73ffffffffffffffffffffffffffffffffffffffff168473ffffffffffffffffffffffffffffffffffffffff1603610de9575f6040517fe602df05000000000000000000000000000000000000000000000000000000008152600401610de091906113d9565b60405180910390fd5b5f73ffffffffffffffffffffffffffffffffffffffff168373ffffffffffffffffffffffffffffffffffffffff1603610e59575f6040517f94280d62000000000000000000000000000000000000000000000000000000008152600401610e5091906113d9565b60405180910390fd5b8160015f8673ffffffffffffffffffffffffffffffffffffffff1673ffffffffffffffffffffffffffffffffffffffff1681526020019081526020015f205f8573ffffffffffffffffffffffffffffffffffffffff1673ffffffffffffffffffffffffffffffffffffffff1681526020019081526020015f20819055508015610f42578273ffffffffffffffffffffffffffffffffffffffff168473ffffffffffffffffffffffffffffffffffffffff167f8c5be1e5ebec7d5bd14f71427d1e84f3dd0314c0f7b2291e5b200ac8c7c3b92584604051610f399190611302565b60405180910390a35b50505050565b5f73ffffffffffffffffffffffffffffffffffffffff168373ffffffffffffffffffffffffffffffffffffffff1603610f98578060025f828254610f8c9190611807565b92505081905550611066565b5f5f5f8573ffffffffffffffffffffffffffffffffffffffff1673ffffffffffffffffffffffffffffffffffffffff1681526020019081526020015f2054905081811015611021578381836040517fe450d38c000000000000000000000000000000000000000000000000000000008152600401611018939291906117d2565b60405180910390fd5b8181035f5f8673ffffffffffffffffffffffffffffffffffffffff1673ffffffffffffffffffffffffffffffffffffffff1681526020019081526020015f2081905550505b5f73ffffffffffffffffffffffffffffffffffffffff168273ffffffffffffffffffffffffffffffffffffffff16036110ad578060025f82825403925050819055506110f7565b805f5f8473ffffffffffffffffffffffffffffffffffffffff1673ffffffffffffffffffffffffffffffffffffffff1681526020019081526020015f205f82825401925050819055505b8173ffffffffffffffffffffffffffffffffffffffff168373ffffffffffffffffffffffffffffffffffffffff167fddf252ad1be2c89b69c2b068fc378daa952ba7f163c4a11628f55a4df523b3ef836040516111549190611302565b60405180910390a3505050565b5f81519050919050565b5f82825260208201905092915050565b8281835e5f83830152505050565b5f601f19601f8301169050919050565b5f6111a382611161565b6111ad818561116b565b93506111bd81856020860161117b565b6111c681611189565b840191505092915050565b5f6020820190508181035f8301526111e98184611199565b905092915050565b5f5ffd5b5f73ffffffffffffffffffffffffffffffffffffffff82169050919050565b5f61121e826111f5565b9050919050565b61122e81611214565b8114611238575f5ffd5b50565b5f8135905061124981611225565b92915050565b5f819050919050565b6112618161124f565b811461126b575f5ffd5b50565b5f8135905061127c81611258565b92915050565b5f5f60408385031215611298576112976111f1565b5b5f6112a58582860161123b565b92505060206112b68582860161126e565b9150509250929050565b5f8115159050919050565b6112d4816112c0565b82525050565b5f6020820190506112ed5f8301846112cb565b92915050565b6112fc8161124f565b82525050565b5f6020820190506113155f8301846112f3565b92915050565b5f602082840312156113305761132f6111f1565b5b5f61133d8482850161123b565b91505092915050565b5f5f5f6060848603121561135d5761135c6111f1565b5b5f61136a8682870161123b565b935050602061137b8682870161123b565b925050604061138c8682870161126e565b9150509250925092565b5f60ff82169050919050565b6113ab81611396565b82525050565b5f6020820190506113c45f8301846113a2565b92915050565b6113d381611214565b82525050565b5f6020820190506113ec5f8301846113ca565b92915050565b5f5f60408385031215611408576114076111f1565b5b5f6114158582860161123b565b92505060206114268582860161123b565b9150509250929050565b611439816112c0565b8114611443575f5ffd5b50565b5f8135905061145481611430565b92915050565b5f5f604083850312156114705761146f6111f1565b5b5f61147d8582860161123b565b925050602061148e85828601611446565b9150509250929050565b7f4e487b71000000000000000000000000000000000000000000000000000000005f52602260045260245ffd5b5f60028204905060018216806114dc57607f821691505b6020821081036114ef576114ee611498565b5b50919050565b7f47616d65546f6b656e3a20706c6179657220616c72656164792068617320746f5f8201527f6b656e7300000000000000000000000000000000000000000000000000000000602082015250565b5f61154f60248361116b565b915061155a826114f5565b604082019050919050565b5f6020820190508181035f83015261157c81611543565b9050919050565b7f4e487b71000000000000000000000000000000000000000000000000000000005f52601160045260245ffd5b5f8160011c9050919050565b5f5f8291508390505b6001851115611605578086048111156115e1576115e0611583565b5b60018516156115f05780820291505b80810290506115fe856115b0565b94506115c5565b94509492505050565b5f8261161d57600190506116d8565b8161162a575f90506116d8565b8160018114611640576002811461164a57611679565b60019150506116d8565b60ff84111561165c5761165b611583565b5b8360020a91508482111561167357611672611583565b5b506116d8565b5060208310610133831016604e8410600b84101617156116ae5782820a9050838111156116a9576116a8611583565b5b6116d8565b6116bb84848460016115bc565b925090508184048111156116d2576116d1611583565b5b81810290505b9392505050565b5f6116e98261124f565b91506116f483611396565b92506117217fffffffffffffffffffffffffffffffffffffffffffffffffffffffffffffffff848461160e565b905092915050565b5f6117338261124f565b915061173e8361124f565b925082820261174c8161124f565b9150828204841483151761176357611762611583565b5b5092915050565b7f47616d65546f6b656e3a2063616c6c6572206e6f7420617574686f72697a65645f82015250565b5f61179e60208361116b565b91506117a98261176a565b602082019050919050565b5f6020820190508181035f8301526117cb81611792565b9050919050565b5f6060820190506117e55f8301866113ca565b6117f260208301856112f3565b6117ff60408301846112f3565b949350505050565b5f6118118261124f565b915061181c8361124f565b925082820190508082111561183457611833611583565b5b9291505056fea2646970667358221220377a220739696a238f2dd075fed59e0e1a4e03786263a83c04fbad80ea2cd44864736f6c634300081c0033",
  "linkReferences": {},
  "deployedLinkReferences": {},
  "immutableReferences": {},
  "inputSourceName": "project/contracts/GameToken.sol",
  "buildInfoId": "solc-0_8_28-9e519283eaa7f8ed576ba4af67ab5ea0d5adfd62"
}