{
  "_format": "hh3-artifact-1",
  "contractName": "Restaurant",
  "sourceName": "contracts/Restaurant.sol",
  "abi": [
    {
      "inputs": [
        {
          "internalType": "address",
          "name": "_gameToken",
          "type": "address"
        },
        {
          "internalType": "address",
          "name": "_farmLand",
          "type": "address"
        },
        {
          "internalType": "address",
          "name": "_animalFarm",
          "type": "address"
        }
      ],
      "stateMutability": "nonpayable",
      "type": "constructor"
    },
    {
      "inputs": [
        {
          "internalType": "address",
          "name": "owner",
          "type": "address"
        }
      ],
      "name": "OwnableInvalidOwner",
      "type": "error"
    },
    {
      "inputs": [
        {
          "internalType": "address",
          "name": "account",
          "type": "address"
        }
      ],
      "name": "OwnableUnauthorizedAccount",
      "type": "error"
    },
    {
      "anonymous": false,
      "inputs": [
        {
          "indexed": true,
          "internalType": "address",
          "name": "player",
          "type": "address"
        },
        {
          "indexed": false,
          "internalType": "uint256",
          "name": "dishId",
          "type": "uint256"
        },
        {
          "indexed": false,
          "internalType": "string",
          "name": "name",
          "type": "string"
        }
      ],
      "name": "DishCreated",
      "type": "event"
    },
    {
      "anonymous": false,
      "inputs": [
        {
          "indexed": true,
          "internalType": "address",
          "name": "player",
          "type": "address"
        },
        {
          "indexed": false,
          "internalType": "uint256",
          "name": "dishId",
          "type": "uint256"
        }
      ],
      "name": "DishRemoved",
      "type": "event"
    },
    {
      "anonymous": false,
      "inputs": [
        {
          "indexed": true,
          "internalType": "address",
          "name": "player",
          "type": "address"
        },
        {
          "indexed": false,
          "internalType": "uint256",
          "name": "dishId",
          "type": "uint256"
        },
        {
          "indexed": false,
          "internalType": "bool",
          "name": "isActive",
          "type": "bool"
        }
      ],
      "name": "DishToggled",
      "type": "event"
    },
    {
      "anonymous": false,
      "inputs": [
        {
          "indexed": true,
          "internalType": "address",
          "name": "previousOwner",
          "type": "address"
        },
        {
          "indexed": true,
          "internalType": "address",
          "name": "newOwner",
          "type": "address"
        }
      ],
      "name": "OwnershipTransferred",
      "type": "event"
    },
    {
      "anonymous": false,
      "inputs": [
        {
          "indexed": true,
          "internalType": "address",
          "name": "player",
          "type": "address"
        },
        {
          "indexed": false,
          "internalType": "uint256",
          "name": "dishId",
          "type": "uint256"
        },
        {
          "indexed": false,
          "internalType": "uint256",
          "name": "amount",
          "type": "uint256"
        }
      ],
      "name": "RevenueGenerated",
      "type": "event"
    },
    {
      "inputs": [],
      "name": "REVENUE_INTERVAL",
      "outputs": [
        {
          "internalType": "uint256",
          "name": "",
          "type": "uint256"
        }
      ],
      "stateMutability": "view",
      "type": "function"
    },
    {
      "inputs": [],
      "name": "animalFarm",
      "outputs": [
        {
          "internalType": "contract AnimalFarm",
          "name": "",
          "type": "address"
        }
      ],
      "stateMutability": "view",
      "type": "function"
    },
    {
      "inputs": [],
      "name": "collectAllRevenue",
      "outputs": [],
      "stateMutability": "nonpayable",
      "type": "function"
    },
    {
      "inputs": [
        {
          "internalType": "uint256",
          "name": "dishId",
          "type": "uint256"
        }
      ],
      "name": "collectDishRevenue",
      "outputs": [],
      "stateMutability": "nonpayable",
      "type": "function"
    },
    {
      "inputs": [
        {
          "internalType": "string",
          "name": "name",
          "type": "string"
        },
        {
          "internalType": "string",
          "name": "description",
          "type": "string"
        },
        {
          "internalType": "uint256",
          "name": "unitCost",
          "type": "uint256"
        },
        {
          "internalType": "uint256",
          "name": "revenueRate",
          "type": "uint256"
        }
      ],
      "name": "createDish",
      "outputs": [],
      "stateMutability": "nonpayable",
      "type": "function"
    },
    {
      "inputs": [
        {
          "internalType": "uint256",
          "name": "",
          "type": "uint256"
        }
      ],
      "name": "dishOwner",
      "outputs": [
        {
          "internalType": "address",
          "name": "",
          "type": "address"
        }
      ],
      "stateMutability": "view",
      "type": "function"
    },
    {
      "inputs": [
        {
          "internalType": "uint256",
          "name": "",
          "type": "uint256"
        }
      ],
      "name": "dishes",
      "outputs": [
        {
          "internalType": "string",
          "name": "name",
          "type": "string"
        },
        {
          "internalType": "string",
          "name": "description",
          "type": "string"
        },
        {
          "internalType": "uint256",
          "name": "unitCost",
          "type": "uint256"
        },
        {
          "internalType": "uint256",
          "name": "revenueRate",
          "type": "uint256"
        },
        {
          "internalType": "uint256",
          "name": "createdAt",
          "type": "uint256"
        },
        {
          "internalType": "bool",
          "name": "isActive",
          "type": "bool"
        },
        {
          "internalType": "uint256",
          "name": "lastRevenueTime",
          "type": "uint256"
        }
      ],
      "stateMutability": "view",
      "type": "function"
    },
    {
      "inputs": [],
      "name": "farmLand",
      "outputs": [
        {
          "internalType": "contract FarmLand",
          "name": "",
          "type": "address"
        }
      ],
      "stateMutability": "view",
      "type": "function"
    },
    {
      "inputs": [],
      "name": "gameToken",
      "outputs": [
        {
          "internalType": "contract GameToken",
          "name": "",
          "type": "address"
        }
      ],
      "stateMutability": "view",
      "type": "function"
    },
    {
      "inputs": [
        {
          "internalType": "uint256",
          "name": "dishId",
          "type": "uint256"
        }
      ],
      "name": "getDish",
      "outputs": [
        {
          "internalType": "string",
          "name": "name",
          "type": "string"
        },
        {
          "internalType": "string",
          "name": "description",
          "type": "string"
        },
        {
          "internalType": "uint256",
          "name": "unitCost",
          "type": "uint256"
        },
        {
          "internalType": "uint256",
          "name": "revenueRate",
          "type": "uint256"
        },
        {
          "internalType": "bool",
          "name": "isActive",
          "type": "bool"
        }
      ],
      "stateMutability": "view",
      "type": "function"
    },
    {
      "inputs": [
        {
          "internalType": "uint256",
          "name": "dishId",
          "type": "uint256"
        }
      ],
      "name": "getPendingRevenue",
      "outputs": [
        {
          "internalType": "uint256",
          "name": "pendingRevenue",
          "type": "uint256"
        },
        {
          "internalType": "uint256",
          "name": "timeUntilNextRevenue",
          "type": "uint256"
        }
      ],
      "stateMutability": "view",
      "type": "function"
    },
    {
      "inputs": [
        {
          "internalType": "address",
          "name": "player",
          "type": "address"
        }
      ],
      "name": "getPlayerDishes",
      "outputs": [
        {
          "internalType": "uint256[]",
          "name": "",
          "type": "uint256[]"
        }
      ],
      "stateMutability": "view",
      "type": "function"
    },
    {
      "inputs": [],
      "name": "nextDishId",
      "outputs": [
        {
          "internalType": "uint256",
          "name": "",
          "type": "uint256"
        }
      ],
      "stateMutability": "view",
      "type": "function"
    },
    {
      "inputs": [],
      "name": "owner",
      "outputs": [
        {
          "internalType": "address",
          "name": "",
          "type": "address"
        }
      ],
      "stateMutability": "view",
      "type": "function"
    },
    {
      "inputs": [
        {
          "internalType": "address",
          "name": "",
          "type": "address"
        },
        {
          "internalType": "uint256",
          "name": "",
          "type": "uint256"
        }
      ],
      "name": "playerDishes",
      "outputs": [
        {
          "internalType": "uint256",
          "name": "",
          "type": "uint256"
        }
      ],
      "stateMutability": "view",
      "type": "function"
    },
    {
      "inputs": [
        {
          "internalType": "uint256",
          "name": "dishId",
          "type": "uint256"
        }
      ],
      "name": "removeDish",
      "outputs": [],
      "stateMutability": "nonpayable",
      "type": "function"
    },
    {
      "inputs": [],
      "name": "renounceOwnership",
      "outputs": [],
      "stateMutability": "nonpayable",
      "type": "function"
    },
    {
      "inputs": [
        {
          "internalType": "uint256",
          "name": "dishId",
          "type": "uint256"
        }
      ],
      "name": "toggleDish",
      "outputs": [],
      "stateMutability": "nonpayable",
      "type": "function"
    },
    {
      "inputs": [
        {
          "internalType": "address",
          "name": "newOwner",
          "type": "address"
        }
      ],
      "name": "transferOwnership",
      "outputs": [],
      "stateMutability": "nonpayable",
      "type": "function"
    }
  ],
  "bytecode": "0x608060405234801561000f575f5ffd5b506040516125e63803806125e683398181016040528101906100319190610299565b335f73ffffffffffffffffffffffffffffffffffffffff168173ffffffffffffffffffffffffffffffffffffffff16036100a2575f6040517f1e4fbdf700000000000000000000000000000000000000000000000000000000815260040161009991906102f8565b60405180910390fd5b6100b18161017a60201b60201c565b508260015f6101000a81548173ffffffffffffffffffffffffffffffffffffffff021916908373ffffffffffffffffffffffffffffffffffffffff1602179055508160025f6101000a81548173ffffffffffffffffffffffffffffffffffffffff021916908373ffffffffffffffffffffffffffffffffffffffff1602179055508060035f6101000a81548173ffffffffffffffffffffffffffffffffffffffff021916908373ffffffffffffffffffffffffffffffffffffffff160217905550505050610311565b5f5f5f9054906101000a900473ffffffffffffffffffffffffffffffffffffffff169050815f5f6101000a81548173ffffffffffffffffffffffffffffffffffffffff021916908373ffffffffffffffffffffffffffffffffffffffff1602179055508173ffffffffffffffffffffffffffffffffffffffff168173ffffffffffffffffffffffffffffffffffffffff167f8be0079c531659141344cd1fd0a4f28419497f9722a3daafe3b4186f6b6457e060405160405180910390a35050565b5f5ffd5b5f73ffffffffffffffffffffffffffffffffffffffff82169050919050565b5f6102688261023f565b9050919050565b6102788161025e565b8114610282575f5ffd5b50565b5f815190506102938161026f565b92915050565b5f5f5f606084860312156102b0576102af61023b565b5b5f6102bd86828701610285565b93505060206102ce86828701610285565b92505060406102df86828701610285565b9150509250925092565b6102f28161025e565b82525050565b5f60208201905061030b5f8301846102e9565b92915050565b6122c88061031e5f395ff3fe608060405234801561000f575f5ffd5b506004361061011f575f3560e01c80638bab9814116100ab578063c50870611161006f578063c508706114610312578063cea4a37e1461032e578063d8fa00571461034a578063ec4d4b4f14610368578063f2fde38b146103865761011f565b80638bab98141461027c5780638da5cb5b146102b0578063b9f0fd5a146102ce578063c2b093ce146102d8578063c3dfdae6146102f45761011f565b806344238429116100f257806344238429146101c35780635c92f7dd146101f4578063622b55d114610224578063715018a6146102425780637950dd791461024c5761011f565b8063064fbd5a146101235780631190187214610159578063193ff9bb1461017757806334212c64146101a7575b5f5ffd5b61013d60048036038101906101389190611666565b6103a2565b604051610150979695949392919061172a565b60405180910390f35b6101616104f8565b60405161016e91906117a5565b60405180910390f35b610191600480360381019061018c9190611666565b6104fe565b60405161019e91906117fd565b60405180910390f35b6101c160048036038101906101bc9190611666565b61052e565b005b6101dd60048036038101906101d89190611666565b61069d565b6040516101eb929190611816565b60405180910390f35b61020e60048036038101906102099190611867565b6108c0565b60405161021b91906117a5565b60405180910390f35b61022c6108eb565b60405161023991906117a5565b60405180910390f35b61024a6108f0565b005b610266600480360381019061026191906118a5565b610903565b6040516102739190611987565b60405180910390f35b61029660048036038101906102919190611666565b610996565b6040516102a79594939291906119a7565b60405180910390f35b6102b8610b48565b6040516102c591906117fd565b60405180910390f35b6102d6610b6f565b005b6102f260048036038101906102ed9190611b32565b610c6a565b005b6102fc610e49565b6040516103099190611c29565b60405180910390f35b61032c60048036038101906103279190611666565b610e6e565b005b61034860048036038101906103439190611666565b610f78565b005b610352611220565b60405161035f9190611c62565b60405180910390f35b610370611245565b60405161037d9190611c9b565b60405180910390f35b6103a0600480360381019061039b91906118a5565b61126a565b005b6005602052805f5260405f205f91509050805f0180546103c190611ce1565b80601f01602080910402602001604051908101604052809291908181526020018280546103ed90611ce1565b80156104385780601f1061040f57610100808354040283529160200191610438565b820191905f5260205f20905b81548152906001019060200180831161041b57829003601f168201915b50505050509080600101805461044d90611ce1565b80601f016020809104026020016040519081016040528092919081815260200182805461047990611ce1565b80156104c45780601f1061049b576101008083540402835291602001916104c4565b820191905f5260205f20905b8154815290600101906020018083116104a757829003601f168201915b505050505090806002015490806003015490806004015490806005015f9054906101000a900460ff16908060060154905087565b60075481565b6006602052805f5260405f205f915054906101000a900473ffffffffffffffffffffffffffffffffffffffff1681565b3373ffffffffffffffffffffffffffffffffffffffff1660065f8381526020019081526020015f205f9054906101000a900473ffffffffffffffffffffffffffffffffffffffff1673ffffffffffffffffffffffffffffffffffffffff16146105cc576040517f08c379a00000000000000000000000000000000000000000000000000000000081526004016105c390611d5b565b60405180910390fd5b5f60055f8381526020019081526020015f209050806005015f9054906101000a900460ff166106035742816006018190555061060d565b61060c826112ee565b5b806005015f9054906101000a900460ff1615816005015f6101000a81548160ff0219169083151502179055503373ffffffffffffffffffffffffffffffffffffffff167f4ce8b582630d0f39fdebf765113ec5d8355602cf4b548524cd551ce6b47c4e0b83836005015f9054906101000a900460ff16604051610691929190611d79565b60405180910390a25050565b5f5f5f60055f8581526020019081526020015f206040518060e00160405290815f820180546106cb90611ce1565b80601f01602080910402602001604051908101604052809291908181526020018280546106f790611ce1565b80156107425780601f1061071957610100808354040283529160200191610742565b820191905f5260205f20905b81548152906001019060200180831161072557829003601f168201915b5050505050815260200160018201805461075b90611ce1565b80601f016020809104026020016040519081016040528092919081815260200182805461078790611ce1565b80156107d25780601f106107a9576101008083540402835291602001916107d2565b820191905f5260205f20905b8154815290600101906020018083116107b557829003601f168201915b50505050508152602001600282015481526020016003820154815260200160048201548152602001600582015f9054906101000a900460ff1615151515815260200160068201548152505090508060a00151610834575f5f92509250506108bb565b5f8160c00151426108459190611dcd565b9050603c81106108a5575f603c8261085d9190611e2d565b9050670de0b6b3a76400008184606001516108789190611e5d565b6108829190611e5d565b9450603c826108919190611e9e565b603c61089d9190611dcd565b9350506108b8565b5f935080603c6108b59190611dcd565b92505b50505b915091565b6004602052815f5260405f2081815481106108d9575f80fd5b905f5260205f20015f91509150505481565b603c81565b6108f861147b565b6109015f611502565b565b606060045f8373ffffffffffffffffffffffffffffffffffffffff1673ffffffffffffffffffffffffffffffffffffffff1681526020019081526020015f2080548060200260200160405190810160405280929190818152602001828054801561098a57602002820191905f5260205f20905b815481526020019060010190808311610976575b50505050509050919050565b6060805f5f5f5f60055f8881526020019081526020015f206040518060e00160405290815f820180546109c890611ce1565b80601f01602080910402602001604051908101604052809291908181526020018280546109f490611ce1565b8015610a3f5780601f10610a1657610100808354040283529160200191610a3f565b820191905f5260205f20905b815481529060010190602001808311610a2257829003601f168201915b50505050508152602001600182018054610a5890611ce1565b80601f0160208091040260200160405190810160405280929190818152602001828054610a8490611ce1565b8015610acf5780601f10610aa657610100808354040283529160200191610acf565b820191905f5260205f20905b815481529060010190602001808311610ab257829003601f168201915b50505050508152602001600282015481526020016003820154815260200160048201548152602001600582015f9054906101000a900460ff161515151581526020016006820154815250509050805f01518160200151826040015183606001518460a00151955095509550955095505091939590929450565b5f5f5f9054906101000a900473ffffffffffffffffffffffffffffffffffffffff16905090565b5f60045f3373ffffffffffffffffffffffffffffffffffffffff1673ffffffffffffffffffffffffffffffffffffffff1681526020019081526020015f20805480602002602001604051908101604052809291908181526020018280548015610bf557602002820191905f5260205f20905b815481526020019060010190808311610be1575b505050505090505f5f90505b8151811015610c66575f828281518110610c1e57610c1d611ece565b5b6020026020010151905060055f8281526020019081526020015f206005015f9054906101000a900460ff1615610c5857610c57816112ee565b5b508080600101915050610c01565b5050565b5f60075f815480929190610c7d90611efb565b9190505590505f4290506040518060e001604052808781526020018681526020018581526020018481526020018281526020015f151581526020018281525060055f8481526020019081526020015f205f820151815f019081610ce091906120d9565b506020820151816001019081610cf691906120d9565b5060408201518160020155606082015181600301556080820151816004015560a0820151816005015f6101000a81548160ff02191690831515021790555060c082015181600601559050503360065f8481526020019081526020015f205f6101000a81548173ffffffffffffffffffffffffffffffffffffffff021916908373ffffffffffffffffffffffffffffffffffffffff16021790555060045f3373ffffffffffffffffffffffffffffffffffffffff1673ffffffffffffffffffffffffffffffffffffffff1681526020019081526020015f2082908060018154018082558091505060019003905f5260205f20015f90919091909150553373ffffffffffffffffffffffffffffffffffffffff167faa7093dccafa96da30e9fb276206a9363e0dd905d0eeae7935d295ee846a37a98388604051610e399291906121a8565b60405180910390a2505050505050565b60015f9054906101000a900473ffffffffffffffffffffffffffffffffffffffff1681565b3373ffffffffffffffffffffffffffffffffffffffff1660065f8381526020019081526020015f205f9054906101000a900473ffffffffffffffffffffffffffffffffffffffff1673ffffffffffffffffffffffffffffffffffffffff1614610f0c576040517f08c379a0000000000000000000000000000000000000000000000000000000008152600401610f0390611d5b565b60405180910390fd5b60055f8281526020019081526020015f206005015f9054906101000a900460ff16610f6c576040517f08c379a0000000000000000000000000000000000000000000000000000000008152600401610f6390612220565b60405180910390fd5b610f75816112ee565b50565b3373ffffffffffffffffffffffffffffffffffffffff1660065f8381526020019081526020015f205f9054906101000a900473ffffffffffffffffffffffffffffffffffffffff1673ffffffffffffffffffffffffffffffffffffffff1614611016576040517f08c379a000000000000000000000000000000000000000000000000000000000815260040161100d90611d5b565b60405180910390fd5b60055f8281526020019081526020015f206005015f9054906101000a900460ff161561104657611045816112ee565b5b5f60045f3373ffffffffffffffffffffffffffffffffffffffff1673ffffffffffffffffffffffffffffffffffffffff1681526020019081526020015f2090505f5f90505b818054905081101561113a57828282815481106110ab576110aa611ece565b5b905f5260205f2001540361112d5781600183805490506110cb9190611dcd565b815481106110dc576110db611ece565b5b905f5260205f2001548282815481106110f8576110f7611ece565b5b905f5260205f200181905550818054806111155761111461223e565b5b600190038181905f5260205f20015f9055905561113a565b808060010191505061108b565b5060055f8381526020019081526020015f205f5f82015f61115b91906115ca565b600182015f61116a91906115ca565b600282015f9055600382015f9055600482015f9055600582015f6101000a81549060ff0219169055600682015f9055505060065f8381526020019081526020015f205f6101000a81549073ffffffffffffffffffffffffffffffffffffffff02191690553373ffffffffffffffffffffffffffffffffffffffff167f50359e49d838cff8b82a901b652831c064eb0bcdf0803de004007c1f44f606268360405161121491906117a5565b60405180910390a25050565b60025f9054906101000a900473ffffffffffffffffffffffffffffffffffffffff1681565b60035f9054906101000a900473ffffffffffffffffffffffffffffffffffffffff1681565b61127261147b565b5f73ffffffffffffffffffffffffffffffffffffffff168173ffffffffffffffffffffffffffffffffffffffff16036112e2575f6040517f1e4fbdf70000000000000000000000000000000000000000000000000000000081526004016112d991906117fd565b60405180910390fd5b6112eb81611502565b50565b5f60055f8381526020019081526020015f2090505f60065f8481526020019081526020015f205f9054906101000a900473ffffffffffffffffffffffffffffffffffffffff1690505f8260060154426113479190611dcd565b9050603c8110611475575f603c8261135f9190611e2d565b90505f670de0b6b3a764000082866003015461137b9190611e5d565b6113859190611e5d565b90504285600601819055505f8111156114725760015f9054906101000a900473ffffffffffffffffffffffffffffffffffffffff1673ffffffffffffffffffffffffffffffffffffffff166340c10f1985836040518363ffffffff1660e01b81526004016113f492919061226b565b5f604051808303815f87803b15801561140b575f5ffd5b505af115801561141d573d5f5f3e3d5ffd5b505050508373ffffffffffffffffffffffffffffffffffffffff167fe15ac7042d8e9a41d0f641b123fa306fe7c35d5df812dba320476718380e27858783604051611469929190611816565b60405180910390a25b50505b50505050565b6114836115c3565b73ffffffffffffffffffffffffffffffffffffffff166114a1610b48565b73ffffffffffffffffffffffffffffffffffffffff1614611500576114c46115c3565b6040517f118cdaa70000000000000000000000000000000000000000000000000000000081526004016114f791906117fd565b60405180910390fd5b565b5f5f5f9054906101000a900473ffffffffffffffffffffffffffffffffffffffff169050815f5f6101000a81548173ffffffffffffffffffffffffffffffffffffffff021916908373ffffffffffffffffffffffffffffffffffffffff1602179055508173ffffffffffffffffffffffffffffffffffffffff168173ffffffffffffffffffffffffffffffffffffffff167f8be0079c531659141344cd1fd0a4f28419497f9722a3daafe3b4186f6b6457e060405160405180910390a35050565b5f33905090565b5080546115d690611ce1565b5f825580601f106115e75750611604565b601f0160209004905f5260205f20908101906116039190611607565b5b50565b5b8082111561161e575f815f905550600101611608565b5090565b5f604051905090565b5f5ffd5b5f5ffd5b5f819050919050565b61164581611633565b811461164f575f5ffd5b50565b5f813590506116608161163c565b92915050565b5f6020828403121561167b5761167a61162b565b5b5f61168884828501611652565b91505092915050565b5f81519050919050565b5f82825260208201905092915050565b8281835e5f83830152505050565b5f601f19601f8301169050919050565b5f6116d382611691565b6116dd818561169b565b93506116ed8185602086016116ab565b6116f6816116b9565b840191505092915050565b61170a81611633565b82525050565b5f8115159050919050565b61172481611710565b82525050565b5f60e0820190508181035f830152611742818a6116c9565b9050818103602083015261175681896116c9565b90506117656040830188611701565b6117726060830187611701565b61177f6080830186611701565b61178c60a083018561171b565b61179960c0830184611701565b98975050505050505050565b5f6020820190506117b85f830184611701565b92915050565b5f73ffffffffffffffffffffffffffffffffffffffff82169050919050565b5f6117e7826117be565b9050919050565b6117f7816117dd565b82525050565b5f6020820190506118105f8301846117ee565b92915050565b5f6040820190506118295f830185611701565b6118366020830184611701565b9392505050565b611846816117dd565b8114611850575f5ffd5b50565b5f813590506118618161183d565b92915050565b5f5f6040838503121561187d5761187c61162b565b5b5f61188a85828601611853565b925050602061189b85828601611652565b9150509250929050565b5f602082840312156118ba576118b961162b565b5b5f6118c784828501611853565b91505092915050565b5f81519050919050565b5f82825260208201905092915050565b5f819050602082019050919050565b61190281611633565b82525050565b5f61191383836118f9565b60208301905092915050565b5f602082019050919050565b5f611935826118d0565b61193f81856118da565b935061194a836118ea565b805f5b8381101561197a5781516119618882611908565b975061196c8361191f565b92505060018101905061194d565b5085935050505092915050565b5f6020820190508181035f83015261199f818461192b565b905092915050565b5f60a0820190508181035f8301526119bf81886116c9565b905081810360208301526119d381876116c9565b90506119e26040830186611701565b6119ef6060830185611701565b6119fc608083018461171b565b9695505050505050565b5f5ffd5b5f5ffd5b7f4e487b71000000000000000000000000000000000000000000000000000000005f52604160045260245ffd5b611a44826116b9565b810181811067ffffffffffffffff82111715611a6357611a62611a0e565b5b80604052505050565b5f611a75611622565b9050611a818282611a3b565b919050565b5f67ffffffffffffffff821115611aa057611a9f611a0e565b5b611aa9826116b9565b9050602081019050919050565b828183375f83830152505050565b5f611ad6611ad184611a86565b611a6c565b905082815260208101848484011115611af257611af1611a0a565b5b611afd848285611ab6565b509392505050565b5f82601f830112611b1957611b18611a06565b5b8135611b29848260208601611ac4565b91505092915050565b5f5f5f5f60808587031215611b4a57611b4961162b565b5b5f85013567ffffffffffffffff811115611b6757611b6661162f565b5b611b7387828801611b05565b945050602085013567ffffffffffffffff811115611b9457611b9361162f565b5b611ba087828801611b05565b9350506040611bb187828801611652565b9250506060611bc287828801611652565b91505092959194509250565b5f819050919050565b5f611bf1611bec611be7846117be565b611bce565b6117be565b9050919050565b5f611c0282611bd7565b9050919050565b5f611c1382611bf8565b9050919050565b611c2381611c09565b82525050565b5f602082019050611c3c5f830184611c1a565b92915050565b5f611c4c82611bf8565b9050919050565b611c5c81611c42565b82525050565b5f602082019050611c755f830184611c53565b92915050565b5f611c8582611bf8565b9050919050565b611c9581611c7b565b82525050565b5f602082019050611cae5f830184611c8c565b92915050565b7f4e487b71000000000000000000000000000000000000000000000000000000005f52602260045260245ffd5b5f6002820490506001821680611cf857607f821691505b602082108103611d0b57611d0a611cb4565b5b50919050565b7f52657374617572616e743a206e6f742064697368206f776e65720000000000005f82015250565b5f611d45601a8361169b565b9150611d5082611d11565b602082019050919050565b5f6020820190508181035f830152611d7281611d39565b9050919050565b5f604082019050611d8c5f830185611701565b611d99602083018461171b565b9392505050565b7f4e487b71000000000000000000000000000000000000000000000000000000005f52601160045260245ffd5b5f611dd782611633565b9150611de283611633565b9250828203905081811115611dfa57611df9611da0565b5b92915050565b7f4e487b71000000000000000000000000000000000000000000000000000000005f52601260045260245ffd5b5f611e3782611633565b9150611e4283611633565b925082611e5257611e51611e00565b5b828204905092915050565b5f611e6782611633565b9150611e7283611633565b9250828202611e8081611633565b91508282048414831517611e9757611e96611da0565b5b5092915050565b5f611ea882611633565b9150611eb383611633565b925082611ec357611ec2611e00565b5b828206905092915050565b7f4e487b71000000000000000000000000000000000000000000000000000000005f52603260045260245ffd5b5f611f0582611633565b91507fffffffffffffffffffffffffffffffffffffffffffffffffffffffffffffffff8203611f3757611f36611da0565b5b600182019050919050565b5f819050815f5260205f209050919050565b5f6020601f8301049050919050565b5f82821b905092915050565b5f60088302611f9e7fffffffffffffffffffffffffffffffffffffffffffffffffffffffffffffffff82611f63565b611fa88683611f63565b95508019841693508086168417925050509392505050565b5f611fda611fd5611fd084611633565b611bce565b611633565b9050919050565b5f819050919050565b611ff383611fc0565b612007611fff82611fe1565b848454611f6f565b825550505050565b5f5f905090565b61201e61200f565b612029818484611fea565b505050565b5b8181101561204c576120415f82612016565b60018101905061202f565b5050565b601f8211156120915761206281611f42565b61206b84611f54565b8101602085101561207a578190505b61208e61208685611f54565b83018261202e565b50505b505050565b5f82821c905092915050565b5f6120b15f1984600802612096565b1980831691505092915050565b5f6120c983836120a2565b9150826002028217905092915050565b6120e282611691565b67ffffffffffffffff8111156120fb576120fa611a0e565b5b6121058254611ce1565b612110828285612050565b5f60209050601f831160018114612141575f841561212f578287015190505b61213985826120be565b8655506121a0565b601f19841661214f86611f42565b5f5b8281101561217657848901518255600182019150602085019450602081019050612151565b86831015612193578489015161218f601f8916826120a2565b8355505b6001600288020188555050505b505050505050565b5f6040820190506121bb5f830185611701565b81810360208301526121cd81846116c9565b90509392505050565b7f52657374617572616e743a2064697368206e6f742061637469766500000000005f82015250565b5f61220a601b8361169b565b9150612215826121d6565b602082019050919050565b5f6020820190508181035f830152612237816121fe565b9050919050565b7f4e487b71000000000000000000000000000000000000000000000000000000005f52603160045260245ffd5b5f60408201905061227e5f8301856117ee565b61228b6020830184611701565b939250505056fea264697066735822122049319df3f740f3240b154449f7c4b6a9a40f6ff91d919468d70fbc5e0ef3461f64736f6c634300081c0033",
  "linkReferences": {},
  "deployedLinkReferences": {},
  "immutableReferences": {},
  "inputSourceName": "project/contracts/Restaurant.sol",
  "buildInfoId": "solc-0_8_28-9e519283eaa7f8ed576ba4af67ab5ea0d5adfd62"
}