{
  "_format": "hh3-artifact-1",
  "contractName": "AnimalFarm",
  "sourceName": "contracts/AnimalFarm.sol",
  "abi": [
    {
      "inputs": [
        {
          "internalType": "address",
          "name": "_gameToken",
          "type": "address"
        }
      ],
      "stateMutability": "nonpayable",
      "type": "constructor"
    },
    {
      "inputs": [
        {
          "internalType": "address",
          "name": "owner",
          "type": "address"
        }
      ],
      "name": "OwnableInvalidOwner",
      "type": "error"
    },
    {
      "inputs": [
        {
          "internalType": "address",
          "name": "account",
          "type": "address"
        }
      ],
      "name": "OwnableUnauthorizedAccount",
      "type": "error"
    },
    {
      "anonymous": false,
      "inputs": [
        {
          "indexed": true,
          "internalType": "address",
          "name": "player",
          "type": "address"
        },
        {
          "indexed": false,
          "internalType": "uint256",
          "name": "animalId",
          "type": "uint256"
        },
        {
          "indexed": false,
          "internalType": "enum AnimalFarm.AnimalType",
          "name": "animalType",
          "type": "uint8"
        }
      ],
      "name": "AnimalPurchased",
      "type": "event"
    },
    {
      "anonymous": false,
      "inputs": [
        {
          "indexed": true,
          "internalType": "address",
          "name": "previousOwner",
          "type": "address"
        },
        {
          "indexed": true,
          "internalType": "address",
          "name": "newOwner",
          "type": "address"
        }
      ],
      "name": "OwnershipTransferred",
      "type": "event"
    },
    {
      "anonymous": false,
      "inputs": [
        {
          "indexed": true,
          "internalType": "address",
          "name": "player",
          "type": "address"
        },
        {
          "indexed": false,
          "internalType": "uint256",
          "name": "animalId",
          "type": "uint256"
        },
        {
          "indexed": false,
          "internalType": "enum AnimalFarm.ProductType",
          "name": "productType",
          "type": "uint8"
        },
        {
          "indexed": false,
          "internalType": "uint256",
          "name": "quantity",
          "type": "uint256"
        }
      ],
      "name": "ProductCollected",
      "type": "event"
    },
    {
      "inputs": [
        {
          "internalType": "enum AnimalFarm.AnimalType",
          "name": "",
          "type": "uint8"
        }
      ],
      "name": "animalData",
      "outputs": [
        {
          "internalType": "uint256",
          "name": "price",
          "type": "uint256"
        },
        {
          "internalType": "uint256",
          "name": "productionTime",
          "type": "uint256"
        },
        {
          "internalType": "enum AnimalFarm.ProductType",
          "name": "productType",
          "type": "uint8"
        },
        {
          "internalType": "string",
          "name": "name",
          "type": "string"
        }
      ],
      "stateMutability": "view",
      "type": "function"
    },
    {
      "inputs": [
        {
          "internalType": "address",
          "name": "",
          "type": "address"
        },
        {
          "internalType": "enum AnimalFarm.ProductType",
          "name": "",
          "type": "uint8"
        }
      ],
      "name": "animalProducts",
      "outputs": [
        {
          "internalType": "uint256",
          "name": "",
          "type": "uint256"
        }
      ],
      "stateMutability": "view",
      "type": "function"
    },
    {
      "inputs": [
        {
          "internalType": "uint256",
          "name": "",
          "type": "uint256"
        }
      ],
      "name": "animals",
      "outputs": [
        {
          "internalType": "enum AnimalFarm.AnimalType",
          "name": "animalType",
          "type": "uint8"
        },
        {
          "internalType": "uint256",
          "name": "purchaseTime",
          "type": "uint256"
        },
        {
          "internalType": "uint256",
          "name": "lastProductionTime",
          "type": "uint256"
        },
        {
          "internalType": "address",
          "name": "owner",
          "type": "address"
        },
        {
          "internalType": "bool",
          "name": "active",
          "type": "bool"
        }
      ],
      "stateMutability": "view",
      "type": "function"
    },
    {
      "inputs": [
        {
          "internalType": "enum AnimalFarm.AnimalType",
          "name": "animalType",
          "type": "uint8"
        }
      ],
      "name": "buyAnimal",
      "outputs": [],
      "stateMutability": "nonpayable",
      "type": "function"
    },
    {
      "inputs": [
        {
          "internalType": "uint256",
          "name": "animalId",
          "type": "uint256"
        }
      ],
      "name": "collectProduct",
      "outputs": [],
      "stateMutability": "nonpayable",
      "type": "function"
    },
    {
      "inputs": [],
      "name": "gameToken",
      "outputs": [
        {
          "internalType": "contract GameToken",
          "name": "",
          "type": "address"
        }
      ],
      "stateMutability": "view",
      "type": "function"
    },
    {
      "inputs": [
        {
          "internalType": "address",
          "name": "player",
          "type": "address"
        },
        {
          "internalType": "enum AnimalFarm.ProductType",
          "name": "productType",
          "type": "uint8"
        }
      ],
      "name": "getAnimalProducts",
      "outputs": [
        {
          "internalType": "uint256",
          "name": "",
          "type": "uint256"
        }
      ],
      "stateMutability": "view",
      "type": "function"
    },
    {
      "inputs": [
        {
          "internalType": "uint256",
          "name": "animalId",
          "type": "uint256"
        }
      ],
      "name": "getAnimalStatus",
      "outputs": [
        {
          "internalType": "bool",
          "name": "canProduce",
          "type": "bool"
        },
        {
          "internalType": "uint256",
          "name": "timeUntilReady",
          "type": "uint256"
        },
        {
          "internalType": "uint256",
          "name": "productsReady",
          "type": "uint256"
        }
      ],
      "stateMutability": "view",
      "type": "function"
    },
    {
      "inputs": [
        {
          "internalType": "address",
          "name": "player",
          "type": "address"
        }
      ],
      "name": "getPlayerAnimals",
      "outputs": [
        {
          "internalType": "uint256[]",
          "name": "",
          "type": "uint256[]"
        }
      ],
      "stateMutability": "view",
      "type": "function"
    },
    {
      "inputs": [],
      "name": "nextAnimalId",
      "outputs": [
        {
          "internalType": "uint256",
          "name": "",
          "type": "uint256"
        }
      ],
      "stateMutability": "view",
      "type": "function"
    },
    {
      "inputs": [],
      "name": "owner",
      "outputs": [
        {
          "internalType": "address",
          "name": "",
          "type": "address"
        }
      ],
      "stateMutability": "view",
      "type": "function"
    },
    {
      "inputs": [
        {
          "internalType": "address",
          "name": "",
          "type": "address"
        },
        {
          "internalType": "uint256",
          "name": "",
          "type": "uint256"
        }
      ],
      "name": "playerAnimals",
      "outputs": [
        {
          "internalType": "uint256",
          "name": "",
          "type": "uint256"
        }
      ],
      "stateMutability": "view",
      "type": "function"
    },
    {
      "inputs": [],
      "name": "renounceOwnership",
      "outputs": [],
      "stateMutability": "nonpayable",
      "type": "function"
    },
    {
      "inputs": [
        {
          "internalType": "address",
          "name": "newOwner",
          "type": "address"
        }
      ],
      "name": "transferOwnership",
      "outputs": [],
      "stateMutability": "nonpayable",
      "type": "function"
    },
    {
      "inputs": [
        {
          "internalType": "address",
          "name": "player",
          "type": "address"
        },
        {
          "internalType": "enum AnimalFarm.ProductType",
          "name": "productType",
          "type": "uint8"
        },
        {
          "internalType": "uint256",
          "name": "quantity",
          "type": "uint256"
        }
      ],
      "name": "useProducts",
      "outputs": [],
      "stateMutability": "nonpayable",
      "type": "function"
    }
  ],
  "bytecode": "0x608060405234801561000f575f5ffd5b506040516114fd3803806114fd83398101604081905261002e9161024f565b338061005357604051631e4fbdf760e01b81525f600482015260240160405180910390fd5b61005c81610200565b50600180546001600160a01b0319166001600160a01b0383161790556040805160808101825268056bc75e2d631000008152601e60208201529081015f8152604080518082019091526003815262436f7760e81b6020828101919091529091015260055f8060018111156100d2576100d261027c565b81526020019081526020015f205f820151815f0155602082015181600101556040820151816002015f6101000a81548160ff0219169083600181111561011a5761011a61027c565b0217905550606082015160038201906101339082610328565b5050604080516080810182526802b5e3af16b1880000815260146020820152915081016001815260408051808201909152600781526621b434b1b5b2b760c91b6020828101919091529091015260055f6001808111156101955761019561027c565b81526020019081526020015f205f820151815f0155602082015181600101556040820151816002015f6101000a81548160ff021916908360018111156101dd576101dd61027c565b0217905550606082015160038201906101f69082610328565b50905050506103e2565b5f80546001600160a01b038381166001600160a01b0319831681178455604051919092169283917f8be0079c531659141344cd1fd0a4f28419497f9722a3daafe3b4186f6b6457e09190a35050565b5f6020828403121561025f575f5ffd5b81516001600160a01b0381168114610275575f5ffd5b9392505050565b634e487b7160e01b5f52602160045260245ffd5b634e487b7160e01b5f52604160045260245ffd5b600181811c908216806102b857607f821691505b6020821081036102d657634e487b7160e01b5f52602260045260245ffd5b50919050565b601f82111561032357805f5260205f20601f840160051c810160208510156103015750805b601f840160051c820191505b81811015610320575f815560010161030d565b50505b505050565b81516001600160401b0381111561034157610341610290565b6103558161034f84546102a4565b846102dc565b6020601f821160018114610387575f83156103705750848201515b5f19600385901b1c1916600184901b178455610320565b5f84815260208120601f198516915b828110156103b65787850151825560209485019460019092019101610396565b50848210156103d357868401515f19600387901b60f8161c191681555b50505050600190811b01905550565b61110e806103ef5f395ff3fe608060405234801561000f575f5ffd5b50600436106100f0575f3560e01c80638da5cb5b11610093578063c10ed28911610063578063c10ed28914610272578063c3dfdae614610285578063dda1775414610298578063f2fde38b146102ab575f5ffd5b80638da5cb5b146101bd578063998dd3ca146101e1578063ba622ddc1461023f578063bf33150f1461025f575f5ffd5b806351117e92116100ce57806351117e9214610161578063715018a6146101995780638779f3a3146101a15780638c26c754146101aa575f5ffd5b80632f7018a6146100f4578063468dbf9814610129578063472e7e611461013e575b5f5ffd5b610107610102366004610dca565b6102be565b6040805193151584526020840192909252908201526060015b60405180910390f35b61013c610137366004610dca565b6104c2565b005b61015161014c366004610ded565b6107d1565b6040516101209493929190610e3f565b61018b61016f366004610ead565b600460209081525f928352604080842090915290825290205481565b604051908152602001610120565b61013c610885565b61018b60065481565b61013c6101b8366004610ee2565b610898565b5f546001600160a01b03165b6040516001600160a01b039091168152602001610120565b61022e6101ef366004610dca565b600260208190525f9182526040909120805460018201549282015460039092015460ff9182169392916001600160a01b03821691600160a01b90041685565b604051610120959493929190610f1e565b61025261024d366004610f57565b61099b565b6040516101209190610f70565b61018b61026d366004610fb2565b610a04565b61018b610280366004610ead565b610a2f565b6001546101c9906001600160a01b031681565b61013c6102a6366004610ded565b610a81565b61013c6102b9366004610f57565b610d12565b5f81815260026020526040808220815160a081019092528054839283928392829060ff1660018111156102f3576102f3610e0f565b600181111561030457610304610e0f565b81526001828101546020830152600283015460408301526003909201546001600160a01b0381166060830152600160a01b900460ff16151560809091015281519192505f9160059183919081111561035e5761035e610e0f565b600181111561036f5761036f610e0f565b81526020019081526020015f206040518060800160405290815f820154815260200160018201548152602001600282015f9054906101000a900460ff1660018111156103bd576103bd610e0f565b60018111156103ce576103ce610e0f565b81526020016003820180546103e290610fda565b80601f016020809104026020016040519081016040528092919081815260200182805461040e90610fda565b80156104595780601f1061043057610100808354040283529160200191610459565b820191905f5260205f20905b81548152906001019060200180831161043c57829003601f168201915b50505050508152505090505f8260400151426104759190611026565b90508160200151811061049f576020820151600196505f95506104989082611039565b93506104b8565b5f95508082602001516104b29190611026565b94505f93505b5050509193909250565b5f81815260026020526040902060038101546001600160a01b031633146105305760405162461bcd60e51b815260206004820152601c60248201527f416e696d616c4661726d3a206e6f7420616e696d616c206f776e65720000000060448201526064015b60405180910390fd5b6003810154600160a01b900460ff1661058b5760405162461bcd60e51b815260206004820152601d60248201527f416e696d616c4661726d3a20616e696d616c206e6f74206163746976650000006044820152606401610527565b80545f90600590829060ff1660018111156105a8576105a8610e0f565b60018111156105b9576105b9610e0f565b81526020019081526020015f206040518060800160405290815f820154815260200160018201548152602001600282015f9054906101000a900460ff16600181111561060757610607610e0f565b600181111561061857610618610e0f565b815260200160038201805461062c90610fda565b80601f016020809104026020016040519081016040528092919081815260200182805461065890610fda565b80156106a35780601f1061067a576101008083540402835291602001916106a3565b820191905f5260205f20905b81548152906001019060200180831161068657829003601f168201915b50505050508152505090505f8260020154426106bf9190611026565b905081602001518110156107155760405162461bcd60e51b815260206004820152601d60248201527f416e696d616c4661726d3a2070726f64756374206e6f742072656164790000006044820152606401610527565b5f8260200151826107269190611039565b426002860155335f90815260046020526040808220908601519293508392909190600181111561075857610758610e0f565b600181111561076957610769610e0f565b81526020019081526020015f205f8282546107849190611058565b9091555050604080840151905133917f8b883bc3ce9be66e805979832dddf48e209018c07ec476fc0fbf5764e5b0f908916107c2918991869061106b565b60405180910390a25050505050565b60056020525f908152604090208054600182015460028301546003840180549394929360ff909216929161080490610fda565b80601f016020809104026020016040519081016040528092919081815260200182805461083090610fda565b801561087b5780601f106108525761010080835404028352916020019161087b565b820191905f5260205f20905b81548152906001019060200180831161085e57829003601f168201915b5050505050905084565b61088d610d4f565b6108965f610d7b565b565b6001600160a01b0383165f90815260046020526040812082918460018111156108c3576108c3610e0f565b60018111156108d4576108d4610e0f565b81526020019081526020015f2054101561093a5760405162461bcd60e51b815260206004820152602160248201527f416e696d616c4661726d3a20696e73756666696369656e742070726f647563746044820152607360f81b6064820152608401610527565b6001600160a01b0383165f908152600460205260408120829184600181111561096557610965610e0f565b600181111561097657610976610e0f565b81526020019081526020015f205f8282546109919190611026565b9091555050505050565b6001600160a01b0381165f908152600360209081526040918290208054835181840281018401909452808452606093928301828280156109f857602002820191905f5260205f20905b8154815260200190600101908083116109e4575b50505050509050919050565b6003602052815f5260405f208181548110610a1d575f80fd5b905f5260205f20015f91509150505481565b6001600160a01b0382165f90815260046020526040812081836001811115610a5957610a59610e0f565b6001811115610a6a57610a6a610e0f565b81526020019081526020015f205490505b92915050565b5f60055f836001811115610a9757610a97610e0f565b6001811115610aa857610aa8610e0f565b8152602081019190915260409081015f205460015491516370a0823160e01b815233600482015290925082916001600160a01b0316906370a0823190602401602060405180830381865afa158015610b02573d5f5f3e3d5ffd5b505050506040513d601f19601f82011682018060405250810190610b26919061108c565b1015610b745760405162461bcd60e51b815260206004820152601e60248201527f416e696d616c4661726d3a20696e73756666696369656e742066756e647300006044820152606401610527565b600154604051632770a7eb60e21b8152336004820152602481018390526001600160a01b0390911690639dc29fac906044015f604051808303815f87803b158015610bbd575f5ffd5b505af1158015610bcf573d5f5f3e3d5ffd5b5050600680545f9350915082610be4836110a3565b9190505590505f4290506040518060a00160405280856001811115610c0b57610c0b610e0f565b815260208082018490526040808301859052336060840152600160809093018390525f868152600290925290208251815491929091839160ff19909116908381811115610c5a57610c5a610e0f565b021790555060208281015160018084019190915560408085015160028501556060850151600394850180546080909701511515600160a01b026001600160a81b03199097166001600160a01b039092169190911795909517909455335f8181529383528484208054928301815584529190922090910184905590517f0481c7f88c0a1d3a4a376901b3ceb54b021467245bb442a494daee992b72d54990610d0490859088906110bb565b60405180910390a250505050565b610d1a610d4f565b6001600160a01b038116610d4357604051631e4fbdf760e01b81525f6004820152602401610527565b610d4c81610d7b565b50565b5f546001600160a01b031633146108965760405163118cdaa760e01b8152336004820152602401610527565b5f80546001600160a01b038381166001600160a01b0319831681178455604051919092169283917f8be0079c531659141344cd1fd0a4f28419497f9722a3daafe3b4186f6b6457e09190a35050565b5f60208284031215610dda575f5ffd5b5035919050565b60028110610d4c575f5ffd5b5f60208284031215610dfd575f5ffd5b8135610e0881610de1565b9392505050565b634e487b7160e01b5f52602160045260245ffd5b60028110610d4c57634e487b7160e01b5f52602160045260245ffd5b848152836020820152610e5183610e23565b826040820152608060608201525f8251806080840152806020850160a085015e5f60a0828501015260a0601f19601f83011684010191505095945050505050565b80356001600160a01b0381168114610ea8575f5ffd5b919050565b5f5f60408385031215610ebe575f5ffd5b610ec783610e92565b91506020830135610ed781610de1565b809150509250929050565b5f5f5f60608486031215610ef4575f5ffd5b610efd84610e92565b92506020840135610f0d81610de1565b929592945050506040919091013590565b60a08101610f2b87610e23565b958152602081019490945260408401929092526001600160a01b03166060830152151560809091015290565b5f60208284031215610f67575f5ffd5b610e0882610e92565b602080825282518282018190525f918401906040840190835b81811015610fa7578351835260209384019390920191600101610f89565b509095945050505050565b5f5f60408385031215610fc3575f5ffd5b610fcc83610e92565b946020939093013593505050565b600181811c90821680610fee57607f821691505b60208210810361100c57634e487b7160e01b5f52602260045260245ffd5b50919050565b634e487b7160e01b5f52601160045260245ffd5b81810381811115610a7b57610a7b611012565b5f8261105357634e487b7160e01b5f52601260045260245ffd5b500490565b80820180821115610a7b57610a7b611012565b8381526060810161107b84610e23565b602082019390935260400152919050565b5f6020828403121561109c575f5ffd5b5051919050565b5f600182016110b4576110b4611012565b5060010190565b828152604081016110cb83610e23565b826020830152939250505056fea264697066735822122086f6f366bb470d88729d3ccae5de2c4c3a9d3bc7d692e57bf3f6e4ad758a6d7f64736f6c634300081c0033",
  "linkReferences": {},
  "deployedLinkReferences": {},
  "immutableReferences": {},
  "inputSourceName": "project/contracts/AnimalFarm.sol",
  "buildInfoId": "solc-0_8_28-6d1043c6f78397aff8b1ba1f48e73d0f2f4de85e"
}