{
  "_format": "hh3-artifact-1",
  "contractName": "FarmLand",
  "sourceName": "contracts/FarmLand.sol",
  "abi": [
    {
      "inputs": [
        {
          "internalType": "address",
          "name": "_gameToken",
          "type": "address"
        }
      ],
      "stateMutability": "nonpayable",
      "type": "constructor"
    },
    {
      "inputs": [
        {
          "internalType": "address",
          "name": "owner",
          "type": "address"
        }
      ],
      "name": "OwnableInvalidOwner",
      "type": "error"
    },
    {
      "inputs": [
        {
          "internalType": "address",
          "name": "account",
          "type": "address"
        }
      ],
      "name": "OwnableUnauthorizedAccount",
      "type": "error"
    },
    {
      "anonymous": false,
      "inputs": [
        {
          "indexed": true,
          "internalType": "address",
          "name": "player",
          "type": "address"
        },
        {
          "indexed": false,
          "internalType": "uint256",
          "name": "plotId",
          "type": "uint256"
        },
        {
          "indexed": false,
          "internalType": "enum FarmLand.CropType",
          "name": "cropType",
          "type": "uint8"
        }
      ],
      "name": "CropHarvested",
      "type": "event"
    },
    {
      "anonymous": false,
      "inputs": [
        {
          "indexed": true,
          "internalType": "address",
          "name": "player",
          "type": "address"
        },
        {
          "indexed": false,
          "internalType": "enum FarmLand.CropType",
          "name": "cropType",
          "type": "uint8"
        },
        {
          "indexed": false,
          "internalType": "uint256",
          "name": "cropsUsed",
          "type": "uint256"
        },
        {
          "indexed": false,
          "internalType": "uint256",
          "name": "seedsGained",
          "type": "uint256"
        }
      ],
      "name": "CropsConverted",
      "type": "event"
    },
    {
      "anonymous": false,
      "inputs": [
        {
          "indexed": true,
          "internalType": "address",
          "name": "player",
          "type": "address"
        },
        {
          "indexed": false,
          "internalType": "enum FarmLand.CropType",
          "name": "cropType",
          "type": "uint8"
        },
        {
          "indexed": false,
          "internalType": "uint256",
          "name": "quantity",
          "type": "uint256"
        },
        {
          "indexed": false,
          "internalType": "uint256",
          "name": "earnings",
          "type": "uint256"
        }
      ],
      "name": "CropsSold",
      "type": "event"
    },
    {
      "anonymous": false,
      "inputs": [
        {
          "indexed": true,
          "internalType": "address",
          "name": "player",
          "type": "address"
        },
        {
          "indexed": false,
          "internalType": "uint256",
          "name": "newPlotId",
          "type": "uint256"
        }
      ],
      "name": "FarmExpanded",
      "type": "event"
    },
    {
      "anonymous": false,
      "inputs": [
        {
          "indexed": true,
          "internalType": "address",
          "name": "previousOwner",
          "type": "address"
        },
        {
          "indexed": true,
          "internalType": "address",
          "name": "newOwner",
          "type": "address"
        }
      ],
      "name": "OwnershipTransferred",
      "type": "event"
    },
    {
      "anonymous": false,
      "inputs": [
        {
          "indexed": true,
          "internalType": "address",
          "name": "player",
          "type": "address"
        },
        {
          "indexed": false,
          "internalType": "uint256",
          "name": "plotId",
          "type": "uint256"
        }
      ],
      "name": "PlotCreated",
      "type": "event"
    },
    {
      "anonymous": false,
      "inputs": [
        {
          "indexed": true,
          "internalType": "address",
          "name": "player",
          "type": "address"
        },
        {
          "indexed": false,
          "internalType": "uint256",
          "name": "plotId",
          "type": "uint256"
        },
        {
          "indexed": false,
          "internalType": "enum FarmLand.CropType",
          "name": "cropType",
          "type": "uint8"
        }
      ],
      "name": "SeedPlanted",
      "type": "event"
    },
    {
      "anonymous": false,
      "inputs": [
        {
          "indexed": true,
          "internalType": "address",
          "name": "player",
          "type": "address"
        },
        {
          "indexed": false,
          "internalType": "enum FarmLand.CropType",
          "name": "cropType",
          "type": "uint8"
        },
        {
          "indexed": false,
          "internalType": "uint256",
          "name": "quantity",
          "type": "uint256"
        },
        {
          "indexed": false,
          "internalType": "uint256",
          "name": "cost",
          "type": "uint256"
        }
      ],
      "name": "SeedsPurchased",
      "type": "event"
    },
    {
      "inputs": [],
      "name": "EXPANSION_COST",
      "outputs": [
        {
          "internalType": "uint256",
          "name": "",
          "type": "uint256"
        }
      ],
      "stateMutability": "view",
      "type": "function"
    },
    {
      "inputs": [],
      "name": "INITIAL_PLOTS",
      "outputs": [
        {
          "internalType": "uint256",
          "name": "",
          "type": "uint256"
        }
      ],
      "stateMutability": "view",
      "type": "function"
    },
    {
      "inputs": [],
      "name": "INITIAL_WHEAT_SEEDS",
      "outputs": [
        {
          "internalType": "uint256",
          "name": "",
          "type": "uint256"
        }
      ],
      "stateMutability": "view",
      "type": "function"
    },
    {
      "inputs": [
        {
          "internalType": "enum FarmLand.CropType",
          "name": "cropType",
          "type": "uint8"
        },
        {
          "internalType": "uint256",
          "name": "quantity",
          "type": "uint256"
        }
      ],
      "name": "buySeeds",
      "outputs": [],
      "stateMutability": "nonpayable",
      "type": "function"
    },
    {
      "inputs": [
        {
          "internalType": "enum FarmLand.CropType",
          "name": "cropType",
          "type": "uint8"
        },
        {
          "internalType": "uint256",
          "name": "quantity",
          "type": "uint256"
        }
      ],
      "name": "convertCropsToSeeds",
      "outputs": [],
      "stateMutability": "nonpayable",
      "type": "function"
    },
    {
      "inputs": [
        {
          "internalType": "enum FarmLand.CropType",
          "name": "",
          "type": "uint8"
        }
      ],
      "name": "cropData",
      "outputs": [
        {
          "internalType": "uint256",
          "name": "growthTime",
          "type": "uint256"
        },
        {
          "internalType": "uint256",
          "name": "seedPrice",
          "type": "uint256"
        },
        {
          "internalType": "uint256",
          "name": "sellPrice",
          "type": "uint256"
        },
        {
          "internalType": "string",
          "name": "name",
          "type": "string"
        }
      ],
      "stateMutability": "view",
      "type": "function"
    },
    {
      "inputs": [],
      "name": "expandFarm",
      "outputs": [],
      "stateMutability": "nonpayable",
      "type": "function"
    },
    {
      "inputs": [],
      "name": "gameToken",
      "outputs": [
        {
          "internalType": "contract GameToken",
          "name": "",
          "type": "address"
        }
      ],
      "stateMutability": "view",
      "type": "function"
    },
    {
      "inputs": [
        {
          "internalType": "address",
          "name": "player",
          "type": "address"
        },
        {
          "internalType": "enum FarmLand.CropType",
          "name": "cropType",
          "type": "uint8"
        }
      ],
      "name": "getHarvestedCrops",
      "outputs": [
        {
          "internalType": "uint256",
          "name": "",
          "type": "uint256"
        }
      ],
      "stateMutability": "view",
      "type": "function"
    },
    {
      "inputs": [
        {
          "internalType": "address",
          "name": "player",
          "type": "address"
        }
      ],
      "name": "getPlayerPlots",
      "outputs": [
        {
          "internalType": "uint256[]",
          "name": "",
          "type": "uint256[]"
        }
      ],
      "stateMutability": "view",
      "type": "function"
    },
    {
      "inputs": [
        {
          "internalType": "uint256",
          "name": "plotId",
          "type": "uint256"
        }
      ],
      "name": "getPlotStatus",
      "outputs": [
        {
          "internalType": "enum FarmLand.PlotStatus",
          "name": "status",
          "type": "uint8"
        },
        {
          "internalType": "enum FarmLand.CropType",
          "name": "cropType",
          "type": "uint8"
        },
        {
          "internalType": "bool",
          "name": "isReady",
          "type": "bool"
        },
        {
          "internalType": "uint256",
          "name": "remainingTime",
          "type": "uint256"
        }
      ],
      "stateMutability": "view",
      "type": "function"
    },
    {
      "inputs": [
        {
          "internalType": "address",
          "name": "player",
          "type": "address"
        },
        {
          "internalType": "enum FarmLand.CropType",
          "name": "cropType",
          "type": "uint8"
        }
      ],
      "name": "getSeedInventory",
      "outputs": [
        {
          "internalType": "uint256",
          "name": "",
          "type": "uint256"
        }
      ],
      "stateMutability": "view",
      "type": "function"
    },
    {
      "inputs": [
        {
          "internalType": "uint256",
          "name": "plotId",
          "type": "uint256"
        }
      ],
      "name": "harvestCrop",
      "outputs": [],
      "stateMutability": "nonpayable",
      "type": "function"
    },
    {
      "inputs": [
        {
          "internalType": "address",
          "name": "",
          "type": "address"
        },
        {
          "internalType": "enum FarmLand.CropType",
          "name": "",
          "type": "uint8"
        }
      ],
      "name": "harvestedCrops",
      "outputs": [
        {
          "internalType": "uint256",
          "name": "",
          "type": "uint256"
        }
      ],
      "stateMutability": "view",
      "type": "function"
    },
    {
      "inputs": [
        {
          "internalType": "address",
          "name": "player",
          "type": "address"
        }
      ],
      "name": "initializePlayer",
      "outputs": [],
      "stateMutability": "nonpayable",
      "type": "function"
    },
    {
      "inputs": [],
      "name": "nextPlotId",
      "outputs": [
        {
          "internalType": "uint256",
          "name": "",
          "type": "uint256"
        }
      ],
      "stateMutability": "view",
      "type": "function"
    },
    {
      "inputs": [],
      "name": "owner",
      "outputs": [
        {
          "internalType": "address",
          "name": "",
          "type": "address"
        }
      ],
      "stateMutability": "view",
      "type": "function"
    },
    {
      "inputs": [
        {
          "internalType": "uint256",
          "name": "plotId",
          "type": "uint256"
        },
        {
          "internalType": "enum FarmLand.CropType",
          "name": "cropType",
          "type": "uint8"
        }
      ],
      "name": "plantSeed",
      "outputs": [],
      "stateMutability": "nonpayable",
      "type": "function"
    },
    {
      "inputs": [
        {
          "internalType": "address",
          "name": "",
          "type": "address"
        },
        {
          "internalType": "uint256",
          "name": "",
          "type": "uint256"
        }
      ],
      "name": "playerPlots",
      "outputs": [
        {
          "internalType": "uint256",
          "name": "",
          "type": "uint256"
        }
      ],
      "stateMutability": "view",
      "type": "function"
    },
    {
      "inputs": [
        {
          "internalType": "uint256",
          "name": "",
          "type": "uint256"
        }
      ],
      "name": "plots",
      "outputs": [
        {
          "internalType": "enum FarmLand.PlotStatus",
          "name": "status",
          "type": "uint8"
        },
        {
          "internalType": "enum FarmLand.CropType",
          "name": "cropType",
          "type": "uint8"
        },
        {
          "internalType": "uint256",
          "name": "sowTime",
          "type": "uint256"
        },
        {
          "internalType": "uint256",
          "name": "growthDuration",
          "type": "uint256"
        },
        {
          "internalType": "address",
          "name": "owner",
          "type": "address"
        }
      ],
      "stateMutability": "view",
      "type": "function"
    },
    {
      "inputs": [],
      "name": "renounceOwnership",
      "outputs": [],
      "stateMutability": "nonpayable",
      "type": "function"
    },
    {
      "inputs": [
        {
          "internalType": "address",
          "name": "",
          "type": "address"
        },
        {
          "internalType": "enum FarmLand.CropType",
          "name": "",
          "type": "uint8"
        }
      ],
      "name": "seedInventory",
      "outputs": [
        {
          "internalType": "uint256",
          "name": "",
          "type": "uint256"
        }
      ],
      "stateMutability": "view",
      "type": "function"
    },
    {
      "inputs": [
        {
          "internalType": "enum FarmLand.CropType",
          "name": "cropType",
          "type": "uint8"
        },
        {
          "internalType": "uint256",
          "name": "quantity",
          "type": "uint256"
        }
      ],
      "name": "sellCrops",
      "outputs": [],
      "stateMutability": "nonpayable",
      "type": "function"
    },
    {
      "inputs": [
        {
          "internalType": "address",
          "name": "newOwner",
          "type": "address"
        }
      ],
      "name": "transferOwnership",
      "outputs": [],
      "stateMutability": "nonpayable",
      "type": "function"
    }
  ],
  "bytecode": "0x608060405234801561000f575f5ffd5b50604051611e9b380380611e9b83398101604081905261002e916103ea565b338061005357604051631e4fbdf760e01b81525f600482015260240160405180910390fd5b61005c8161039b565b50600180546001600160a01b0319166001600160a01b03831617905560408051608081018252600a8152674563918244f400006020808301918252673782dace9d9000008385019081528451808601909552600585526415da19585d60da1b85830152606084019485525f8052600690915282517f54cdd369e4e8a8515e52ca72ec816c2101831ad1f18bf44102ed171459c9b4f890815591517f54cdd369e4e8a8515e52ca72ec816c2101831ad1f18bf44102ed171459c9b4f955517f54cdd369e4e8a8515e52ca72ec816c2101831ad1f18bf44102ed171459c9b4fa5591519091907f54cdd369e4e8a8515e52ca72ec816c2101831ad1f18bf44102ed171459c9b4fb9061016c90826104c3565b509050506040518060800160405280600f8152602001676f05b59d3b20000081526020016753444835ec580000815260200160405180604001604052806006815260200165546f6d61746f60d01b81525081525060065f600160038111156101d6576101d6610417565b60038111156101e7576101e7610417565b815260208082019290925260409081015f208351815591830151600183015582015160028201556060820151600382019061022290826104c3565b509050506040518060800160405280600c8152602001678ac7230489e800008152602001676f05b59d3b20000081526020016040518060400160405280600a8152602001695374726177626572727960b01b81525081525060065f6002600381111561029057610290610417565b60038111156102a1576102a1610417565b815260208082019290925260409081015f20835181559183015160018301558201516002820155606082015160038201906102dc90826104c3565b509050506040518060800160405280600881526020016753444835ec5800008152602001674563918244f4000081526020016040518060400160405280600681526020016510d85c9c9bdd60d21b81525081525060065f60038081111561034557610345610417565b600381111561035657610356610417565b815260208082019290925260409081015f208351815591830151600183015582015160028201556060820151600382019061039190826104c3565b509050505061057d565b5f80546001600160a01b038381166001600160a01b0319831681178455604051919092169283917f8be0079c531659141344cd1fd0a4f28419497f9722a3daafe3b4186f6b6457e09190a35050565b5f602082840312156103fa575f5ffd5b81516001600160a01b0381168114610410575f5ffd5b9392505050565b634e487b7160e01b5f52602160045260245ffd5b634e487b7160e01b5f52604160045260245ffd5b600181811c9082168061045357607f821691505b60208210810361047157634e487b7160e01b5f52602260045260245ffd5b50919050565b601f8211156104be57805f5260205f20601f840160051c8101602085101561049c5750805b601f840160051c820191505b818110156104bb575f81556001016104a8565b50505b505050565b81516001600160401b038111156104dc576104dc61042b565b6104f0816104ea845461043f565b84610477565b6020601f821160018114610522575f831561050b5750848201515b5f19600385901b1c1916600184901b1784556104bb565b5f84815260208120601f198516915b828110156105515787850151825560209485019460019092019101610531565b508482101561056e57868401515f19600387901b60f8161c191681555b50505050600190811b01905550565b6119118061058a5f395ff3fe608060405234801561000f575f5ffd5b5060043610610153575f3560e01c8063715018a6116100bf578063c3dfdae611610079578063c3dfdae61461033b578063cf529c161461034e578063ef6c73d014610357578063f2df9e911461036a578063f2fde38b14610394578063fff697ac146103a7575f5ffd5b8063715018a61461029c5780637e2a21fb146102a45780638da5cb5b146102c757806393d170f2146102eb578063942ed322146102fe578063c271845d14610328575f5ffd5b806342a097c31161011057806342a097c3146101eb57806346e8e7071461020b5780635d0cc38f146102135780635ed52ccd1461022657806361bf49ee1461022e57806369d9986314610289575f5ffd5b8063114f688914610157578063139652e41461017d5780631994f37d1461019257806332c5c37e146101b557806337a26a78146101c857806339feffc4146101db575b5f5ffd5b61016a61016536600461158f565b6103af565b6040519081526020015b60405180910390f35b61019061018b3660046115c0565b610401565b005b6101a56101a03660046115e0565b6105ea565b604051610174949392919061162f565b6101906101c336600461165c565b610706565b6101906101d636600461167d565b610966565b61016a6802b5e3af16b188000081565b6101fe6101f93660046115c0565b610b10565b60405161017491906116a5565b61016a600981565b6101906102213660046115e0565b610b79565b610190610d50565b61027861023c3660046115e0565b600360208190525f9182526040909120805460018201546002830154929093015460ff808316946101009093041692906001600160a01b031685565b6040516101749594939291906116e7565b61016a610297366004611727565b610fac565b610190610fd7565b6102b76102b2366004611741565b610fea565b604051610174949392919061175a565b5f546001600160a01b03165b6040516001600160a01b039091168152602001610174565b6101906102f936600461167d565b61109a565b61016a61030c36600461158f565b600560209081525f928352604080842090915290825290205481565b61019061033636600461167d565b6112a2565b6001546102d3906001600160a01b031681565b61016a60075481565b61016a61036536600461158f565b611484565b61016a61037836600461158f565b600460209081525f928352604080842090915290825290205481565b6101906103a23660046115c0565b6114ae565b61016a600581565b6001600160a01b0382165f908152600460205260408120818360038111156103d9576103d96115f7565b60038111156103ea576103ea6115f7565b81526020019081526020015f205490505b92915050565b6001600160a01b0381165f90815260026020526040902054156104775760405162461bcd60e51b8152602060048201526024808201527f4661726d4c616e643a20706c6179657220616c726561647920696e697469616c6044820152631a5e995960e21b60648201526084015b60405180910390fd5b5f5b60098110156105c257600780545f9182610492836117b8565b909155506040805160a08101909152909150805f81526020015f81525f602080830182905260408084018390526001600160a01b038816606090940193909352848252600390522081518154829060ff191660018360028111156104f8576104f86115f7565b021790555060208201518154829061ff001916610100836003811115610520576105206115f7565b02179055506040828101516001838101919091556060840151600280850191909155608090940151600390930180546001600160a01b0319166001600160a01b039485161790559186165f81815260209485528281208054948501815581528490209092018490555183815290917f2e7c33270ebb25fd2f3e54e72364015a87a96d6bc8172ef79e6234e9352e4910910160405180910390a250600101610479565b506001600160a01b03165f908152600460209081526040808320838052909152902060059055565b5f81815260036020526040808220815160a08101909252805483928392839283929190829060ff166002811115610623576106236115f7565b6002811115610634576106346115f7565b81528154602090910190610100900460ff166003811115610657576106576115f7565b6003811115610668576106686115f7565b8152600182810154602080840191909152600284015460408401526003909301546001600160a01b0316606090920191909152825191830151919750909550909150815160028111156106bd576106bd6115f7565b036106fe575f816060015182604001516106d791906117d0565b90508042106106ec57600193505f92506106fc565b5f93506106f942826117e3565b92505b505b509193509193565b5f828152600360208190526040909120908101546001600160a01b0316331461076c5760405162461bcd60e51b81526020600482015260186024820152772330b936a630b7321d103737ba10383637ba1037bbb732b960411b604482015260640161046e565b5f815460ff166002811115610783576107836115f7565b146107d05760405162461bcd60e51b815260206004820152601860248201527f4661726d4c616e643a20706c6f74206e6f7420656d7074790000000000000000604482015260640161046e565b335f908152600460205260408120818460038111156107f1576107f16115f7565b6003811115610802576108026115f7565b81526020019081526020015f20541161085d5760405162461bcd60e51b815260206004820152601c60248201527f4661726d4c616e643a206e6f20736565647320617661696c61626c6500000000604482015260640161046e565b335f9081526004602052604081209083600381111561087e5761087e6115f7565b600381111561088f5761088f6115f7565b81526020019081526020015f205f8154809291906108ac906117f6565b90915550508054600160ff198216811783558391839161ffff19909116176101008360038111156108df576108df6115f7565b021790555042600182015560065f8360038111156108ff576108ff6115f7565b6003811115610910576109106115f7565b8152602081019190915260409081015f205460028301555133907f17ac3ec9d9571ac28217ce2bce1c662ddb84437c30e14dde2daec760589cf1ff90610959908690869061180b565b60405180910390a2505050565b335f9081526005602052604081208291846003811115610988576109886115f7565b6003811115610999576109996115f7565b81526020019081526020015f205410156109f55760405162461bcd60e51b815260206004820152601c60248201527f4661726d4c616e643a20696e73756666696369656e742063726f707300000000604482015260640161046e565b5f8111610a145760405162461bcd60e51b815260040161046e9061181f565b335f9081526005602052604081208291846003811115610a3657610a366115f7565b6003811115610a4757610a476115f7565b81526020019081526020015f205f828254610a6291906117e3565b90915550610a739050816002611856565b335f90815260046020526040812090846003811115610a9457610a946115f7565b6003811115610aa557610aa56115f7565b81526020019081526020015f205f828254610ac091906117d0565b909155503390507fe507296849f61c18eb648649264040e6430e523b753837de3713e225acdca0328383610af5816002611856565b604051610b049392919061186d565b60405180910390a25050565b6001600160a01b0381165f90815260026020908152604091829020805483518184028101840190945280845260609392830182828015610b6d57602002820191905f5260205f20905b815481526020019060010190808311610b59575b50505050509050919050565b5f818152600360208190526040909120908101546001600160a01b03163314610bdf5760405162461bcd60e51b81526020600482015260186024820152772330b936a630b7321d103737ba10383637ba1037bbb732b960411b604482015260640161046e565b6001815460ff166002811115610bf757610bf76115f7565b14610c445760405162461bcd60e51b815260206004820152601a60248201527f4661726d4c616e643a20706c6f74206e6f742067726f77696e67000000000000604482015260640161046e565b80600201548160010154610c5891906117d0565b421015610ca75760405162461bcd60e51b815260206004820152601860248201527f4661726d4c616e643a2063726f70206e6f742072656164790000000000000000604482015260640161046e565b8054335f90815260056020526040812061010090920460ff169190826003811115610cd457610cd46115f7565b6003811115610ce557610ce56115f7565b81526020019081526020015f205f815480929190610d02906117b8565b9091555050815460ff191682555f60018301819055600283015560405133907ffe583fbda523ea7a32b88cc3705a5cb25babdba404f30aacbb65a272b864b05a90610959908690859061180b565b6001546040516370a0823160e01b81523360048201526802b5e3af16b1880000916001600160a01b0316906370a0823190602401602060405180830381865afa158015610d9f573d5f5f3e3d5ffd5b505050506040513d601f19601f82011682018060405250810190610dc3919061188c565b1015610e115760405162461bcd60e51b815260206004820152601c60248201527f4661726d4c616e643a20696e73756666696369656e742066756e647300000000604482015260640161046e565b600154604051632770a7eb60e21b81523360048201526802b5e3af16b188000060248201526001600160a01b0390911690639dc29fac906044015f604051808303815f87803b158015610e62575f5ffd5b505af1158015610e74573d5f5f3e3d5ffd5b5050600780545f9350915082610e89836117b8565b909155506040805160a08101909152909150805f81526020015f81525f6020808301829052604080840183905233606090940193909352848252600390522081518154829060ff19166001836002811115610ee657610ee66115f7565b021790555060208201518154829061ff001916610100836003811115610f0e57610f0e6115f7565b02179055506040828101516001838101919091556060840151600280850191909155608090940151600390930180546001600160a01b0319166001600160a01b0390941693909317909255335f81815260209485528281208054948501815581528490209092018490555183815290917faecd65780974d9d023e895e76a5ef8752263c60a25725c99f53c89b027d083f5910160405180910390a250565b6002602052815f5260405f208181548110610fc5575f80fd5b905f5260205f20015f91509150505481565b610fdf6114eb565b610fe85f611517565b565b60066020525f9081526040902080546001820154600283015460038401805493949293919291611019906118a3565b80601f0160208091040260200160405190810160405280929190818152602001828054611045906118a3565b80156110905780601f1061106757610100808354040283529160200191611090565b820191905f5260205f20905b81548152906001019060200180831161107357829003601f168201915b5050505050905084565b5f81116110b95760405162461bcd60e51b815260040161046e9061181f565b5f8160065f8560038111156110d0576110d06115f7565b60038111156110e1576110e16115f7565b81526020019081526020015f20600101546110fc9190611856565b6001546040516370a0823160e01b815233600482015291925082916001600160a01b03909116906370a0823190602401602060405180830381865afa158015611147573d5f5f3e3d5ffd5b505050506040513d601f19601f8201168201806040525081019061116b919061188c565b10156111b95760405162461bcd60e51b815260206004820152601c60248201527f4661726d4c616e643a20696e73756666696369656e742066756e647300000000604482015260640161046e565b600154604051632770a7eb60e21b8152336004820152602481018390526001600160a01b0390911690639dc29fac906044015f604051808303815f87803b158015611202575f5ffd5b505af1158015611214573d5f5f3e3d5ffd5b5050335f908152600460205260408120859350915085600381111561123b5761123b6115f7565b600381111561124c5761124c6115f7565b81526020019081526020015f205f82825461126791906117d0565b909155505060405133907f07f1465474b250936c2f8ad3b61d83f68bde57fa2bffd9f22beb3528423153fd906109599086908690869061186d565b335f90815260056020526040812082918460038111156112c4576112c46115f7565b60038111156112d5576112d56115f7565b81526020019081526020015f205410156113315760405162461bcd60e51b815260206004820152601c60248201527f4661726d4c616e643a20696e73756666696369656e742063726f707300000000604482015260640161046e565b5f81116113505760405162461bcd60e51b815260040161046e9061181f565b335f9081526005602052604081208291846003811115611372576113726115f7565b6003811115611383576113836115f7565b81526020019081526020015f205f82825461139e91906117e3565b909155505f9050816006828560038111156113bb576113bb6115f7565b60038111156113cc576113cc6115f7565b81526020019081526020015f20600201546113e79190611856565b6001546040516340c10f1960e01b8152336004820152602481018390529192506001600160a01b0316906340c10f19906044015f604051808303815f87803b158015611431575f5ffd5b505af1158015611443573d5f5f3e3d5ffd5b50505050336001600160a01b03167fc3a02355fedc38b997f1d454c5a2f14cd67a6f01a64147739ec07c1793430fc98484846040516109599392919061186d565b6001600160a01b0382165f908152600560205260408120818360038111156103d9576103d96115f7565b6114b66114eb565b6001600160a01b0381166114df57604051631e4fbdf760e01b81525f600482015260240161046e565b6114e881611517565b50565b5f546001600160a01b03163314610fe85760405163118cdaa760e01b815233600482015260240161046e565b5f80546001600160a01b038381166001600160a01b0319831681178455604051919092169283917f8be0079c531659141344cd1fd0a4f28419497f9722a3daafe3b4186f6b6457e09190a35050565b80356001600160a01b038116811461157c575f5ffd5b919050565b80356004811061157c575f5ffd5b5f5f604083850312156115a0575f5ffd5b6115a983611566565b91506115b760208401611581565b90509250929050565b5f602082840312156115d0575f5ffd5b6115d982611566565b9392505050565b5f602082840312156115f0575f5ffd5b5035919050565b634e487b7160e01b5f52602160045260245ffd5b6003811061161b5761161b6115f7565b9052565b6004811061161b5761161b6115f7565b6080810161163d828761160b565b61164a602083018661161f565b92151560408201526060015292915050565b5f5f6040838503121561166d575f5ffd5b823591506115b760208401611581565b5f5f6040838503121561168e575f5ffd5b61169783611581565b946020939093013593505050565b602080825282518282018190525f918401906040840190835b818110156116dc5783518352602093840193909201916001016116be565b509095945050505050565b60a081016116f5828861160b565b611702602083018761161f565b604082019490945260608101929092526001600160a01b031660809091015292915050565b5f5f60408385031215611738575f5ffd5b61169783611566565b5f60208284031215611751575f5ffd5b6115d982611581565b848152836020820152826040820152608060608201525f8251806080840152806020850160a085015e5f60a0828501015260a0601f19601f83011684010191505095945050505050565b634e487b7160e01b5f52601160045260245ffd5b5f600182016117c9576117c96117a4565b5060010190565b808201808211156103fb576103fb6117a4565b818103818111156103fb576103fb6117a4565b5f81611804576118046117a4565b505f190190565b828152604081016115d9602083018461161f565b6020808252601e908201527f4661726d4c616e643a207175616e74697479206d757374206265203e20300000604082015260600190565b80820281158282048414176103fb576103fb6117a4565b6060810161187b828661161f565b602082019390935260400152919050565b5f6020828403121561189c575f5ffd5b5051919050565b600181811c908216806118b757607f821691505b6020821081036118d557634e487b7160e01b5f52602260045260245ffd5b5091905056fea26469706673582212208b5a4ddb6c19f9e288fb2efac73039f7b8a54fff99139612a6ff39e919c42c9264736f6c634300081c0033",
  "linkReferences": {},
  "deployedLinkReferences": {},
  "immutableReferences": {},
  "inputSourceName": "project/contracts/FarmLand.sol",
  "buildInfoId": "solc-0_8_28-3be90fab93512b9642c440ebbc7ccce10696e3d2"
}