{
  "_format": "hh3-artifact-1",
  "contractName": "GameToken",
  "sourceName": "contracts/GameToken.sol",
  "abi": [
    {
      "inputs": [],
      "stateMutability": "nonpayable",
      "type": "constructor"
    },
    {
      "inputs": [
        {
          "internalType": "address",
          "name": "spender",
          "type": "address"
        },
        {
          "internalType": "uint256",
          "name": "allowance",
          "type": "uint256"
        },
        {
          "internalType": "uint256",
          "name": "needed",
          "type": "uint256"
        }
      ],
      "name": "ERC20InsufficientAllowance",
      "type": "error"
    },
    {
      "inputs": [
        {
          "internalType": "address",
          "name": "sender",
          "type": "address"
        },
        {
          "internalType": "uint256",
          "name": "balance",
          "type": "uint256"
        },
        {
          "internalType": "uint256",
          "name": "needed",
          "type": "uint256"
        }
      ],
      "name": "ERC20InsufficientBalance",
      "type": "error"
    },
    {
      "inputs": [
        {
          "internalType": "address",
          "name": "approver",
          "type": "address"
        }
      ],
      "name": "ERC20InvalidApprover",
      "type": "error"
    },
    {
      "inputs": [
        {
          "internalType": "address",
          "name": "receiver",
          "type": "address"
        }
      ],
      "name": "ERC20InvalidReceiver",
      "type": "error"
    },
    {
      "inputs": [
        {
          "internalType": "address",
          "name": "sender",
          "type": "address"
        }
      ],
      "name": "ERC20InvalidSender",
      "type": "error"
    },
    {
      "inputs": [
        {
          "internalType": "address",
          "name": "spender",
          "type": "address"
        }
      ],
      "name": "ERC20InvalidSpender",
      "type": "error"
    },
    {
      "inputs": [
        {
          "internalType": "address",
          "name": "owner",
          "type": "address"
        }
      ],
      "name": "OwnableInvalidOwner",
      "type": "error"
    },
    {
      "inputs": [
        {
          "internalType": "address",
          "name": "account",
          "type": "address"
        }
      ],
      "name": "OwnableUnauthorizedAccount",
      "type": "error"
    },
    {
      "anonymous": false,
      "inputs": [
        {
          "indexed": true,
          "internalType": "address",
          "name": "owner",
          "type": "address"
        },
        {
          "indexed": true,
          "internalType": "address",
          "name": "spender",
          "type": "address"
        },
        {
          "indexed": false,
          "internalType": "uint256",
          "name": "value",
          "type": "uint256"
        }
      ],
      "name": "Approval",
      "type": "event"
    },
    {
      "anonymous": false,
      "inputs": [
        {
          "indexed": true,
          "internalType": "address",
          "name": "contractAddress",
          "type": "address"
        },
        {
          "indexed": false,
          "internalType": "bool",
          "name": "authorized",
          "type": "bool"
        }
      ],
      "name": "ContractAuthorized",
      "type": "event"
    },
    {
      "anonymous": false,
      "inputs": [
        {
          "indexed": true,
          "internalType": "address",
          "name": "previousOwner",
          "type": "address"
        },
        {
          "indexed": true,
          "internalType": "address",
          "name": "newOwner",
          "type": "address"
        }
      ],
      "name": "OwnershipTransferred",
      "type": "event"
    },
    {
      "anonymous": false,
      "inputs": [
        {
          "indexed": true,
          "internalType": "address",
          "name": "from",
          "type": "address"
        },
        {
          "indexed": false,
          "internalType": "uint256",
          "name": "amount",
          "type": "uint256"
        }
      ],
      "name": "TokensBurned",
      "type": "event"
    },
    {
      "anonymous": false,
      "inputs": [
        {
          "indexed": true,
          "internalType": "address",
          "name": "to",
          "type": "address"
        },
        {
          "indexed": false,
          "internalType": "uint256",
          "name": "amount",
          "type": "uint256"
        }
      ],
      "name": "TokensMinted",
      "type": "event"
    },
    {
      "anonymous": false,
      "inputs": [
        {
          "indexed": true,
          "internalType": "address",
          "name": "from",
          "type": "address"
        },
        {
          "indexed": true,
          "internalType": "address",
          "name": "to",
          "type": "address"
        },
        {
          "indexed": false,
          "internalType": "uint256",
          "name": "value",
          "type": "uint256"
        }
      ],
      "name": "Transfer",
      "type": "event"
    },
    {
      "inputs": [
        {
          "internalType": "address",
          "name": "owner",
          "type": "address"
        },
        {
          "internalType": "address",
          "name": "spender",
          "type": "address"
        }
      ],
      "name": "allowance",
      "outputs": [
        {
          "internalType": "uint256",
          "name": "",
          "type": "uint256"
        }
      ],
      "stateMutability": "view",
      "type": "function"
    },
    {
      "inputs": [
        {
          "internalType": "address",
          "name": "spender",
          "type": "address"
        },
        {
          "internalType": "uint256",
          "name": "value",
          "type": "uint256"
        }
      ],
      "name": "approve",
      "outputs": [
        {
          "internalType": "bool",
          "name": "",
          "type": "bool"
        }
      ],
      "stateMutability": "nonpayable",
      "type": "function"
    },
    {
      "inputs": [
        {
          "internalType": "address",
          "name": "",
          "type": "address"
        }
      ],
      "name": "authorizedContracts",
      "outputs": [
        {
          "internalType": "bool",
          "name": "",
          "type": "bool"
        }
      ],
      "stateMutability": "view",
      "type": "function"
    },
    {
      "inputs": [
        {
          "internalType": "address",
          "name": "account",
          "type": "address"
        }
      ],
      "name": "balanceOf",
      "outputs": [
        {
          "internalType": "uint256",
          "name": "",
          "type": "uint256"
        }
      ],
      "stateMutability": "view",
      "type": "function"
    },
    {
      "inputs": [
        {
          "internalType": "address",
          "name": "from",
          "type": "address"
        },
        {
          "internalType": "uint256",
          "name": "amount",
          "type": "uint256"
        }
      ],
      "name": "burn",
      "outputs": [],
      "stateMutability": "nonpayable",
      "type": "function"
    },
    {
      "inputs": [],
      "name": "decimals",
      "outputs": [
        {
          "internalType": "uint8",
          "name": "",
          "type": "uint8"
        }
      ],
      "stateMutability": "view",
      "type": "function"
    },
    {
      "inputs": [
        {
          "internalType": "address",
          "name": "player",
          "type": "address"
        }
      ],
      "name": "giveStarterTokens",
      "outputs": [],
      "stateMutability": "nonpayable",
      "type": "function"
    },
    {
      "inputs": [
        {
          "internalType": "address",
          "name": "to",
          "type": "address"
        },
        {
          "internalType": "uint256",
          "name": "amount",
          "type": "uint256"
        }
      ],
      "name": "mint",
      "outputs": [],
      "stateMutability": "nonpayable",
      "type": "function"
    },
    {
      "inputs": [],
      "name": "name",
      "outputs": [
        {
          "internalType": "string",
          "name": "",
          "type": "string"
        }
      ],
      "stateMutability": "view",
      "type": "function"
    },
    {
      "inputs": [],
      "name": "owner",
      "outputs": [
        {
          "internalType": "address",
          "name": "",
          "type": "address"
        }
      ],
      "stateMutability": "view",
      "type": "function"
    },
    {
      "inputs": [],
      "name": "renounceOwnership",
      "outputs": [],
      "stateMutability": "nonpayable",
      "type": "function"
    },
    {
      "inputs": [
        {
          "internalType": "address",
          "name": "contractAddress",
          "type": "address"
        },
        {
          "internalType": "bool",
          "name": "authorized",
          "type": "bool"
        }
      ],
      "name": "setAuthorizedContract",
      "outputs": [],
      "stateMutability": "nonpayable",
      "type": "function"
    },
    {
      "inputs": [],
      "name": "symbol",
      "outputs": [
        {
          "internalType": "string",
          "name": "",
          "type": "string"
        }
      ],
      "stateMutability": "view",
      "type": "function"
    },
    {
      "inputs": [],
      "name": "totalSupply",
      "outputs": [
        {
          "internalType": "uint256",
          "name": "",
          "type": "uint256"
        }
      ],
      "stateMutability": "view",
      "type": "function"
    },
    {
      "inputs": [
        {
          "internalType": "address",
          "name": "to",
          "type": "address"
        },
        {
          "internalType": "uint256",
          "name": "value",
          "type": "uint256"
        }
      ],
      "name": "transfer",
      "outputs": [
        {
          "internalType": "bool",
          "name": "",
          "type": "bool"
        }
      ],
      "stateMutability": "nonpayable",
      "type": "function"
    },
    {
      "inputs": [
        {
          "internalType": "address",
          "name": "from",
          "type": "address"
        },
        {
          "internalType": "address",
          "name": "to",
          "type": "address"
        },
        {
          "internalType": "uint256",
          "name": "value",
          "type": "uint256"
        }
      ],
      "name": "transferFrom",
      "outputs": [
        {
          "internalType": "bool",
          "name": "",
          "type": "bool"
        }
      ],
      "stateMutability": "nonpayable",
      "type": "function"
    },
    {
      "inputs": [
        {
          "internalType": "address",
          "name": "newOwner",
          "type": "address"
        }
      ],
      "name": "transferOwnership",
      "outputs": [],
      "stateMutability": "nonpayable",
      "type": "function"
    }
  ],
  "bytecode": "0x608060405234801561000f575f5ffd5b50336040518060400160405280600881526020016723b0b6b2a1b7b4b760c11b8152506040518060400160405280600581526020016423a1a7a4a760d91b815250816003908161005f9190610315565b50600461006c8282610315565b5050506001600160a01b03811661009d57604051631e4fbdf760e01b81525f60048201526024015b60405180910390fd5b6100a6816100ce565b506100c9336100b76012600a6104c8565b6100c490620f42406104dd565b61011f565b610507565b600580546001600160a01b038381166001600160a01b0319831681179093556040519116919082907f8be0079c531659141344cd1fd0a4f28419497f9722a3daafe3b4186f6b6457e0905f90a35050565b6001600160a01b0382166101485760405163ec442f0560e01b81525f6004820152602401610094565b6101535f8383610157565b5050565b6001600160a01b038316610181578060025f82825461017691906104f4565b909155506101f19050565b6001600160a01b0383165f90815260208190526040902054818110156101d35760405163391434e360e21b81526001600160a01b03851660048201526024810182905260448101839052606401610094565b6001600160a01b0384165f9081526020819052604090209082900390555b6001600160a01b03821661020d5760028054829003905561022b565b6001600160a01b0382165f9081526020819052604090208054820190555b816001600160a01b0316836001600160a01b03167fddf252ad1be2c89b69c2b068fc378daa952ba7f163c4a11628f55a4df523b3ef8360405161027091815260200190565b60405180910390a3505050565b634e487b7160e01b5f52604160045260245ffd5b600181811c908216806102a557607f821691505b6020821081036102c357634e487b7160e01b5f52602260045260245ffd5b50919050565b601f82111561031057805f5260205f20601f840160051c810160208510156102ee5750805b601f840160051c820191505b8181101561030d575f81556001016102fa565b50505b505050565b81516001600160401b0381111561032e5761032e61027d565b6103428161033c8454610291565b846102c9565b6020601f821160018114610374575f831561035d5750848201515b5f19600385901b1c1916600184901b17845561030d565b5f84815260208120601f198516915b828110156103a35787850151825560209485019460019092019101610383565b50848210156103c057868401515f19600387901b60f8161c191681555b50505050600190811b01905550565b634e487b7160e01b5f52601160045260245ffd5b6001815b600184111561041e57808504811115610402576104026103cf565b600184161561041057908102905b60019390931c9280026103e7565b935093915050565b5f82610434575060016104c2565b8161044057505f6104c2565b816001811461045657600281146104605761047c565b60019150506104c2565b60ff841115610471576104716103cf565b50506001821b6104c2565b5060208310610133831016604e8410600b841016171561049f575081810a6104c2565b6104ab5f1984846103e3565b805f19048211156104be576104be6103cf565b0290505b92915050565b5f6104d660ff841683610426565b9392505050565b80820281158282048414176104c2576104c26103cf565b808201808211156104c2576104c26103cf565b610ccd806105145f395ff3fe608060405234801561000f575f5ffd5b5060043610610106575f3560e01c8063715018a61161009e578063a9059cbb1161006e578063a9059cbb1461020d578063d5b9221b14610220578063dd62ed3e14610242578063f2fa73921461027a578063f2fde38b1461028d575f5ffd5b8063715018a6146101cf5780638da5cb5b146101d757806395d89b41146101f25780639dc29fac146101fa575f5ffd5b806323b872dd116100d957806323b872dd14610172578063313ce5671461018557806340c10f191461019457806370a08231146101a7575f5ffd5b806306fdde031461010a578063095ea7b31461012857806318160ddd1461014b5780631cd2ed901461015d575b5f5ffd5b6101126102a0565b60405161011f91906109f4565b60405180910390f35b61013b610136366004610a44565b610330565b604051901515815260200161011f565b6002545b60405190815260200161011f565b61017061016b366004610a6c565b610349565b005b61013b610180366004610a8c565b6103ea565b6040516012815260200161011f565b6101706101a2366004610a44565b61040d565b61014f6101b5366004610a6c565b6001600160a01b03165f9081526020819052604090205490565b6101706104bc565b6005546040516001600160a01b03909116815260200161011f565b6101126104cf565b610170610208366004610a44565b6104de565b61013b61021b366004610a44565b610581565b61013b61022e366004610a6c565b60066020525f908152604090205460ff1681565b61014f610250366004610ac6565b6001600160a01b039182165f90815260016020908152604080832093909416825291909152205490565b610170610288366004610af7565b61058e565b61017061029b366004610a6c565b6105ed565b6060600380546102af90610b30565b80601f01602080910402602001604051908101604052809291908181526020018280546102db90610b30565b80156103265780601f106102fd57610100808354040283529160200191610326565b820191905f5260205f20905b81548152906001019060200180831161030957829003601f168201915b5050505050905090565b5f3361033d818585610627565b60019150505b92915050565b610351610639565b6001600160a01b0381165f90815260208190526040902054156103c75760405162461bcd60e51b8152602060048201526024808201527f47616d65546f6b656e3a20706c6179657220616c72656164792068617320746f6044820152636b656e7360e01b60648201526084015b60405180910390fd5b6103e7816103d76012600a610c5f565b6103e2906064610c6d565b610666565b50565b5f336103f785828561069e565b61040285858561071a565b506001949350505050565b335f9081526006602052604090205460ff1661046b5760405162461bcd60e51b815260206004820181905260248201527f47616d65546f6b656e3a2063616c6c6572206e6f7420617574686f72697a656460448201526064016103be565b6104758282610666565b816001600160a01b03167f3f2c9d57c068687834f0de942a9babb9e5acab57d516d3480a3c16ee165a4273826040516104b091815260200190565b60405180910390a25050565b6104c4610639565b6104cd5f610777565b565b6060600480546102af90610b30565b335f9081526006602052604090205460ff1661053c5760405162461bcd60e51b815260206004820181905260248201527f47616d65546f6b656e3a2063616c6c6572206e6f7420617574686f72697a656460448201526064016103be565b61054682826107c8565b816001600160a01b03167ffd38818f5291bf0bb3a2a48aadc06ba8757865d1dabd804585338aab3009dcb6826040516104b091815260200190565b5f3361033d81858561071a565b610596610639565b6001600160a01b0382165f81815260066020908152604091829020805460ff191685151590811790915591519182527f3213ab8ec2ed122402f038736b41878b69ae9f61f49a7edd0666bce891d29fc991016104b0565b6105f5610639565b6001600160a01b03811661061e57604051631e4fbdf760e01b81525f60048201526024016103be565b6103e781610777565b61063483838360016107fc565b505050565b6005546001600160a01b031633146104cd5760405163118cdaa760e01b81523360048201526024016103be565b6001600160a01b03821661068f5760405163ec442f0560e01b81525f60048201526024016103be565b61069a5f83836108ce565b5050565b6001600160a01b038381165f908152600160209081526040808320938616835292905220545f19811015610714578181101561070657604051637dc7a0d960e11b81526001600160a01b038416600482015260248101829052604481018390526064016103be565b61071484848484035f6107fc565b50505050565b6001600160a01b03831661074357604051634b637e8f60e11b81525f60048201526024016103be565b6001600160a01b03821661076c5760405163ec442f0560e01b81525f60048201526024016103be565b6106348383836108ce565b600580546001600160a01b038381166001600160a01b0319831681179093556040519116919082907f8be0079c531659141344cd1fd0a4f28419497f9722a3daafe3b4186f6b6457e0905f90a35050565b6001600160a01b0382166107f157604051634b637e8f60e11b81525f60048201526024016103be565b61069a825f836108ce565b6001600160a01b0384166108255760405163e602df0560e01b81525f60048201526024016103be565b6001600160a01b03831661084e57604051634a1406b160e11b81525f60048201526024016103be565b6001600160a01b038085165f908152600160209081526040808320938716835292905220829055801561071457826001600160a01b0316846001600160a01b03167f8c5be1e5ebec7d5bd14f71427d1e84f3dd0314c0f7b2291e5b200ac8c7c3b925846040516108c091815260200190565b60405180910390a350505050565b6001600160a01b0383166108f8578060025f8282546108ed9190610c84565b909155506109689050565b6001600160a01b0383165f908152602081905260409020548181101561094a5760405163391434e360e21b81526001600160a01b038516600482015260248101829052604481018390526064016103be565b6001600160a01b0384165f9081526020819052604090209082900390555b6001600160a01b038216610984576002805482900390556109a2565b6001600160a01b0382165f9081526020819052604090208054820190555b816001600160a01b0316836001600160a01b03167fddf252ad1be2c89b69c2b068fc378daa952ba7f163c4a11628f55a4df523b3ef836040516109e791815260200190565b60405180910390a3505050565b602081525f82518060208401528060208501604085015e5f604082850101526040601f19601f83011684010191505092915050565b80356001600160a01b0381168114610a3f575f5ffd5b919050565b5f5f60408385031215610a55575f5ffd5b610a5e83610a29565b946020939093013593505050565b5f60208284031215610a7c575f5ffd5b610a8582610a29565b9392505050565b5f5f5f60608486031215610a9e575f5ffd5b610aa784610a29565b9250610ab560208501610a29565b929592945050506040919091013590565b5f5f60408385031215610ad7575f5ffd5b610ae083610a29565b9150610aee60208401610a29565b90509250929050565b5f5f60408385031215610b08575f5ffd5b610b1183610a29565b915060208301358015158114610b25575f5ffd5b809150509250929050565b600181811c90821680610b4457607f821691505b602082108103610b6257634e487b7160e01b5f52602260045260245ffd5b50919050565b634e487b7160e01b5f52601160045260245ffd5b6001815b6001841115610bb757808504811115610b9b57610b9b610b68565b6001841615610ba957908102905b60019390931c928002610b80565b935093915050565b5f82610bcd57506001610343565b81610bd957505f610343565b8160018114610bef5760028114610bf957610c15565b6001915050610343565b60ff841115610c0a57610c0a610b68565b50506001821b610343565b5060208310610133831016604e8410600b8410161715610c38575081810a610343565b610c445f198484610b7c565b805f1904821115610c5757610c57610b68565b029392505050565b5f610a8560ff841683610bbf565b808202811582820484141761034357610343610b68565b8082018082111561034357610343610b6856fea26469706673582212207a7f771fea3e41a4c2331a54d57908d82ef82fc42e1c3f10fd223aa519cc137864736f6c634300081c0033",
  "linkReferences": {},
  "deployedLinkReferences": {},
  "immutableReferences": {},
  "inputSourceName": "project/contracts/GameToken.sol",
  "buildInfoId": "solc-0_8_28-db507cfc1ed1edae1ea9dbe6b81fbcd1ce8b158e"
}