{
  "_format": "hh3-artifact-1",
  "contractName": "Restaurant",
  "sourceName": "contracts/Restaurant.sol",
  "abi": [
    {
      "inputs": [
        {
          "internalType": "address",
          "name": "_gameToken",
          "type": "address"
        },
        {
          "internalType": "address",
          "name": "_farmLand",
          "type": "address"
        },
        {
          "internalType": "address",
          "name": "_animalFarm",
          "type": "address"
        }
      ],
      "stateMutability": "nonpayable",
      "type": "constructor"
    },
    {
      "inputs": [
        {
          "internalType": "address",
          "name": "owner",
          "type": "address"
        }
      ],
      "name": "OwnableInvalidOwner",
      "type": "error"
    },
    {
      "inputs": [
        {
          "internalType": "address",
          "name": "account",
          "type": "address"
        }
      ],
      "name": "OwnableUnauthorizedAccount",
      "type": "error"
    },
    {
      "anonymous": false,
      "inputs": [
        {
          "indexed": true,
          "internalType": "address",
          "name": "player",
          "type": "address"
        },
        {
          "indexed": false,
          "internalType": "uint256",
          "name": "dishId",
          "type": "uint256"
        },
        {
          "indexed": false,
          "internalType": "string",
          "name": "name",
          "type": "string"
        }
      ],
      "name": "DishCreated",
      "type": "event"
    },
    {
      "anonymous": false,
      "inputs": [
        {
          "indexed": true,
          "internalType": "address",
          "name": "player",
          "type": "address"
        },
        {
          "indexed": false,
          "internalType": "uint256",
          "name": "dishId",
          "type": "uint256"
        }
      ],
      "name": "DishRemoved",
      "type": "event"
    },
    {
      "anonymous": false,
      "inputs": [
        {
          "indexed": true,
          "internalType": "address",
          "name": "player",
          "type": "address"
        },
        {
          "indexed": false,
          "internalType": "uint256",
          "name": "dishId",
          "type": "uint256"
        },
        {
          "indexed": false,
          "internalType": "bool",
          "name": "isActive",
          "type": "bool"
        }
      ],
      "name": "DishToggled",
      "type": "event"
    },
    {
      "anonymous": false,
      "inputs": [
        {
          "indexed": true,
          "internalType": "address",
          "name": "previousOwner",
          "type": "address"
        },
        {
          "indexed": true,
          "internalType": "address",
          "name": "newOwner",
          "type": "address"
        }
      ],
      "name": "OwnershipTransferred",
      "type": "event"
    },
    {
      "anonymous": false,
      "inputs": [
        {
          "indexed": true,
          "internalType": "address",
          "name": "player",
          "type": "address"
        },
        {
          "indexed": false,
          "internalType": "uint256",
          "name": "dishId",
          "type": "uint256"
        },
        {
          "indexed": false,
          "internalType": "uint256",
          "name": "amount",
          "type": "uint256"
        }
      ],
      "name": "RevenueGenerated",
      "type": "event"
    },
    {
      "inputs": [],
      "name": "REVENUE_INTERVAL",
      "outputs": [
        {
          "internalType": "uint256",
          "name": "",
          "type": "uint256"
        }
      ],
      "stateMutability": "view",
      "type": "function"
    },
    {
      "inputs": [],
      "name": "animalFarm",
      "outputs": [
        {
          "internalType": "contract AnimalFarm",
          "name": "",
          "type": "address"
        }
      ],
      "stateMutability": "view",
      "type": "function"
    },
    {
      "inputs": [],
      "name": "collectAllRevenue",
      "outputs": [],
      "stateMutability": "nonpayable",
      "type": "function"
    },
    {
      "inputs": [
        {
          "internalType": "uint256",
          "name": "dishId",
          "type": "uint256"
        }
      ],
      "name": "collectDishRevenue",
      "outputs": [],
      "stateMutability": "nonpayable",
      "type": "function"
    },
    {
      "inputs": [
        {
          "internalType": "string",
          "name": "name",
          "type": "string"
        },
        {
          "internalType": "string",
          "name": "description",
          "type": "string"
        },
        {
          "internalType": "uint256",
          "name": "unitCost",
          "type": "uint256"
        },
        {
          "internalType": "uint256",
          "name": "revenueRate",
          "type": "uint256"
        }
      ],
      "name": "createDish",
      "outputs": [],
      "stateMutability": "nonpayable",
      "type": "function"
    },
    {
      "inputs": [
        {
          "internalType": "uint256",
          "name": "",
          "type": "uint256"
        }
      ],
      "name": "dishOwner",
      "outputs": [
        {
          "internalType": "address",
          "name": "",
          "type": "address"
        }
      ],
      "stateMutability": "view",
      "type": "function"
    },
    {
      "inputs": [
        {
          "internalType": "uint256",
          "name": "",
          "type": "uint256"
        }
      ],
      "name": "dishes",
      "outputs": [
        {
          "internalType": "string",
          "name": "name",
          "type": "string"
        },
        {
          "internalType": "string",
          "name": "description",
          "type": "string"
        },
        {
          "internalType": "uint256",
          "name": "unitCost",
          "type": "uint256"
        },
        {
          "internalType": "uint256",
          "name": "revenueRate",
          "type": "uint256"
        },
        {
          "internalType": "uint256",
          "name": "createdAt",
          "type": "uint256"
        },
        {
          "internalType": "bool",
          "name": "isActive",
          "type": "bool"
        },
        {
          "internalType": "uint256",
          "name": "lastRevenueTime",
          "type": "uint256"
        }
      ],
      "stateMutability": "view",
      "type": "function"
    },
    {
      "inputs": [],
      "name": "farmLand",
      "outputs": [
        {
          "internalType": "contract FarmLand",
          "name": "",
          "type": "address"
        }
      ],
      "stateMutability": "view",
      "type": "function"
    },
    {
      "inputs": [],
      "name": "gameToken",
      "outputs": [
        {
          "internalType": "contract GameToken",
          "name": "",
          "type": "address"
        }
      ],
      "stateMutability": "view",
      "type": "function"
    },
    {
      "inputs": [
        {
          "internalType": "uint256",
          "name": "dishId",
          "type": "uint256"
        }
      ],
      "name": "getDish",
      "outputs": [
        {
          "internalType": "string",
          "name": "name",
          "type": "string"
        },
        {
          "internalType": "string",
          "name": "description",
          "type": "string"
        },
        {
          "internalType": "uint256",
          "name": "unitCost",
          "type": "uint256"
        },
        {
          "internalType": "uint256",
          "name": "revenueRate",
          "type": "uint256"
        },
        {
          "internalType": "bool",
          "name": "isActive",
          "type": "bool"
        }
      ],
      "stateMutability": "view",
      "type": "function"
    },
    {
      "inputs": [
        {
          "internalType": "uint256",
          "name": "dishId",
          "type": "uint256"
        }
      ],
      "name": "getPendingRevenue",
      "outputs": [
        {
          "internalType": "uint256",
          "name": "pendingRevenue",
          "type": "uint256"
        },
        {
          "internalType": "uint256",
          "name": "timeUntilNextRevenue",
          "type": "uint256"
        }
      ],
      "stateMutability": "view",
      "type": "function"
    },
    {
      "inputs": [
        {
          "internalType": "address",
          "name": "player",
          "type": "address"
        }
      ],
      "name": "getPlayerDishes",
      "outputs": [
        {
          "internalType": "uint256[]",
          "name": "",
          "type": "uint256[]"
        }
      ],
      "stateMutability": "view",
      "type": "function"
    },
    {
      "inputs": [],
      "name": "nextDishId",
      "outputs": [
        {
          "internalType": "uint256",
          "name": "",
          "type": "uint256"
        }
      ],
      "stateMutability": "view",
      "type": "function"
    },
    {
      "inputs": [],
      "name": "owner",
      "outputs": [
        {
          "internalType": "address",
          "name": "",
          "type": "address"
        }
      ],
      "stateMutability": "view",
      "type": "function"
    },
    {
      "inputs": [
        {
          "internalType": "address",
          "name": "",
          "type": "address"
        },
        {
          "internalType": "uint256",
          "name": "",
          "type": "uint256"
        }
      ],
      "name": "playerDishes",
      "outputs": [
        {
          "internalType": "uint256",
          "name": "",
          "type": "uint256"
        }
      ],
      "stateMutability": "view",
      "type": "function"
    },
    {
      "inputs": [
        {
          "internalType": "uint256",
          "name": "dishId",
          "type": "uint256"
        }
      ],
      "name": "removeDish",
      "outputs": [],
      "stateMutability": "nonpayable",
      "type": "function"
    },
    {
      "inputs": [],
      "name": "renounceOwnership",
      "outputs": [],
      "stateMutability": "nonpayable",
      "type": "function"
    },
    {
      "inputs": [
        {
          "internalType": "uint256",
          "name": "dishId",
          "type": "uint256"
        }
      ],
      "name": "toggleDish",
      "outputs": [],
      "stateMutability": "nonpayable",
      "type": "function"
    },
    {
      "inputs": [
        {
          "internalType": "address",
          "name": "newOwner",
          "type": "address"
        }
      ],
      "name": "transferOwnership",
      "outputs": [],
      "stateMutability": "nonpayable",
      "type": "function"
    }
  ],
  "bytecode": "0x608060405234801561000f575f5ffd5b5060405161164438038061164483398101604081905261002e91610109565b338061005357604051631e4fbdf760e01b81525f600482015260240160405180910390fd5b61005c8161009f565b50600180546001600160a01b039485166001600160a01b031991821617909155600280549385169382169390931790925560038054919093169116179055610149565b5f80546001600160a01b038381166001600160a01b0319831681178455604051919092169283917f8be0079c531659141344cd1fd0a4f28419497f9722a3daafe3b4186f6b6457e09190a35050565b80516001600160a01b0381168114610104575f5ffd5b919050565b5f5f5f6060848603121561011b575f5ffd5b610124846100ee565b9250610132602085016100ee565b9150610140604085016100ee565b90509250925092565b6114ee806101565f395ff3fe608060405234801561000f575f5ffd5b506004361061011c575f3560e01c80638bab9814116100a9578063c50870611161006e578063c508706114610288578063cea4a37e1461029b578063d8fa0057146102ae578063ec4d4b4f146102c1578063f2fde38b146102d4575f5ffd5b80638bab9814146102265780638da5cb5b1461024a578063b9f0fd5a1461025a578063c2b093ce14610262578063c3dfdae614610275575f5ffd5b806344238429116100ef57806344238429146101bb5780635c92f7dd146101e3578063622b55d1146101f6578063715018a6146101fe5780637950dd7914610206575f5ffd5b8063064fbd5a14610120578063119018721461014f578063193ff9bb1461016657806334212c64146101a6575b5f5ffd5b61013361012e366004610fd2565b6102e7565b6040516101469796959493929190611017565b60405180910390f35b61015860075481565b604051908152602001610146565b61018e610174366004610fd2565b60066020525f90815260409020546001600160a01b031681565b6040516001600160a01b039091168152602001610146565b6101b96101b4366004610fd2565b610431565b005b6101ce6101c9366004610fd2565b6104f9565b60408051928352602083019190915201610146565b6101586101f1366004611083565b610707565b610158603c81565b6101b9610732565b6102196102143660046110ab565b610745565b60405161014691906110cb565b610239610234366004610fd2565b6107ae565b60405161014695949392919061110d565b5f546001600160a01b031661018e565b6101b9610960565b6101b96102703660046111f0565b610a1a565b60015461018e906001600160a01b031681565b6101b9610296366004610fd2565b610b62565b6101b96102a9366004610fd2565b610c04565b60025461018e906001600160a01b031681565b60035461018e906001600160a01b031681565b6101b96102e23660046110ab565b610da8565b60056020525f908152604090208054819061030190611264565b80601f016020809104026020016040519081016040528092919081815260200182805461032d90611264565b80156103785780601f1061034f57610100808354040283529160200191610378565b820191905f5260205f20905b81548152906001019060200180831161035b57829003601f168201915b50505050509080600101805461038d90611264565b80601f01602080910402602001604051908101604052809291908181526020018280546103b990611264565b80156104045780601f106103db57610100808354040283529160200191610404565b820191905f5260205f20905b8154815290600101906020018083116103e757829003601f168201915b505050506002830154600384015460048501546005860154600690960154949592949193509160ff169087565b5f818152600660205260409020546001600160a01b0316331461046f5760405162461bcd60e51b81526004016104669061129c565b60405180910390fd5b5f8181526005602081905260409091209081015460ff166104955742600682015561049e565b61049e82610de2565b60058101805460ff8082161560ff19909216821790925560408051858152919092161515602082015233917f4ce8b582630d0f39fdebf765113ec5d8355602cf4b548524cd551ce6b47c4e0b91015b60405180910390a25050565b5f5f5f60055f8581526020019081526020015f206040518060e00160405290815f8201805461052790611264565b80601f016020809104026020016040519081016040528092919081815260200182805461055390611264565b801561059e5780601f106105755761010080835404028352916020019161059e565b820191905f5260205f20905b81548152906001019060200180831161058157829003601f168201915b505050505081526020016001820180546105b790611264565b80601f01602080910402602001604051908101604052809291908181526020018280546105e390611264565b801561062e5780601f106106055761010080835404028352916020019161062e565b820191905f5260205f20905b81548152906001019060200180831161061157829003601f168201915b5050509183525050600282015460208201526003820154604082015260048201546060820152600582015460ff161515608082015260069091015460a09182015281015190915061068457505f93849350915050565b5f8160c001514261069591906112e7565b9050603c81106106ef575f6106ab603c83611314565b90508083606001516106bd9190611327565b6106cf90670de0b6b3a7640000611327565b94506106dc603c8361133e565b6106e790603c6112e7565b935050610700565b5f93506106fd81603c6112e7565b92505b5050915091565b6004602052815f5260405f208181548110610720575f80fd5b905f5260205f20015f91509150505481565b61073a610f0d565b6107435f610f39565b565b6001600160a01b0381165f908152600460209081526040918290208054835181840281018401909452808452606093928301828280156107a257602002820191905f5260205f20905b81548152602001906001019080831161078e575b50505050509050919050565b6060805f5f5f5f60055f8881526020019081526020015f206040518060e00160405290815f820180546107e090611264565b80601f016020809104026020016040519081016040528092919081815260200182805461080c90611264565b80156108575780601f1061082e57610100808354040283529160200191610857565b820191905f5260205f20905b81548152906001019060200180831161083a57829003601f168201915b5050505050815260200160018201805461087090611264565b80601f016020809104026020016040519081016040528092919081815260200182805461089c90611264565b80156108e75780601f106108be576101008083540402835291602001916108e7565b820191905f5260205f20905b8154815290600101906020018083116108ca57829003601f168201915b50505050508152602001600282015481526020016003820154815260200160048201548152602001600582015f9054906101000a900460ff161515151581526020016006820154815250509050805f01518160200151826040015183606001518460a00151955095509550955095505091939590929450565b335f908152600460209081526040808320805482518185028101850190935280835291929091908301828280156109b457602002820191905f5260205f20905b8154815260200190600101908083116109a0575b509394505f93505050505b8151811015610a16575f8282815181106109db576109db611351565b6020908102919091018101515f818152600592839052604090209091015490915060ff1615610a0d57610a0d81610de2565b506001016109bf565b5050565b600780545f9182610a2a83611365565b909155506040805160e08101825287815260208082018890528183018790526060820186905242608083018190525f60a0840181905260c084018290528581526005909252929020815193945091929091908190610a8890826113c9565b5060208201516001820190610a9d90826113c9565b50604082810151600283015560608301516003830155608083015160048084019190915560a084015160058401805460ff191691151591909117905560c0909301516006928301555f85815260209283528181208054336001600160a01b031990911681179091558082529383528181208054600181018255908252929020909101849055517faa7093dccafa96da30e9fb276206a9363e0dd905d0eeae7935d295ee846a37a990610b529085908a90611484565b60405180910390a2505050505050565b5f818152600660205260409020546001600160a01b03163314610b975760405162461bcd60e51b81526004016104669061129c565b5f818152600560208190526040909120015460ff16610bf85760405162461bcd60e51b815260206004820152601b60248201527f52657374617572616e743a2064697368206e6f742061637469766500000000006044820152606401610466565b610c0181610de2565b50565b5f818152600660205260409020546001600160a01b03163314610c395760405162461bcd60e51b81526004016104669061129c565b5f818152600560208190526040909120015460ff1615610c5c57610c5c81610de2565b335f908152600460205260408120905b8154811015610d0d5782828281548110610c8857610c88611351565b905f5260205f20015403610d055781548290610ca6906001906112e7565b81548110610cb657610cb6611351565b905f5260205f200154828281548110610cd157610cd1611351565b905f5260205f20018190555081805480610ced57610ced6114a4565b600190038181905f5260205f20015f90559055610d0d565b600101610c6c565b505f82815260056020526040812090610d268282610f88565b610d33600183015f610f88565b505f60028201819055600382018190556004820181905560058201805460ff191690556006918201819055838152602091825260409081902080546001600160a01b03191690555183815233917f50359e49d838cff8b82a901b652831c064eb0bcdf0803de004007c1f44f6062691016104ed565b610db0610f0d565b6001600160a01b038116610dd957604051631e4fbdf760e01b81525f6004820152602401610466565b610c0181610f39565b5f818152600560209081526040808320600692839052908320549181015490926001600160a01b039092169190610e1990426112e7565b9050603c8110610f07575f610e2f603c83611314565b90505f818560030154610e429190611327565b610e5490670de0b6b3a7640000611327565b42600687015590508015610f04576001546040516340c10f1960e01b81526001600160a01b03868116600483015260248201849052909116906340c10f19906044015f604051808303815f87803b158015610ead575f5ffd5b505af1158015610ebf573d5f5f3e3d5ffd5b505060408051898152602081018590526001600160a01b03881693507fe15ac7042d8e9a41d0f641b123fa306fe7c35d5df812dba320476718380e2785925001610b52565b50505b50505050565b5f546001600160a01b031633146107435760405163118cdaa760e01b8152336004820152602401610466565b5f80546001600160a01b038381166001600160a01b0319831681178455604051919092169283917f8be0079c531659141344cd1fd0a4f28419497f9722a3daafe3b4186f6b6457e09190a35050565b508054610f9490611264565b5f825580601f10610fa3575050565b601f0160209004905f5260205f2090810190610c0191905b80821115610fce575f8155600101610fbb565b5090565b5f60208284031215610fe2575f5ffd5b5035919050565b5f81518084528060208401602086015e5f602082860101526020601f19601f83011685010191505092915050565b60e081525f61102960e083018a610fe9565b828103602084015261103b818a610fe9565b6040840198909852505060608101949094526080840192909252151560a083015260c09091015292915050565b80356001600160a01b038116811461107e575f5ffd5b919050565b5f5f60408385031215611094575f5ffd5b61109d83611068565b946020939093013593505050565b5f602082840312156110bb575f5ffd5b6110c482611068565b9392505050565b602080825282518282018190525f918401906040840190835b818110156111025783518352602093840193909201916001016110e4565b509095945050505050565b60a081525f61111f60a0830188610fe9565b82810360208401526111318188610fe9565b604084019690965250506060810192909252151560809091015292915050565b634e487b7160e01b5f52604160045260245ffd5b5f82601f830112611174575f5ffd5b813567ffffffffffffffff81111561118e5761118e611151565b604051601f8201601f19908116603f0116810167ffffffffffffffff811182821017156111bd576111bd611151565b6040528181528382016020018510156111d4575f5ffd5b816020850160208301375f918101602001919091529392505050565b5f5f5f5f60808587031215611203575f5ffd5b843567ffffffffffffffff811115611219575f5ffd5b61122587828801611165565b945050602085013567ffffffffffffffff811115611241575f5ffd5b61124d87828801611165565b949794965050505060408301359260600135919050565b600181811c9082168061127857607f821691505b60208210810361129657634e487b7160e01b5f52602260045260245ffd5b50919050565b6020808252601a908201527f52657374617572616e743a206e6f742064697368206f776e6572000000000000604082015260600190565b634e487b7160e01b5f52601160045260245ffd5b818103818111156112fa576112fa6112d3565b92915050565b634e487b7160e01b5f52601260045260245ffd5b5f8261132257611322611300565b500490565b80820281158282048414176112fa576112fa6112d3565b5f8261134c5761134c611300565b500690565b634e487b7160e01b5f52603260045260245ffd5b5f60018201611376576113766112d3565b5060010190565b601f8211156113c457805f5260205f20601f840160051c810160208510156113a25750805b601f840160051c820191505b818110156113c1575f81556001016113ae565b50505b505050565b815167ffffffffffffffff8111156113e3576113e3611151565b6113f7816113f18454611264565b8461137d565b6020601f821160018114611429575f83156114125750848201515b5f19600385901b1c1916600184901b1784556113c1565b5f84815260208120601f198516915b828110156114585787850151825560209485019460019092019101611438565b508482101561147557868401515f19600387901b60f8161c191681555b50505050600190811b01905550565b828152604060208201525f61149c6040830184610fe9565b949350505050565b634e487b7160e01b5f52603160045260245ffdfea2646970667358221220c679a297298391fac6c68b4c063563beaec474acb333a2d1557e96ff4906ff4364736f6c634300081c0033",
  "linkReferences": {},
  "deployedLinkReferences": {},
  "immutableReferences": {},
  "inputSourceName": "project/contracts/Restaurant.sol",
  "buildInfoId": "solc-0_8_28-9f34004f5459252d7a3f814b0ecf0e64eb2311c4"
}